:020000040800F2
:1000000000800020250E0008AD0E0008B10E00088B
:10001000B50E0008B90E0008BD0E00080000000073
:10002000000000000000000000000000C50E0008F5
:10003000C10E000800000000C90E0008CD0E000827
:100040003D120008D10E0008D50E0008D90E000898
:10005000DD0E0008E10E0008E50E0008E90E0008BC
:10006000ED0E0008F10E0008F50E0008F90E00086C
:10007000FD0E0008010F0008F5110008B11100087D
:10008000050F0008090F00080D0F0008110F0008E8
:10009000150F0008190F00081D0F0008210F000898
:1000A000250F0008290F00082D0F0008310F000848
:1000B000350F0008390F00083D0F0008410F0008F8
:1000C000450F00080D100008AD0F0008490F00088B
:1000D0004D0F0008510F0008550F0008590F000878
:1000E0005D0F0008610F0008650F0008690F000828
:1000F0006D0F0008710F0008750F0008790F0008D8
:100100007D0F0008810F0008850F0008890F000887
:100110008D0F0008910F0008950F0008990F000837
:100120009D0F0008A10F0008A50F0008A90F0008E7
:1001300000000000000000000000000000000000BF
:1001400000000000000000000000000000000000AF
:10015000000000000000000000000000000000009F
:10016000000000000000000000000000000000008F
:10017000000000000000000000000000000000007F
:10018000000000000000000000000000000000006F
:10019000000000000000000000000000000000005F
:1001A000000000000000000000000000000000004F
:1001B000000000000000000000000000000000003F
:1001C000000000000000000000000000000000002F
:1001D000000000000000000000000000000000001F
:0401E0005FF8E0F1F3
:1001E80030BF704720BF704740BF7047BFF36F8F65
:1001F8007047BFF34F8F7047BFF35F8F704701DFC2
:100208007047EFF31480704780F31488BFF36F8F43
:100218007047EFF30980704780F309887047EFF360
:100228000880704780F30888704762B6704772B6D6
:100238007047EFF31080704761B6704771B670472A
:10024800EFF31380704780F311887047EFF3128043
:10025800704740BA704700BA70470000032A8446C6
:1002680030B4C9B2144627D91CF0030325D11D4662
:100278001A462B0201325D18042AFAD16046036837
:1002880085EA0303A3F10132DB431A4012F0803FF1
:100298000ED003788B421ED04378421C8B421BD071
:1002A8008378821C8B4217D0C378C21C8B4213D030
:1002B800043C0430032CE2D85CB103788B4206D0AE
:1002C800621E32B110F8013F013A8B42F9D130BCBD
:1002D80070470020FBE702461046F8E770B4144662
:1002E8000F2C06460D4604D945EA060313F0030F02
:1002F8000DD04AB14FF0000C11F80C3000F80C305A
:100308000CF1010C9445F7D1304670BC7047A446F7
:100318000B68ACF1100C03604A6842608B6883601C
:10032800CA681031C2601030BCF10F0FF0D8A4F1C8
:10033800100303F00F0223F00F031033EC18F11829
:10034800032A13D94FF0000C54F80C3041F80C3044
:100358000CF1040CCCEB0203032BF5D8131F03F0AC
:10036800030223F003030433E418C918084621469E
:10037800BFE7C0460B464142014323F0004040F22C
:10038800000340EAD170C7F6F0731B1A58421843AD
:10039800C01701307047C0460B464142014340F246
:1003A800000010B423F0004444EAD174C7F6F0709A
:1003B800001BC00F10BC704710F0030F014618BF98
:1003C80000460BD108460B6801E050F8043FA3F142
:1003D8000132DB431A4012F0803FF6D003781BB19C
:1003E80010F8013F002BFBD1401A7047002934D088
:1003F8000123002210B488422CD301242407A142EF
:1004080004D2814202D209011B01F8E7E400A142AB
:1004180004D2814202D249005B00F8E7884201D346
:10042800401A1A434C08A04202D3001B5C0822431E
:100438008C08A04202D3001B9C082243CC08A0428F
:1004480002D3001BDC082243002803D01B0901D07B
:100458000909E3E7101C10BC704708B14FF0FF30E2
:1004680000F062B80029F8D003B5FFF7C1FF0EBC51
:100478004243891A1847C046002941D010B4041CC9
:100488004C40A44601230022002900D549420028F7
:1004980000D5404288422CD301242407A14204D22B
:1004A800814202D209011B01F8E7E400A14204D20B
:1004B800814202D249005B00F8E7884201D3401A22
:1004C8001A434C08A04202D3001B5C0822438C0844
:1004D800A04202D3001B9C082243CC08A04202D3AE
:1004E800001BDC082243002803D01B0901D009099E
:1004F800E3E7101C6446002C00D5404210BC70474E
:100508000028C8BF6FF00040B8BF4FF0004000F0AF
:100518000BB8C0460029F3D003B5FFF7AFFF0EBCF8
:100528004243891A1847C0467047C04681F00041C7
:1005380002E0C04683F0004330B54FEA41044FEA79
:10054800430594EA050F08BF90EA020F1FBF54EA5B
:10055800000C55EA020C7FEA645C7FEA655C00F0F7
:10056800E2804FEA5454D4EB5555B8BF6D420CDDC8
:100578002C4480EA020281EA030382EA000083EA4B
:10058800010180EA020281EA0303362D88BF30BDEB
:1005980011F0004F4FEA01314FF4801C4CEA113141
:1005A80002D0404261EB410113F0004F4FEA0333A0
:1005B8004CEA133302D0524263EB430394EA050F2B
:1005C80000F0A780A4F10104D5F1200E0DDB02FA9A
:1005D8000EFC22FA05F2801841F1000103FA0EF22E
:1005E800801843FA05F359410EE0A5F120050EF1F4
:1005F800200E012A03FA0EFC28BF4CF0020C43FA25
:1006080005F3C01851EBE37101F0004507D54FF031
:10061800000EDCF1000C7EEB00006EEB0101B1F581
:10062800801F1BD3B1F5001F0CD349085FEA3000C7
:100638004FEA3C0C04F101044FEA445212F5800FD2
:1006480080F09A80BCF1004F08BF5FEA500C50F16F
:10065800000041EB045141EA050130BD5FEA4C0C52
:10066800404141EB010111F4801FA4F10104E9D1DB
:1006780091F0000F04BF01460020B1FA81F308BFD2
:100688002033A3F10B03B3F120020CDA0C3208DD9E
:1006980002F1140CC2F10C0201FA0CF021FA02F179
:1006A8000CE002F11402D8BFC2F1200C01FA02F1E9
:1006B80020FA0CFCDCBF41EA0C019040E41AA2BF0E
:1006C80001EB0451294330BD6FEA04041F3C1CDAD6
:1006D8000C340EDC04F11404C4F1200220FA04F0F6
:1006E80001FA02F340EA030021FA04F345EA0301A0
:1006F80030BDC4F10C04C4F1200220FA02F001FA62
:1007080004F340EA0300294630BD21FA04F02946E3
:1007180030BD94F0000F83F4801306BF81F480117C
:100728000134013D4EE77FEA645C18BF7FEA655CEF
:1007380029D094EA050F08BF90EA020F05D054EAC1
:10074800000C04BF1946104630BD91EA030F1EBFC6
:100758000021002030BD5FEA545C05D140004941CA
:1007680028BF41F0004130BD14F580043CBF01F5BD
:10077800801130BD01F0004545F0FE4141F47001A3
:100788004FF0000030BD7FEA645C1ABF194610467E
:100798007FEA655C1CBF0B46024650EA013406BF7F
:1007A80052EA033591EA030F41F4002130BDC046F7
:1007B80090F0000F04BF0021704730B54FF48064FB
:1007C80004F132044FF000054FF0000150E7C04635
:1007D80090F0000F04BF0021704730B54FF48064DB
:1007E80004F1320410F0004548BF40424FF00001C8
:1007F8003EE7C04642004FEAE2014FEA31014FEAC4
:1008080002701FBF12F07F4393F07F4F81F0605159
:10081800704792F0000F14BF93F07F4F704730B5C8
:100828004FF4607401F0004521F0004120E7C04614
:1008380050EA010208BF704730B54FF000050AE0E2
:1008480050EA010208BF704730B511F0004502D5E3
:10085800404261EB41014FF4806404F132045FEAE5
:10086800915C3FF4DCAE4FF003025FEADC0C18BF8A
:1008780003325FEADC0C18BF033202EBDC02C2F180
:10088800200300FA03FC20FA02F001FA03FE40EA12
:100898000E0021FA02F11444C1E6C04670B54FF0CB
:1008A800FF0C4CF4E06C1CEA11541DBF1CEA1355F4
:1008B80094EA0C0F95EA0C0F00F0DEF82C4481EA5C
:1008C800030621EA4C5123EA4C5350EA013518BF7C
:1008D80052EA033541F4801143F4801338D0A0FB69
:1008E80002CE4FF00005E1FB02E506F00042E0FB16
:1008F80003E54FF00006E1FB03569CF0000F18BF1C
:100908004EF0010EA4F1FF04B6F5007F64F54074C3
:1009180004D25FEA4E0E6D4146EB060642EAC62156
:1009280041EA55514FEAC52040EA5E504FEACE2EC3
:10093800B4F1FD0C88BFBCF5E06F1ED8BEF1004FC6
:1009480008BF5FEA500E50F1000041EB045170BD42
:1009580006F0004646EA010140EA020081EA030186
:10096800B4EB5C04C2BFD4EB0C0541EA045170BD82
:1009780041F480114FF0000E013C00F3AB8014F1FC
:10098800360FDEBF002001F0004170BDC4F1000445
:10099800203C35DA0C341BDC04F11404C4F12005C6
:1009A80000FA05F320FA04F001FA05F240EA020021
:1009B80001F0004221F0004110EBD37021FA04F657
:1009C80042EB06015EEA430E08BF20EAD37070BD11
:1009D800C4F10C04C4F1200500FA04F320FA05F070
:1009E80001FA04F240EA020001F0004110EBD37072
:1009F80041F100015EEA430E08BF20EAD37070BDE2
:100A0800C4F1200500FA05F24EEA020E20FA04F3BA
:100A180001FA05F243EA020321FA04F001F0004169
:100A280021FA04F220EA020000EBD3705EEA430EDA
:100A380008BF20EAD37070BD94F0000F0FD101F009
:100A48000046400041EB010111F4801F08BF013C42
:100A5800F7D041EA060195F0000F18BF704703F080
:100A68000046520043EB030313F4801F08BF013D07
:100A7800F7D043EA0603704794EA0C0F0CEA1355C3
:100A880018BF95EA0C0F0CD050EA410618BF52EA7D
:100A98004306D1D181EA030101F000414FF0000083
:100AA80070BD50EA410606BF1046194652EA430691
:100AB80019D094EA0C0F02D150EA013613D195EA05
:100AC8000C0F05D152EA03361CBF104619460AD14D
:100AD80081EA030101F0004141F0FE4141F4700157
:100AE8004FF0000070BD41F0FE4141F4780170BD47
:100AF80070B54FF0FF0C4CF4E06C1CEA11541DBFAC
:100B08001CEA135594EA0C0F95EA0C0F00F0A7F8AD
:100B1800A4EB050481EA030E52EA03354FEA0131DA
:100B280000F088804FEA03334FF0805545EA1313ED
:100B380043EA12634FEA022245EA111545EA1065B5
:100B48004FEA00260EF000419D4208BF964244F14C
:100B5800FD0404F5407402D25B084FEA3202B61A6B
:100B680065EB03055B084FEA32024FF480104FF43F
:100B7800002CB6EB020E75EB030E22BFB61A7546B3
:100B880040EA0C005B084FEA3202B6EB020E75EB46
:100B9800030E22BFB61A754640EA5C005B084FEAAE
:100BA8003202B6EB020E75EB030E22BFB61A75467B
:100BB80040EA9C005B084FEA3202B6EB020E75EB86
:100BC800030E22BFB61A754640EADC0055EA060E47
:100BD80018D04FEA051545EA16754FEA06164FEA8A
:100BE800C30343EA52734FEAC2025FEA1C1CC0D136
:100BF80011F4801F0BD141EA00014FF000004FF0C3
:100C0800004CB6E711F4801F04BF01430020B4F183
:100C1800FD0C88BFBCF5E06F3FF6AFAEB5EB030C3B
:100C280004BFB6EB020C5FEA500C50F1000041EB38
:100C3800045170BD0EF0004E4EEA113114EB5C0405
:100C4800C2BFD4EB0C0541EA045170BD41F48011D8
:100C58004FF0000E013C90E645EA060E8DE60CEAE0
:100C6800135594EA0C0F08BF95EA0C0F3FF43BAFFD
:100C780094EA0C0F0AD150EA01347FF434AF95EAB4
:100C88000C0F7FF425AF104619462CE795EA0C0F98
:100C980006D152EA03353FF4FDAE1046194622E765
:100CA80050EA410618BF52EA43067FF4C5AE50EA3F
:100CB80041047FF40DAF52EA43057FF4EBAE12E72F
:100CC8004FF0FF3C06E0C0464FF0010C02E0C04682
:100CD8004FF0010C4DF804CC4FEA410C7FEA6C5CF4
:100CE8004FEA430C18BF7FEA6C5C1AD050EA410CFB
:100CF8000CBF52EA430C91EA030F02BF90EA020FBD
:100D08000020704710F1000F91EA030F58BF994275
:100D180008BF90422CBFD8176FEAE37040F001007B
:100D280070474FEA410C7FEA6C5C02D150EA013C03
:100D380007D14FEA430C7FEA6C5CD7D152EA033CF7
:100D4800D4D05DF8040C70478446104662468C4641
:100D58001946634600E0C04601B5FFF7B9FF002811
:100D680048BF10F1000F01BD4DF808EDFFF7F4FF83
:100D78000CBF012000205DF808FBC0464DF808EDC7
:100D8800FFF7EAFF34BF012000205DF808FBC046EA
:100D98004DF808EDFFF7E0FF94BF012000205DF853
:100DA80008FBC0464DF808EDFFF7CEFF94BF0120C1
:100DB80000205DF808FBC0464DF808EDFFF7C4FFBA
:100DC80034BF012000205DF808FBC0464FEA41020D
:100DD80012F5001215D211D56FF47873B3EB625285
:100DE80012D94FEAC12343F0004343EA505311F0AC
:100DF800004F23FA02F018BF404270474FF000003E
:100E0800704750EA013005D111F0004008BF6FF07B
:100E1800004070474FF000007047C046684620F019
:100E280007018D4601B540F20002C2F2000240F20D
:100E3800F403C2F200039A4216D24FF0000240F2C5
:100E48000001C2F2000144F6B41EC0F6000E40F2E2
:100E5800F400C2F200005EF802308B5002F1040286
:100E680001EB02038342F6D340F2F402C2F200021D
:100E780040F2E853C2F200039A420DD240F2F40362
:100E8800C2F200034FF0000140F2E852C2F2000241
:100E980043F8041B9342FBD300F080FBBDE80140FC
:100EA800854670477047C046FEE7C046FEE7C04625
:100EB800FEE7C046FEE7C0467047C0467047C046DA
:100EC8007047C0467047C0467047C0467047C04626
:100ED8007047C0467047C0467047C0467047C04616
:100EE8007047C0467047C0467047C0467047C04606
:100EF8007047C0467047C0467047C0467047C046F6
:100F08007047C0467047C0467047C0467047C046E5
:100F18007047C0467047C0467047C0467047C046D5
:100F28007047C0467047C0467047C0467047C046C5
:100F38007047C0467047C0467047C0467047C046B5
:100F48007047C0467047C0467047C0467047C046A5
:100F58007047C0467047C0467047C0467047C04695
:100F68007047C0467047C0467047C0467047C04685
:100F78007047C0467047C0467047C0467047C04675
:100F88007047C0467047C0467047C0467047C04665
:100F98007047C0467047C0467047C0467047C04655
:100FA8007047C04610B51248124900F06DFD18B1DF
:100FB8000F48104900F078FD0D480F4900F064FD16
:100FC80018B10B480C4900F06FFD09480B4900F0B7
:100FD8005BFD18B10648094900F066FD0448084958
:100FE80000F052FD18B10248054900F05DFD10BD42
:100FF8000058004000040001000100010002000147
:101008000008000170B5584800F030FD574B1860D3
:10101800574B984244D00AD83F3B984218D00133E6
:1010280098422DD0B0F5806F40F0998092E0514BF6
:10103800984260D004D8504B984240F090802FE0FE
:101048004E4B984221D00233984240F0888060E0AD
:101058004548012100F0D4FC012243484FF4806147
:1010680000F0DCFC464B474A1B781BB951783E48D8
:10107800012202E03C485178002200F0E1FC72E0D5
:10108800414B4FF000021A806DE0404A4FF00003D8
:1010980013803C4BDB6819784FF00103138034E070
:1010A800394E384A3588137A9D4206D22E48D4687C
:1010B80000F0C2FC6B1C60553380334B31491A88F1
:1010C8000B7A013B9A4208D10021274800F098FC8E
:1010D8002548012100F086FC45E00B7A9A4242D16E
:1010E8002B4B012421461C702A4803F0F9F92146AC
:1010F800221A28482AE02548224902880B7A9A426F
:1011080031D2CB68995C531C0380174800F092FCDD
:1011180029E01C4B1D491A7A0B88934223D14FF0C2
:1011280000020A80104800224FF4806100F076FC2B
:10113800194B012119700C4800F054FC0221154884
:1011480003F0CEF9C0F1010212480221D2B203F035
:10115800CDF908E00448114900F092FC03E010B111
:101168000F4A104B1A6070BD00580040F400002070
:1011780040000300800007004400030082000700CD
:10118800FD000020D80500200401002000010020F7
:101198000201002000100140FE00002000040001B0
:1011A8000400FA050CED00E010B54FF4802003F0C0
:1011B800EFF8012802D14FF4802012E04FF40030FC
:1011C80003F0E6F8012804D1074B18704FF40030FB
:1011D80007E04FF4002003F0DBF8012803D14FF4B7
:1011E800002003F0E9F810BDFC00002010B54FF412
:1011F800804003F0CDF8012802D14FF4804014E07C
:101208004FF4005003F0C4F8012806D10848002123
:1012180003F0A6F84FF4005007E04FF4004003F045
:10122800B7F8012803D14FF4004003F0C5F810BD0A
:101238004400024010B57F2003F0BCF903F0C2F966
:1012480010BDC04610B50446E1B2054800F05EFB8B
:101258000348802100F05EFB0028F9D0204610BD2D
:10126800004400402DE9F04F244D8DB0284602F08F
:1012780091FF234F234B0DF1040800244FF4806B9A
:101288004FF0800A4FF020094FF440562846414657
:10129800019302970394CDF810B00594CDF818A0E7
:1012A80007940894CDF824900A960B9403F038F824
:1012B80001220E212846143D03F05EF8284602F06C
:1012C80069FF104B28460193414610230297039368
:1012D800CDF810B00594CDF818A007940894CDF86F
:1012E80024900A960B9403F01BF828460E2101223D
:1012F80003F042F80DB0BDE8F08FC0465800024038
:101308001C0100200438014070B50021164C4FF034
:10131800006003F043F94FF4407003F0EDF8012545
:1013280021230026204623706670E57003F0F0F84C
:1013380022232046237003F0EBF80F232046237066
:101348006670E57003F0E4F80E232046237065709C
:10135800E57003F0DDF80223204626706370E5701F
:1013680003F0D6F870BDC046D40500202DE97343BC
:101378002B4D01AC4FF0C0034FF00308ADF804301B
:1013880028461C2321468DF807308DF8068003F087
:101398003BF84FF4406328462146A5F580650426AE
:1013A800ADF8043003F030F84FF480632846214646
:1013B800ADF804304FF018098DF8076003F024F8F1
:1013C8004FF4007328462146ADF804308DF80680A6
:1013D8008DF8079003F018F84FF0080328462146C7
:1013E800ADF804308DF8076003F00EF82846214662
:1013F800ADF804608DF806808DF8079003F004F8C6
:101408004FF00703ADF804300648102321468DF845
:1014180006808DF8073002F0F7FFBDE87C83C046F0
:10142800000C01400010014010B54FF4803000F06E
:1014380055F900F03BFA214B01280446187024D1D5
:10144800102002F0D5FF022002F0C6FF002000F0B5
:1014580083F9002000F094F94FF4806000F086F9D9
:101468004FF480304FF4801100F054F9204600F01A
:101478005BF9392000F004FA0028FAD0022000F0C5
:1014880059F900F061F90828FBD10120014600F064
:10149800CDF901214FF4804000F0D6F901214FF435
:1014A800003000F0DFF901214FF4C00000F0DAF954
:1014B8001D20012100F0C8F910BDC0460801002018
:1014C8002DE9F0411A4C1B4E4FF00C0300254FF448
:1014D8006128304621466381C4F80080A580E580F4
:1014E8002581A58100F01CFAC4F80080DFF850803F
:1014F8002146404600F014FA01223046402100F00F
:10150800F9F901210C4802F02BFF01223046802115
:1015180000F0F0F92946094802F022FF304601217F
:1015280000F0DAF94046012100F0D6F9BDE8F08173
:10153800C405002000380140580002404400024021
:101548000044004012494FF000030B804BF6FF7334
:101558004B804FF004038B804FF48063CB804FF4B3
:10156800804310B50B810B4C0B4B2046CB6000F031
:101578009FFA204601224FF4E06100F04FFA20461E
:10158800012100F065FA2046012100F00FFA10BD94
:101598000C01002000580040A086010070B5FFF73C
:1015A80043FFFFF7B1FEFFF7E1FEFFF75BFEFFF732
:1015B80087FFFFF7C7FFFEF713FE3E4B1B78012B93
:1015C800F9D13D4801F080F900253C4CE901635C04
:1015D8006218002B54D0635C394803705378437009
:1015E800AB01013314F81330837083781BB1CB1C23
:1015F800E318436000E043603149304C8B78E801E0
:101608000333C318E35C0B720B7A2BB18B7804336A
:101618001B18E318CB6000E0CB60294B1B78012B2B
:10162800194602D0022B2BD114E0224B25485970C1
:1016380000F0CAF901E0FEF7D3FD1E4CA378002B99
:10164800F9D01F4B20481A78A18800F09FFA002390
:10165800A37015E0174B00225A701A48012100F0B8
:10166800B3F901E0FEF7BCFD124CA379002BF9D0C9
:10167800134B16481A78A18800F088FA0023A37142
:101688000135082DA1D1124801F01EF9094A00239D
:10169800137004210F4802F023FFC0F10102042156
:1016A8000C48D2B202F022FF0B48012102F058FE8A
:1016B80081E7C046FC000020B84800081C01002053
:1016C800D805002000580040D4480008FF4800080A
:1016D8002749000800100140440002400C4AB0F5B8
:1016E800803F136823F480331360136823F4802346
:1016F800136003D0B0F5802F08D103E0136843F4DA
:10170800803302E0136843F4A02313607047C04697
:1017180000100240034B5A6822F47C12104308431D
:101728005860704700100240014B18607047C0466F
:1017380060004242034B5A6822F00302104358608B
:101748007047C04600100240024B586800F00C0079
:101758007047C04600100240034B5A6822F0F0025E
:10176800104358607047C04600100240034B5A6847
:1017780022F4E062104358607047C04600100240EF
:10178800034A536823F4605343EAC0035360704725
:10179800001002401F4910B54B68044603F00C03C3
:1017A800042B02D0082B14D101E01B4B12E04B682C
:1017B800C3F383439A1C4B6813F4803F01D1174B42
:1017C80005E04B6813F4003F14BF154B124B53430D
:1017D80000E0144B0F48236043681349C3F3031315
:1017E800CB5C2268DA4062604368C3F30223CB5CB7
:1017F80032FA03F3A3604368C3F3C223CB5CDA4035
:10180800E2604368C3F38133C9180B7CB2FBF3F27F
:10181800226110BD00100240001BB70000093D0006
:10182800808D5B0000127A00DC45000821B1054A72
:10183800536940EA030303E0024A536923EA0003B9
:10184800536170470010024021B1054A936940EA8C
:10185800030303E0024A936923EA00039361704794
:101868000010024021B1054AD36940EA030303E0AE
:10187800024AD36923EA0003D3617047001002408B
:101888004309012B02D1084B1B6805E0022B0BBF53
:10189800054B054B1B6A5B6A00F01F0033FA00F02A
:1018A80000F001007047C0460010024007B5002351
:1018B80001933120FFF7E4FF019B0133019318B92D
:1018C800019BB3F5A06FF4D13120FFF7D9FF0038A1
:1018D80018BF01200EBDC04621B183899BB243F4D5
:1018E800005304E0838923F400531B041B0C8381F9
:1018F8007047C04622B1838A9BB241EA030303E0E2
:10190800838A9BB223EA010383827047C905C90D04
:1019180081807047038819420CBF0020012070475E
:10192800038ACA8823F440531B041B0C1343038205
:1019380082890B8930B50D46898822F4B0520B4351
:10194800698922F00C020B431204120C9BB2134358
:101958008381838AAA8923F440731B041B0C89B0F2
:10196800134304468382019003A8FFF713FF0E4B2D
:101978009C420CBF069B059B19225A432B68642086
:101988009B00B2FBF3F2B2FBF0F109010B0900FB7B
:1019980013231B013233B3FBF0F303F00F030B43A4
:1019A8009BB2238109B030BD0038014021B10388C2
:1019B8009BB243F0010304E0038823F001031B04F6
:1019C8001B0C03807047C04621B103889BB243F4C7
:1019D800807304E0038823F480731B041B0C0380CA
:1019E8007047C04621B103889BB243F4007304E0FA
:1019F800038823F400731B041B0C03807047C04644
:101A080021B103889BB243F4806304E0038823F484
:101A180080631B041B0C03807047C04622B1838877
:101A28009BB241EA030303E083889BB223EA0103E4
:101A38008380704701827047008AC0B27047C046F1
:101A480012B141F0010101E001F0FE01018270478D
:101A580021B903889BB243F0800304E0038823F094
:101A680080031B041B0C03807047C0460346808A12
:101A78001B8B80B240EA034020F07F407047C0468D
:101A8800C94389B28182704783889AB2838A9BB29C
:101A980013EA010006D001F0E06312EA13430CBF19
:101AA800002001207047C046C94389B2818270472F
:101AB80070B586B00546848801A80E46FFF76AFE11
:101AC8000398304B24F03F042404B0FBF3F3240CB8
:101AD8001FFA83FE4EEA0404AC802B88F16823F0D9
:101AE80001031B041B0C2B80274B99420CD84A007E
:101AF800B0FBF2F20EF1010392B29BB22B84032ADF
:101B08008CBF1146042123E072884BF6FF739A427A
:101B180005D103234B43B0FBF3F39AB206E0192334
:101B28004B43B0FBF3F39BB243F4804213051B0D08
:101B38000BB942F001024FF4967303FB0EF342F423
:101B480000414FF47A7293FBF2F301339BB22B847A
:101B5800A9832B889BB243F001032B802B88F28842
:101B680023F48063318823F00A031B040A431B0C07
:101B780013439BB22B80B388328913439BB22B81CA
:101B880006B070BD40420F00A08601000FB400B53A
:101B980083B004AA08CA049301920020191C00F01B
:101BA80083FE03B008BC04B01847C046000000001C
:101BB800F0B55F4656464D464446F0B4C64CA5447B
:101BC80009900F1C1E1C9346C24AC14914911592D4
:101BD80000220D9210921392C04B089307926C4604
:101BE800A534069459460B78002B01D0252B01D13A
:101BF8005C4606E05C4601342378002B01D0252B97
:101C0800F9D15A46A51A002D07D05846291C3A1C66
:101C180000F076FE0D9B5B190D930023E356002B15
:101C280001D100F013FE0134A346AD4B6B440024F0
:101C38001C70189600210C910E910122534299466E
:101C4800181C1024402508269C4601E0189A189272
:101C580059460978090609160B910122934400E0B8
:101C68000E920B9B203B582B01D900F0EFFB9B00F9
:101C78000899CB589F469B4A139250E3189A1BE049
:101C8800974B6B441B781B061B16002BDED12022BA
:101C9800934B6B441A70189AD9E701230C9919438E
:101CA8000C91189AD3E7189A0432189B1B680E9364
:101CB800002BCCDA5B420E9304230C9919430C9148
:101CC800C5E72B22864B6B441A70189ABFE75A4611
:101CD8001278120612160B9201239B442A2A04D06A
:101CE800303A092A0AD9079917E0189A043218993C
:101CF800096889460029AADA8146A8E707998B006E
:101D08005B185B0099185A461278120612160B9245
:101D180001239B44303A092AF1D900298946A0DADF
:101D2800E1469EE780230C9919430C91189A8EE797
:101D3800079A93009B185B000B9A303AD2185B46BF
:101D48001B781B061B160B9301218B44303B092B78
:101D5800EFD985E70C9A32430C92189A77E70C9BD7
:101D68002B430C93189A72E75A460023D3566C2BD0
:101D780006D1013293460C9921430C91189A66E7D3
:101D88000C9A22430C92189A61E70C9B23430C93FC
:101D9800189A5CE70C9B189C0B99432901D0DA062A
:101DA80011D524AB00211960596022680998069959
:101DB80001F08AFE8046021C013201D100F046FD86
:101DC8000434189407E0231D18932368A5246C4451
:101DD800237001218846424B6B4400221A70A523C8
:101DE8006B449A4600F04FFD10230C9C1C430C9446
:101DF8000C99C90605D5189A04321792189B1D68C4
:101E08000FE00C9C640607D5189904311791189AAD
:101E180013881B041D1404E0189B04331793189CA3
:101E28002568002D01DB0122A0E26D422D222C4BFA
:101E38006B441A70012299E20B9E0C9C4B46494652
:101E4800013102D10622914607E0672E01D0472EC4
:101E580003D1002B01D10123994621070BD5189BEB
:101E68000733072293431A1C0832189219685A68D4
:101E7800149115920AE0189B0733072293431A1C02
:101E88000832189219685A6814911592149815997D
:101E9800FEF770FA002829D0149815990D4B0C4AB2
:101EA800FEF76CFF002806D10F4A92460023994698
:101EB8000324A046DCE22D22094B6B441A700A4920
:101EC8008A460322904600F0D4FCC046C046C0466D
:101ED80000000000000000009CFDFFFFF045000826
:101EE8005F020000484900085C49000814981599E9
:101EF800FEF752FA002806D0B54B9A460024A146B0
:101F080003218846B4E280235B001C430C94662EB0
:101F180003D14A46199203220BE0652E05D0452EBF
:101F280003D049461991022203E04946013119912B
:101F38000222149B159C002C04DB251C1C1C00236E
:101F48000F9305E0149C1599A24BCD182D210F91E4
:101F58000092199A019296AB029327AB039326AB92
:101F680004930998221C2B1C00F0B6FD8246672EAC
:101F780001D0472E02D10C9BDB072CD51999884636
:101F8800D044662E12D152460023D356302B0BD1A3
:101F9800201C291C8D4B8C4AFEF7E6FE002803D135
:101FA800012319995B1A9693969B9844201C291C27
:101FB800864B854AFEF7D8FE002803D1269B984514
:101FC80003D808E04246269205E030221A70013311
:101FD80026939845FAD8269B54461C1B1194331C0B
:101FE800673B5A425A41002A01D1472E0BD1969B92
:101FF800191D01DD994579DA002A01D000F032FC7B
:1020080045220B9201E0652E4FDC969B5D1E96954E
:10201800714B6B440BAC24781C70002D05DA6D42B3
:102028002D226D4B6B445A7003E02B226A4B6B4494
:102038005A70092D21DD24AE341C013C281C0A21CC
:10204800FEF768FA30312170281C0A21FEF714FACD
:10205800051C0928F1DC013C031C30332370A6421F
:1020680002D85E49694411E05C49694423780B70E1
:1020780001310134A642F9D808E0574B6B443022AD
:102088009A702A1C3032DA7055496944524B6B44B5
:10209800CB1A1093984611998844012902DC0C9AAE
:1020A800D2073AD50123984437E0662E20D1969C72
:1020B800A046002C0DDD4946002904D10C9AD20710
:1020C80001D40B9629E0434601339846C8440B9641
:1020D80023E04946002905D10C9AD20702D40123EE
:1020E80098461AE00224A046C84416E067210B91DE
:1020F800969A9046119B984505DB0C9CE4070CD5F5
:102108000121884409E0002A01DD012002E00223C0
:102118004446181B1199091888460F9A002A00D1BD
:10212800A4E12D222F4B6B441A70A2E30C9BDB0613
:1021380006D5189E0436189C23680D99196051E538
:102148000C9A520608D5189E0436189C23686946CE
:102158003422515A198045E5189E0436189A136896
:102168000D9C1C603EE510230C9919430C910C9AA8
:10217800D20606D5189B04331793189C25680022AD
:10218800F0E00C99490606D5189A04321792189B64
:102198001D880022E6E0189C0434179418990D68ED
:1021A8000022DFE0189A04321792189B1D68022358
:1021B8000C9C1C430C9478210B9102220A4B13931C
:1021C800D0E0C046C046C046000000000000000045
:1021D800604900080000008051020000530200001E
:1021E800550200005F020000644900080B990C9832
:1021F8004D46189AA74B6B4400241C70189B043357
:10220800189312689246002A04D1A34CA2460621CC
:10221800884638E3532901D0C20649D55446279445
:102228001AAB002119605960002D18DB884600247C
:102238001E1C279B1A59002A1FD009980699331C7F
:1022480001F042FC421C00D100E34044A84214DCE7
:102258000434854201D180460FE08046E9E71AAB95
:1022680000930998002127AA002301F0E5FB804686
:10227800031C013300D1E9E227944446002C00D125
:10228800F4E01AAB0021196059600093099883495A
:10229800694427AA434601F0CFFB804500D0D5E228
:1022A8007E4B6B4400221A559A4600239946DFE07C
:1022B800002D0EDB504600214A46FDF7CFFF0028CF
:1022C80000D1DFE25446041BA046C84500DDD9E230
:1022D800D9E25046FEF770F88046D4E210230C99F4
:1022E80019430C910C9AD20606D5189B0433179300
:1022F800189C2568012235E00C99490606D5189ADC
:1023080004321792189B1D8801222BE0189C043474
:10231800179418990D68012224E0614A13920C9BC6
:10232800DB0605D5189C0434179418990D680DE040
:102338000C9A520605D5189B04331793189C2588C8
:1023480004E0189904311791189A15680C9BDB075B
:1023580001D5002D01D1022204E002230C9C1C436C
:102368000C9402224B4B6B44002119704B46002BF6
:1023780000DA7BE280230C9C9C430C94474E6E440D
:10238800002D02D1494600294ED0012A0AD0002A40
:102398000CD0022A39D0179A1892424B9A4619241F
:1023A800A04665E0092D1BD8341C28E0B246072258
:1023B800012149428A442B1C134030331B061B0E53
:1023C80054462370ED08002DF2D152460C99C907E6
:1023D80036D5302B34D0013A9246302313702FE093
:1023E800341C013C281C0A21FEF73CF830312170CE
:1023F800281C0A21FDF7FAFF051C0928F1D8013C21
:10240800A2462B1C303323701AE0B2460F22012358
:102418005B429A442B1C1340139CE35C51460B709F
:102428002D09002DF3D10BE0002A08D10C9AD20710
:1024380005D5731E9A4630235446237000E0B246F1
:102448005146711A8846179A189211E00B9B002B77
:1024580000D1FBE1A5246C4423700E4B6B44002192
:102468001970069A9246012398460CE20024A14668
:1024780041461291C84501DA49461291054B6B4411
:102488001B781B061B16002B0ED0129901311291D6
:1024980010E0C0465F020000784900080102000011
:1024A80064490008804900080C9A920702D5129BDB
:1024B8000233129384230C9C1C400A941CD10E995D
:1024C800129A8E1A002E17DD102E10DD341CC04D06
:1024D800281C10213A1C00F013FA103C102CF7DCD1
:1024E800331C113B1B091B01321C103AD61AB84881
:1024F800311C3A1C00F004FAB64B6B441B781B06DF
:102508001B16002B06D0B348684401213A1C00F082
:10251800F7F90DE00C9B9B070AD56846A3303023DA
:1025280003700BAC2478447002213A1C00F0E8F9DF
:102538000A9980291FD10E9A129BD51A002D1ADDEF
:10254800102D12DD2C1CA24B1E1C1036301C102125
:102558003A1C00F0D5F9103C102CF7DC2B1C113B71
:102568001B091B012A1C103AD51A99481030291C3E
:102578003A1C00F0C5F94C464146651A002D1ADD93
:10258800102D12DD2C1C924B1E1C1036301C1021F5
:102598003A1C00F0B5F9103C102CF7DC2B1C113B51
:1025A8001B091B012A1C103AD51A89481030291C0E
:1025B8003A1C00F0A5F90C9AD20505D450464146BC
:1025C8003A1C00F09DF916E10B9B652B00DCB7E087
:1025D800149815997D4B7C4AFEF7C6FB002832D02B
:1025E8007D4801213A1C00F08BF9969B119C9C4276
:1025F80003DC0C99C90700D4FDE0784801213A1C96
:1026080000F07EF9119D013D002D00DCF3E0102D56
:1026180012DD2C1C6E4B1E1C1036301C10213A1C6F
:1026280000F06EF9103C102CF7DC2A1C103A119BB4
:10263800123B1B091B01D51A65481030291C3A1C8E
:1026480000F05EF9D7E09699002935DC624801214F
:102658003A1C00F055F9969B002B03D1119A002AD9
:1026680000D1C8E05D4801213A1C00F049F9969B69
:102678005D42002D1ADD102D12DD2C1C544B1E1C42
:102688001036301C10213A1C00F03AF9103C102C7E
:10269800F7DC2B1C113B1B091B012A1C103AD51A0D
:1026A8004B481030291C3A1C00F02AF95046119961
:1026B8003A1C00F025F99EE0119B8B422DDC504618
:1026C800191C3A1C00F01CF9969B119C1D1B002D2F
:1026D8001ADD102D12DD2C1C3D4B1E1C1036301C33
:1026E80010213A1C00F00CF9103C102CF7DC2B1CC4
:1026F800113B1B091B012A1C103AD51A344810300B
:10270800291C3A1C00F0FCF80C99C90773D533480A
:1027180001213A1C00F0F4F86DE050463A1C00F034
:10272800EFF8969C54442D4801213A1C00F0E8F833
:102738009699119A511A201C3A1C00F0E1F85AE0B7
:10274800119B012B02DC0C9CE40749D56846A33099
:1027580051460B7803702E23437002213A1C00F077
:10276800CFF814981599194B174AFEF7FDFA002867
:1027780007D150460130119901393A1C00F0C0F8D0
:1027880033E0119D013D002D2FDD102D12DD2C1C95
:102798000F4B1E1C1036301C10213A1C00F0B0F8EC
:1027A800103C102CF7DC2A1C103A119B123B1B0919
:1027B8001B01D51A06481030291C3A1C00F0A0F855
:1027C80013E0C046C046C0460000000000000000FC
:1027D800544700085F0200009C490008A04900080F
:1027E800504601213A1C00F08BF82C486844109997
:1027F8003A1C00F085F80C9A52071CD50E9B129CC7
:102808001E1B002E17DD102E10DD341C244D281C35
:1028180010213A1C00F074F8103C102CF7DC331C23
:10282800113B1B091B01321C103AD61A1C48311CDB
:102838003A1C00F065F80E9A12998A4200DA0A1CCE
:102848000D9B9B180D93189EFFF7CCF90D989923B3
:102858009B009D443CBC90469946A246AB46F0BCC2
:1028680002BC084765240B94FFF7CFFB0D4E6E445E
:102878008BE541461291002901DA002212920023C9
:10288800994602E6C846444612944146002901DAB0
:10289800002212920023994606E6C0465102000023
:1028A800544700080102000070B5041C0D1C131CDD
:1028B800044A1068211C2A1CFFF77AF970BC02BC74
:1028C8000847C0460000002070B5041C00280FD03F
:1028D800007800280CD00025013400060016FEF709
:1028E800B1FC0135002C04D020780028F4D100E098
:1028F80000250A20FEF7A6FC281C70BC02BC08476D
:1029080070B5061C0D1C111C002A08D00E228B5E07
:10291800013304D18A8982239B001A4202D1002DF7
:102928000FD115E00868041C002D08D00022AC4621
:10293800B35C8354013263469542F9D1E4180C60C4
:1029480006E000243057FEF77DFC0134A542F9D19A
:1029580070BC01BC0047C046F0B55F4656464D46C0
:102968004446F0B487B0029001910A6903699A421B
:1029780001DD0020A3E00198814614208144511E06
:1029880088460391033292000198831804339B46CA
:10299800029914310591029B9A1858460168013131
:1029A8005068FDF723FD0490002844D0059D4E464D
:1029B80000218C468A46464F04CE131C3B4004989F
:1029C800191C414351440C0C120C131C4343E418CA
:1029D800220C92462B68181C384060443940401A33
:1029E8001B0C3C401B1B02149B1819148C466B8053
:1029F80028800435B345DFD2039B04339B00029A39
:102A0800D3185B68002B16D1039B04339B00D218A4
:102A1800059B93420CD21368002B09D10120404238
:102A28008044043A0599914202D21368002BF5D0EC
:102A38004246029B1A610298019901F0B1F90028F7
:102A48003CDB049801300490059C0026204D4A4642
:102A580004329146043A02CA2368181C28400A1C0A
:102A68002A40801A80191B0C090C29405B1A021491
:102A78009B181E14638020800434CB45E7D242465D
:102A8800434604339B000298C3185B68002B15D19A
:102A9800131D9B00C218059991420CD21368002B94
:102AA80009D101235B429844043A0598904202D226
:102AB8001368002BF5D04146029A1161049807B0BB
:102AC8003CBC90469946A246AB46F0BC02BC0847BF
:102AD800FFFF000000000000F0B55F4656464D4677
:102AE8004446F0B4BC4CA5448346BC4868440168DD
:102AF80008920993099A002A05DA01230B60B84B5A
:102B08001A40099201E000230B60099CB54A231C76
:102B1800134093421FD1B44BB449694409680B6010
:102B2800089A002A03D1230301D1B14800E0B14833
:102B3800B14C6C442468002C01D100F051FFC21C38
:102B48000023D356002B00D00532AB4969440968ED
:102B58000A6000F045FF089A099B0A920B93101C23
:102B6800191C944B924AFEF7FFF8002814D0012351
:102B78009E4C6C44246823609F4868440068002881
:102B880002D19E4800F02CFF9D4B9B49694409687F
:102B98000B60581E00F024FF9A4B6B4400939A4B2D
:102BA8006B440193994B6B44029358460A9A0B9BCA
:102BB80001F096F9824663005D0D002D0BD00A984E
:102BC8000B99934B0B40191C924A1143924AAE1829
:102BD8000023179321E08C486844036889496944B5
:102BE8000A689B188D4A9D18202D0ADD2A1C203A58
:102BF800089BD3401A1C40235B1B9C40101C20439D
:102C080003E020235B1B08989840FDF7D1FD844C16
:102C18000919844AAE1801231793674A674BFDF7D1
:102C280089FC674A674BFDF739FE674A674BFDF732
:102C380083FC041C0D1C301CFDF7CAFD644A654B5F
:102C4800FDF72CFE021C0B1C201C291CFDF774FC34
:102C5800041C0D1CFEF7BAF81990201C291C554BB2
:102C6800534AFEF78BF800280BD01998FDF7B0FDF2
:102C7800221C2B1CFEF778F8002802D1199C013C75
:102C880019941998162802D90121139112E0664B5C
:102C9800199CE2009B180A980B991A685B68FEF762
:102CA8006DF8002801D1139004E0199901391991A0
:102CB80000221392544C6C442368013B9A1B03D4A2
:102CC800159200200F9003E052420F9200211591B7
:102CD800199A002A06DB159B9B1815931692002457
:102CE800109407E00F981999401A0F904A421092D1
:102CF800002316934D4C6C442468092C01D900F02C
:102D080079FE052C01DC012105E0484A6A44116876
:102D1800043911600021454B6B441B68052B03D80F
:102D28009B00434AD3589F46012040421890119077
:102D38000122149223E00023149304E00124149444
:102D480015E0012014903B4A6A441268002A06DC08
:102D5800012318931193374C6C4423600FE03548D6
:102D6800684400681890119009E000231493199C96
:102D78003048684400682418119401341894189A4B
:102D88000E2A00D915E2002900D112E2199B002B66
:102D980000DC7DE0244A0F23199C2340DB00D21875
:102DA800166857682411E00646D40221884650E088
:102DB8000000000000000000000000000000F83FD4
:102DC80061436F63A787D23FB3C8608B288AC63F29
:102DD800FB799F501344D33F1CDFFFFF14210000F1
:102DE800FFFFFF7F0000F07F0F2700001021000089
:102DF800A449000860490008182100009C490008FF
:102E08009D490008D8200000DC200000181D0000A3
:102E1800FFFF0F000000F03F01FCFFFF320400003D
:102E2800000010FECDFBFFFF9047000808210000BE
:102E3800744700080C2100000F231C40C64B1A6A77
:102E48005B6A0A980B99FDF753FE089009910322D3
:102E58009046002C13D0C04D0123994648460442A1
:102E680009D0012188442A686B68301C391CFDF799
:102E780015FD061C0F1C64100835002CEED10898AF
:102E88000999321C3B1CFDF733FE0890099128E094
:102E9800199A5442002C22D0B04A0F232340DB0059
:102EA800D218536812680A980B99FDF7F7FC089036
:102EB80009912411002C12D0A74D0223984601260F
:102EC800344205D0012290442A686B68FDF7E6FC7D
:102ED80064100835002CF3D10890099101E0022311
:102EE8009846139C002C20D0089C099D201C291C66
:102EF800904B8F4AFDF742FF002816D018980028FB
:102F080013DD1199002900DC4FE1199A013A129258
:102F1800201C291C884A894BFDF7C0FC08900991A0
:102F280001239844119CA14603E0189881461999F9
:102F38001291089E099F4046FDF74AFC321C3B1C33
:102F4800FDF7ACFC7E4A7F4BFDF7F6FA041C844A79
:102F58008D184B46002B19D1301C391C7A4A7B4BF3
:102F6800FDF7E8FA061C0F1C221C2B1CFDF724FF9A
:102F7800002800D0ABE3221C7A482B18301C391CDF
:102F8800FDF7FCFE002800D09AE30EE11499002911
:102F980000D186E0714A4B46013BDB00D2185368EA
:102FA80012686B486B49FDF7A3FD221C2B1CFDF72B
:102FB800C1FA1A901B91301C391CFDF707FF041C3D
:102FC800FDF706FC021C0B1C301C391CFDF7B2FA7D
:102FD800051C0E1C30341EAB1C701A981B992A1C39
:102FE800331CFDF7E9FE002805D0129A19926F46A6
:102FF800793700F0E1FC4F494D482A1C331CFDF796
:1030080099FA021C0B1C1A981B99FDF7D5FE00288B
:1030180004D0129B19936F46793755E14C46012C21
:1030280000DCC2E06F4679370120804611E0414953
:103038003F482A1C331CFDF77DFA1A9A1B9BFDF7A3
:103048009DFE002800D03DE101218844C14500DCF7
:10305800ABE01A981B99384A384BFDF71FFC1A90B9
:103068001B91281C311C344A344BFDF717FC051CF6
:103078000E1CFDF7ABFE041CFDF7AAFB021C0B1C83
:10308800281C311CFDF756FA051C0E1C30343C7008
:1030980001371A9A1B9BFDF771FE0028C7D000F074
:1030A80089FC2E4A4B46013BDB00D2181068516858
:1030B800221C2B1CFDF7F2FB0C900D91301C391CC7
:1030C800FDF784FE041CFDF783FB021C0B1C301C5F
:1030D800391CFDF72FFA051C0E1C30341EAB1C7072
:1030E8004A46012A40D16F4679370C980D99184AFB
:1030F800184BFDF721FA2A1C331CFDF73FFE002868
:1031080000D0DFE0124813490C9A0D9BFDF712FA24
:103118002A1C331CFDF750FE002846D07A1E0023D7
:10312800D356302B01D000F045FC171CF6E7C046FB
:10313800000000000000F03F0000000000002440F4
:103148000000000000001C400000000000001440C7
:10315800000000000000E03F6848000890470008B1
:103168000000C0FC00000080012398466F467937B4
:103178000124A044281C311CC04BBF4AFDF78EFB1C
:10318800051C0E1CFDF722FE041CFDF721FB021C8A
:103198000B1C281C311CFDF7CDF9051C0E1C303406
:1031A8003C700137C145E3D19FE70A980B99089015
:1031B8000991B74969440B68002B00DABDE0199AF8
:1031C8000E2A00DDB9E0B34BD2009B181868596885
:1031D8001C901D91B04969440968002902DA189ABF
:1031E800002A20DD089C099D201C291C1C9A1D9B77
:1031F800FDF77EFCFDF7EAFD8046FDF7E9FA1C9A2B
:103208001D9BFDF74BFB021C0B1C201C291CFDF70A
:1032180091F9041C0D1C424630321EAB1A70189BE3
:10322800012B12D124E0189C002C00DA48E21C98EB
:103238001D99934A934BFDF731FB089A099BFDF7BB
:10324800B1FD002800D03BE243E28C4B8A4AFDF7EF
:1032580025FB041C0D1C8C4A8C4BFDF785FD0028B2
:1032680002D06F467937A7E301266F46793744E0E5
:103278006F467937201C291C221C2B1CFDF75CF992
:10328800041C0D1C1C981D99221C2B1CFDF776FD97
:10329800002819D11C981D99221C2B1CFDF764FDD0
:1032A800002800D188E34046C0070DD484E391424A
:1032B80001D00F1C09E0199A0132199230221EAB75
:1032C8001A7007E0129B19931EAA791E0023CB5689
:1032D800392BECD00B7801330B706DE3201C291CC3
:1032E800664B654AFDF7DAFA041C0D1C664A674B03
:1032F800FDF73AFD002800D05EE30136201C291CAA
:103308001C9A1D9BFDF7F4FBFDF760FD8046FDF759
:103318005FFA1C9A1D9BFDF7C1FA021C0B1C201CAE
:10332800291CFDF707F9041C0D1C434630333B707C
:1033380001371898B042D1D19CE71499002903D1DC
:103348000F9D109C00263AE0544A6A441268012AEC
:103358000FDC179C002C04D051481B180F9D109CA3
:1033680020E0504969440A6836239B1A0F9D109C37
:1033780018E0189A013A109B934201DB9C1A07E067
:10338800109C131B1698C0181690E418109400246B
:103398001899002902DB0B1C0F9D03E00F9A189B5C
:1033A800D51A00230F98C0180F901599C9181591B0
:1033B800584601213C4A6A4400F0E6FB061C002DF1
:1033C8000DDD159A002A0ADD131CAA4200DD2B1C0C
:1033D8000F98C01A0F90ED1A1599C91A1591109ADD
:1033E800002A71DD149B002B37D0002C1CDD2E4BDE
:1033F8006B449E4209D15846191C221C8B23DB00C2
:103408006B4400F02BFE061C07E05846311C221CBA
:10341800254B6B4400F022FE061C5846311C5246D0
:10342800224B6B4400F0BAFB1098A0424CD0204BC2
:103438006B449A4508D15846191C109A1D4B6B4489
:1034480000F00CFE82463FE058465146109A184B51
:103458006B4400F003FE824636E0154B6B449A45F8
:103468002AD15846191C109A124B6B4400F0F6FDED
:10347800824629E0C046C046000000000000244003
:1034880000000000000014400000000000000000E0
:10349800D8200000904700080C21000008210000F7
:1034A80033040000DC20000058130000181A000044
:1034B800181D0000D80B000058465146109AC34BFF
:1034C8006B4400F0CBFD824658460121C04A6A444D
:1034D80000F05AFB81461699002914DDBC4B6B4459
:1034E800994508D15846191C169ABA4B6B4400F0F6
:1034F800B5FD814607E058464946169AB44B6B44D9
:1035080000F0ACFD8146B44A6A441268012A10DC16
:10351800089B002B0DD1099A14030AD1AF4B1A420C
:1035280007D00F9801300F9015990131159101249A
:1035380000E00024169A002A01D1012209E0484639
:10354800036903339B004B44586800F0BFFA2023FB
:103558001A1A159952181F231A400DD020239A1AA7
:10356800042A07DD131F0F9AD2180F92ED18C918F5
:1035780015910AE0032A08DC131C1C330F98C018A5
:103588000F90ED181599C91815910F9A002A13DD97
:103598008E4B6B449A4507D15846191C904B6B4487
:1035A80000F0ACFB824607E0584651460F9A874B1D
:1035B8006B4400F0A3FB8246159B002B14DD844B63
:1035C8006B44994508D15846191C159A814B6B4490
:1035D80000F094FB814607E058464946159A7C4B13
:1035E8006B4400F08BFB81461398002847D0504667
:1035F800494600F0D5FB002841DA1999013919919B
:10360800724B6B449A450BD1754B6B4400935846EB
:103618006E4969440A22002300F0CCFC824609E086
:103628006A4B6B440093584651460A22002300F027
:10363800C1FC8246149A002A02D1119B18931EE0FD
:10364800684B6B449E420ED18B23DB006B44009386
:103658005846644969440A22002300F0ABFC061C62
:10366800119818900BE05F4B6B4400935846311C3F
:103678000A22002300F09EFC061C11991891189A42
:10368800002A2FDC544B6B441B68022B2ADD504B5D
:103698006B44994502D04E4B6B4401E04D4B6B4453
:1036A800189C002C0CDB0093584649460522002341
:1036B80000F080FC011C504600F072FB002808DC7A
:1036C800494868440068C04319901EAF74E11299D4
:1036D800199131221EAB1A70199A013219926F464C
:1036E800793769E1149B002B00D104E1002D15DD29
:1036F8003C4B6B449E4209D15846191C2A1C8B230B
:10370800DB006B4400F0FAFA061C07E05846311C4F
:103718002A1C344B6B4400F0F1FA061C002C01D132
:10372800351C1BE072682F4C6C4462600123934087
:10373800A36000232361E360326902329200311CE6
:103748000C312A486844FCF7C9FD5846211C01225F
:103758008B23DB006B4400F0D1FA051C0123089C85
:103768001C400E94B0461EAF7B420793174868442E
:10377800059050464946FFF7EFF8061C303650468C
:10378800414600F00DFB041C584649462A1C184BBC
:103798006B4400F027FB011CC368002B01D00120FB
:1037A80002E0504600F0FCFA0B4A6A4411680143F3
:1037B80020D10E9B002B1DD13A1C392E4CD0002C49
:1037C80000DD01361670571CF6E0C046181D0000D3
:1037D800980F000018080000082100000000F07F82
:1037E800D80B0000581300000C21000064130000DF
:1037F80018170000002C07DB864A6A441168214329
:1038080026D10E9B002B23D100281EDD824B6B4452
:103818009A4507D15846191C0122804B6B4400F089
:103828006DFA06E05846514601227B4B6B4400F086
:1038380065FA494600F0B4FA002803DC002804D1F0
:10384800F40702D5392E07D001363E700137B3E0B0
:10385800002809DD392E03D139233B7001379AE05E
:10386800731C3B700137A7E03E70013707983B187F
:1038780018998B4267D0059A92450BD1674B6B44D8
:1038880000935846644969440A22002300F092FBD9
:10389800824609E0604C6C440094584651460A221E
:1038A800002300F087FB8246A8450DD18B23DB005F
:1038B8006B44009358465A4969440A22002300F091
:1038C80079FB051C804654E7554C6C4426AB0093A5
:1038D8005846211C0A22002300F06CFB80468B23EB
:1038E800DB006B4400935846211C0A22002300F099
:1038F80061FB051C3DE701241EAF474D6D44474859
:103908006844804650464946FFF726F8061C30367C
:103918003E70013718998C4215DAAA4509D14246FA
:1039280000925846291C0A22002300F043FB8246D5
:1039380007E00095584651460A22002300F03AFB5A
:1039480082460134DEE7344B6B449A4507D158462A
:10395800191C0122314B6B4400F0D0F906E058469F
:10396800514601222C4B6B4400F0C8F9494600F03F
:1039780017FA00280FDC002816D1F3070BD413E040
:103988008A4201D0171C07E0199C0134199431228E
:103998001EAB1A7010E01EA97A1E1378392BEFD0CF
:1039A8000133137008E0171C7A1E0023D356302BFE
:1039B800F9D001E01298199000233B70199B01334C
:1039C8001849694409680B60174A6A441268002A52
:1039D80001D11EA804E0144B6B441B681F601EA88D
:1039E800124B9D443CBC90469946A246AB46F0BC5F
:1039F80002BC084700240748684404600121494282
:103A080018911191012214920023094C6C442360EF
:103A1800FFF7CFFB08210000181D0000D80B00009D
:103A2800581300001021000018210000E4200000B5
:103A38000C210000C046C046F0B54F464646C0B40B
:103A480085B08C4690461C1C0C9F002929D0136811
:103A5800002C1ED01D1C27E03A687B68864210D3D4
:103A6800012C0ED96246002A26D12B68002B0BD1D7
:103A78006346002B02D000234246136000233B60BC
:103A880008E03A607B6005E00130A04202D20435CC
:103A9800E2E7002005B00CBC90469946F0BC02BC99
:103AA80008471568012464426B4606331B7899461B
:103AB80061460020661ECFE74A460A700131424639
:103AC800136804331360D0E70120704700B5104B2A
:103AD800184201D0002201E0000410220D4B1842C8
:103AE80001D1083200020C4B184201D10432000106
:103AF8000A4B184201D102328000002804DB43003F
:103B080001D4202200E00132101C02BC0847C04644
:103B18000000FFFF000000FF000000F0000000C0F0
:103B280000B5011C026853070DD0D30701D500204A
:103B380026E0930703D553080360012020E093088B
:103B4800036002201CE00F4B1A4201D0002001E064
:103B5800120C1020FF231A4201D10830120A130751
:103B680001D104301209930701D102309208D3071A
:103B780005D45208002A01D1202001E001300A6052
:103B880002BC0847FFFF0000012050600223936039
:103B98000023D36051611061101C7047F0B55F4677
:103BA80056464D464446F0B485B0141C01930A6944
:103BB80023699A4202DAA4460C1C61464A680D69D8
:103BC800266973199B468B689B4500DD0132019F6E
:103BD8007A6001239340BB6000233B61FB60381C83
:103BE80014305B4604339B00FB180433029398425D
:103BF80005D2031C002204C3029F9F42FBD80A1C63
:103C080014322B1D9B00CB1804339A4614231B191E
:103C18009846331D9B00E3180433039398454BD211
:103C28008146354DAC46009247463B6867461F4083
:103C38001AD0009E4C46002504CE206863461340E7
:103C4800391C594363460340C9184919120C3B1CD7
:103C58005343000C1B180A0C9B181D0C6380218011
:103C68000434B245E8D8256042465688002E1CD058
:103C78004B461968009C48460025236867463B4028
:103C8800321C5A434388D2185219428001800430AA
:103C980008CC1B0C311C594303683B40C918120C53
:103CA80089180D0CA245E8D8016004229044039BB2
:103CB800434501D99144B7E75D46002D0EDD029AD0
:103CC800043A1368002B09D101277F42BB445B46A5
:103CD800002B03DD043A1368002BF5D05D46019FE5
:103CE8003D61019805B03CBC90469946A246AB465A
:103CF800F0BC02BC0847C046FFFF0000F0B54746CD
:103D080080B40D1C171C1E1C50114A680B69013326
:103D18001C188B689C4203DD01325B009C42FBDC73
:103D2800726001239340B36000233361F360311C58
:103D38001431002808DD002204C101339842FBDC5D
:103D4800031D9B00F318191D2A1C14322B69043318
:103D58009B00EB181D1D1F231F40B84614D02023BD
:103D68004046181A8446002013684746BB40034360
:103D780008C108CA181C6746F8409542F4D808607C
:103D8800002805D0013403E008CA08C19542FBD8D1
:103D9800631E3361301C04BC9046F0BC02BC08476B
:103DA80030B503690A699C1A002C16D1051C143514
:103DB800131D9B00C218101DCB18191D043802686A
:103DC80004390B689A4206D0934201D8012404E0D2
:103DD8000124644201E08542F0D3201C30BC02BCBF
:103DE8000847C046F8B55F4656464D464446F0B4C7
:103DF8000C1C151C9846081C111CFFF7D1FF002845
:103E080008D1002341464B6001228A60CB600A61D9
:103E18004B6159E0002801DB002103E0AC46251C7A
:103E280064460121636842465360626801239340F7
:103E38004246936000231361D16023699C46261C87
:103E4800143604339B00E31804339B462F1C1437A5
:103E58002B6904339B00EB1804339A464446143408
:103E680000251E49894608CE02CF484618404A46D2
:103E78000A40801A40191B0C090C5B1A02149B1883
:103E88001D14638020800434BA45ECD8B3450DD99D
:103E9800124808CE191C014069180A141B0CD218C4
:103EA8001514628021800434B345F2D8221F1368A8
:103EB800002B06D101235B429C44043A1368002B73
:103EC800F8D061464246116140463CBC904699464E
:103ED800A246AB46F8BC02BC0847C046FFFF00003C
:103EE80070B582B0089D101C191C01236B60022359
:103EF800AB6000232B61EB600A1C2A4B0C1C1C4096
:103F08000094294B1A40160D002E03D080235B0322
:103F180023430093031E1CD0019301A8FFF700FE62
:103F280000280BD020231B1A00990A1C9A40131C46
:103F3800019A13436B61C140009101E0019B6B61E1
:103F4800009BAB61002B01D1012400E002242C610D
:103F580008E06846FFF7E4FD009B6B6101232B61D5
:103F680020300124002E09D0104973181B18069A16
:103F7800136035231B1A07990B600DE00C4A831850
:103F880006990B60631E9B00EB185869FFF79EFDAE
:103F980063011B1A079A1360281C02B070BC02BC8C
:103FA8000847C046FFFF0F00FFFFFF7FCDFBFFFF65
:103FB800CEFBFFFFF8B54F464646C0B48C46161CEC
:103FC800181C0A699046654614350024224F2A6851
:103FD800131C3B40191C714341180B0C120C724303
:103FE8009B18180C81461B0439405B1808C501341E
:103FF800A045ECDC002827D062469368984519DB79
:1040080053680133089A536063465A6801320123A2
:104018009340089A936000231361D360101C0C30FE
:1040280063461A690232920061460C31FCF756F970
:10403800089A9446434604339B0063444A465A60B0
:10404800434601336246136160460CBC904699466C
:10405800F8BC02BC0847C046FFFF0000F0B55F4649
:1040680056464D464446F0B4464CA54480460E1C80
:104078009B460323111C19401CD09410002C0CD112
:10408800414B4A1E92009B189A6C5B460093311C68
:104098000023FFF78FFF061C68E03B4A4B1E9B007E
:1040A800D218926C04AB0093311C0023FFF782FFF7
:1040B800061C02E09410002C58D00025C4231B01D4
:1040C8006B449D420AD0404630491A1CFFF75CFDFC
:1040D800051C0023036001E01D1C0CE004AFF42361
:1040E8009B006B449A46C4231B016B449946F223F8
:1040F800DB006B440393E3071CD56410002C07D145
:104108004046311C2A1C5B46FFF748FD061C2DE083
:10411800BE4207D14046391C2A1C5346FFF73EFDD4
:10412800061C0AE04046311C2A1C3B1CFFF736FDE2
:10413800061C02E06410002C18D02B68002BCBD191
:104148004D4508D1404649464A46039BFFF726FDA0
:104158004B46186006E04046291C2A1C4B46FFF7D0
:104168001DFD286000230360051CC4E7301C084BB4
:104178009D443CBC90469946A246AB46F0BC02BC66
:104188000847C0460CEFFFFF104800087102000006
:10419800F41000000368002223F00103036040F2DA
:1041A8006C03C4F2020382B098420260019042603C
:1041B8008260C26000F0AA801DD940F21C43C4F29C
:1041C8000203984200F0908031D840F28003C4F294
:1041D800020398427FD040F20843C4F20203984297
:1041E80007D140F20042C4F20202536843F00F03C1
:1041F800536002B0704740F23003C4F202039842A1
:104208007BD02FD940F24403C4F20203984247D02E
:1042180040F25803C4F202039842EAD140F2000285
:10422800C4F20202536843F470235360E1E740F29A
:104238004443C4F20203984244D040F25843C4F2C3
:104248000203984235D040F23043C4F20203984248
:10425800CFD140F20042C4F20202536843F47063C3
:104268005360C6E740F20803C4F2020398420ED036
:1042780040F21C03C4F202039842BAD140F2000291
:10428800C4F20202536843F0F0035360B1E740F20E
:104298000002C4F20202536843F00F035360A8E718
:1042A80040F20002C4F20202536843F470435360C0
:1042B8009FE740F20042C4F20202536843F47023BD
:1042C800536096E740F20042C4F20202536843F496
:1042D800704353608DE740F20002C4F20202536853
:1042E80043F07063536084E740F20042C4F2020274
:1042F800536843F0F00353607BE740F20002C4F2D6
:104308000202536843F47063536072E740F200029C
:10431800C4F20202536843F47003536069E7C0466D
:1043280030B448F20F020568CFF6FF720B6A1540E9
:104338008A680C6913434A6923438C691343CA6921
:1043480023434C6A13438A6A234313432B43036072
:10435800CA6842600B6883604A68C26030BC7047B4
:1043680021B9036823F0010303607047036843F031
:1043780001030360F9E7C04622B90268CB43134042
:1043880003607047036841EA03030360F9E7C04626
:1043980010F0805F15BF40F2004340F20003C4F202
:1043A8000203C4F2020314BF1B681B6803420CBF5C
:1043B800002001207047C04610F0805F15BF40F212
:1043C800004340F20003C4F20203C4F2020314BF24
:1043D800586058607047C04642F20002C4F20202B8
:1043E800136803F0380313601168084310607047BE
:1043F80042F20002C4F20202136823F010031360B1
:1044080011680843106070472DE9F003CD7806461F
:1044180015F0100F18BF8B78088805F00F0718BF24
:104428001F4310F0FF0F29D034684FF0000C4FF0F5
:1044380001084FF00F0904E00CF1010CBCF1080F62
:104448001BD008FA0CF303EA00019942F4D14FEAB1
:104458008C0209FA02F317FA02F2DB432340282DF3
:1044680043EA020408BF7161E6D0482D0CF1010C43
:1044780008BF3161BCF1080FE3D13460FF282BD9A4
:1044880074684FF0000C4FF001084FF00F0904E07A
:104498000CF1010CBCF1080F1DD00CF1080308FA4F
:1044A80003F303EA00019942F2D14FEA8C0209FAB8
:1044B80002F317FA02F2DB432340282D43EA0204F1
:1044C80008BF7161E4D0482D0CF1010C08BF3161BF
:1044D800BCF1080FE1D17460BDE8F0037047C04635
:1044E800C36819420CBF0020012070470AB9416116
:1044F80070470161FCE7C04640F20003C0F2FA537E
:104508004EF600521843CEF20002D0607047C04603
:10451800C3782DE9700104467BB90278012150095E
:1045280002F01F0291404EF20013CEF20003203039
:1045380043F82010BDE8700170474EF60053CEF2E4
:104548000003DA684078D24302F4E062120A0F23CB
:10455800C2F10401D3408840A17826780B40034378
:1045680006F00300C000FF2181401B018340B4080E
:104578004EF20015CEF20005C03455F82480CA4327
:1045880002EA08020B40134345F82430720901235C
:1045980006F01F06B34045F82230CBE74FF680738C
:1045A800C1F6FF7319404EF600530143CEF20003E3
:1045B8009960704742F6004300F07F00C4F20003A0
:1045C8001860704742F60043C4F2000300229A6064
:1045D8007047C04600000000010203040102030402
:1045E8000607080902040608881C00085424000865
:1045F80054240008A21C000854240008542400086D
:1046080054240008542400085424000854240008A2
:10461800AE1C0008CA1C000854240008841C0008AA
:10462800D61C0008542400082C1D0008381D00085A
:10463800381D0008381D0008381D0008381D0008FE
:10464800381D0008381D0008381D0008381D0008EE
:104658005424000854240008542400085424000852
:104668005424000854240008542400085424000842
:10467800542400089C1D0008F01D0008401E000876
:1046880054240008401E000854240008542400083C
:1046980054240008542400085C1D00085424000811
:1046A800542400086E2100085424000854240008EB
:1046B80054240008F421000854240008E4220008C7
:1046C80054240008542400087E1C000854240008C0
:1046D80054240008542400085424000854240008D2
:1046E80054240008542400085424000854240008C2
:1046F800542400089C1D0008F81D0008401E0008EE
:10470800401E0008401E0008661D0008F81D00082D
:104718005424000854240008701D0008542400087C
:104728003421000876210008AC210008921D0008F9
:1047380054240008F421000854240008EC2200083E
:104748005424000854240008222300082020202094
:104758002020202020202020202020203030303011
:10476800303030303030303030303030043A0008BB
:10477800043A00083E2D0008722D00084A2D000852
:10478800442D000800000000000000000000F03F79
:104798000000000000002440000000000000594014
:1047A8000000000000408F40000000000088C34067
:1047B80000000000006AF8400000000080842E41DC
:1047C80000000000D01263410000000084D7974128
:1047D8000000000065CDCD41000000205FA002422E
:1047E800000000E876483742000000A2941A6D42A3
:1047F800000040E59C30A2420000901EC4BCD64296
:1048080000003426F56B0C430080E03779C3414340
:1048180000A0D8855734764300C84E676DC1AB43B6
:10482800003D9160E458E143408CB5781DAF1544D4
:1048380050EFE2D6E41A4B4492D54D06CFF08044AF
:10484800F64AE1C7022DB544B49DD9794378EA44C4
:1048580005000000190000007D00000000000000B5
:104868000080E03779C34143176E05B5B5B8934664
:10487800F5F93FE9034F384D321D30F94877825A30
:104888003CBF737FDD4F1575BC89D897B2D29C3C6D
:1048980033A7A8D523F649393DA7F444FD0FA5321F
:1048A8009D978CCF08BA5B25436FAC642806C80A6D
:1048B80042797465732072656365697665642066FC
:1048C800726F6D205553423249324300256420628D
:1048D80079746573207472616E736D69747465643C
:1048E80020696E20636F6D6D616E64206D6F646505
:1048F800203A2025640A00256420627974657320B3
:10490800726563656976656420696E20636F6D6D95
:10491800616E64206D6F6465203A2025640A005337
:10492800656E64696E6720746F2055534232493250
:104938004320696E2070726F6772657373000000A0
:1049480030313233343536373839414243444546BD
:1049580000000000496E66004E614E00303132336F
:1049680034353637383961626364656600000000A3
:10497800286E756C6C29000062756720696E207658
:10498800667072696E74663A20626164206261734F
:1049980065000000300000002E000000496E6669C6
:0C49A8006E6974790000000043000000FC
:1049B40004000020000000000000000000000000CF
:1049C40000000000000000000000000000000000E3
:1049D40000000000B04900080000000000000000D2
:1049E40000000000000000000000000000000000C3
:1049F40000000000000000000000000000000000B3
:104A040000000000000000000000000000000000A2
:104A14000000000000000000000000000000000092
:104A24000000000000000000000000000000000082
:104A34000000000000000000000000000000000072
:104A44000000000000000000000000000000000062
:104A54000000000000000000000000000000000052
:104A64000000000000000000000000000000000042
:104A74000000000000000000000000000000000032
:104A84000000000000000000000000000000000022
:104A94000000000000000000000000000000000012
:044AA400000000000E
:04000005080001E806
:00000001FF
