:020000040800F2
:1000000000000120B12D0008F1230008F5230008AD
:10001000112400081524000819240008000000001D
:10002000000000000000000000000000D9360008B9
:100030001D2400080000000049370008C5370008EB
:10004000A12D0008692D0008212400080D2D0008AD
:1000500025240008292400082D2400083124000844
:1000600035240008392400083D24000841240008F4
:1000700045240008492400084D24000851240008A4
:100080005524000859240008D52400085D240008E0
:10009000612400086524000869240008552600082A
:1000A0006D240008F12C0008712400087524000854
:1000B000092C0008292B0008452A0008952900086A
:1000C000A52700080528000845270008792400080E
:1000D0007D24000881240008852400088924000864
:1000E000CD2500088D2400089124000895240008DF
:1000F000992400089D240008A1240008E924000890
:10010000A5240008A9240008AD240008B124000893
:10011000B5240008B9240008BD240008C124000843
:10012000C5240008C9240008CD240008D1240008F3
:100130002DE9F04F546812682DE9180031F9025B7F
:1001400031F9026B31F9027B31F902EB4FF0000813
:100150004FF000094FF0000A4FF0000B32F9023B5C
:1001600032F902CB043C05FB038831F9025B06FB44
:10017000039907FB03AA0EFB03BB32F9023B06FB04
:100180000C8831F9026B07FB0C990EFB0CAA05FBDE
:100190000CBB32F902CB07FB038831F9027B0EFB63
:1001A000039905FB03AA06FB03BB0EFB0C8831F980
:1001B00002EB05FB0C9906FB0CAA07FB0CBBCDDC84
:1001C00018BCA0E8000FA2EB4402A1EB4401043BE1
:1001D000B2DCBDE8F08F2DE9F04F0144A1F104013C
:1001E00001F1020251F8023942F802399042F9D184
:1001F000BDE8F08F70B414460F2C06460D4604D9A6
:1002000045EA060313F0030F0DD04AB14FF0000C7E
:1002100011F80C3000F80C300CF1010C9445F7D1BA
:10022000304670BC7047A4460B68ACF1100C0360FC
:100230004A6842608B688360CA681031C2601030BF
:10024000BCF10F0FF0D8A4F1100303F00F0223F05C
:100250000F031033EC18F118032A13D94FF0000CD8
:1002600054F80C3041F80C300CF1040CCCEB0203C8
:10027000032BF5D8131F03F0030223F00303043309
:10028000E418C91808462146BFE7C046032A844639
:1002900030B40446CDB231D910F0030F2FD145EA66
:1002A00005230F2A88BF944643EA034188BF2346AB
:1002B00012D9ACF1100C196059609960D9601033F3
:1002C000BCF10F0FF5D8103A22F00F0302F00F0225
:1002D0001033E018032A10D94FF0000C40F80C102E
:1002E0000CF1040CCCEB0203032BF7D8131F03F023
:1002F000030223F003030433C018844632B1E9B289
:1003000000230CF8031001339A42FAD1204630BC86
:100310007047C04630B4154641EA0002844612F0E8
:10032000030F14BF00230123032D94BF002303F008
:100330000103002B2DD0044608460168CB43A1F1F0
:100340000132134013F0803F05D1043D0430032DEA
:1003500044F8041BF1D822460446BDB12378114667
:10036000681E01F8013B53B1023278B114F8013F25
:100370001146013802F8013C0132002BF5D128B1B9
:1003800000231A46CA5401339842FBD1604630BC60
:10039000704702460C46E0E74FF6FF7321F000423B
:1003A000C7F6EF739A422DE9F04104460D460F4619
:1003B00018DD00294DDB40F2000122462B460020CB
:1003C000C3F6F07100F0DEFD40F200030022C3F638
:1003D000F07300F0FBFA044608460346204619462F
:1003E000BDE8F0814FF6FF73C4F235039A4209DD90
:1003F00040F200000024C3F6F070002FB8BF00F1F7
:100400000040EAE7B2F1725F36DB4FF6FF73C3F6E6
:10041000EF739A423EDD00F0CBFA02460B4600F045
:10042000D5FA00F055F800224FF0804300F0CEFAE4
:1004300002460B4600204FF0404100F0A3FD40F281
:1004400000030022C3F6F07300F0C0FA0446084629
:10045000D3E740F2000122462B460020C3F6F0719C
:1004600000F090FD40F200030022C3F6F07300F0AC
:10047000ABFA04460846B0E740F200030022C3F698
:10048000F07300F0A3FA22462B4600F051FC04461C
:100490000846A2E700F08CFA00224FF0404300F03B
:1004A00047FC00F015F800224FF0804301F10048AE
:1004B000064600F08BFA454602460B46304641465A
:1004C00000F060FD0446084697E7C04600000000C3
:1004D00046F679032DE9F04FC4F2430321F00044BE
:1004E00085B09C4282468B4601F0004620D942F6F8
:1004F0004163C4F286039C4240F2EB804FF6FF73E7
:10050000C7F6EF739C4240F2518121F07F430446CD
:1005100023F470030D46034340F00D82002E00F0DB
:10052000388140F2000B4FF0000ACBF6F07B30E14F
:1005300042F64263C3F6D6739C4200F248814FF6FE
:10054000FF73C3F68F439C4240F2A88100220392BE
:1005500040F200030022C3F6E0735046594600F013
:10056000E7FB04460D4622462B465046594600F00E
:10057000DFFBA1A3D3E9002306460F4600F0D8FB1A
:100580009FA3D3E9002300F021FA32463B4600F056
:10059000CFFB9DA3D3E9002300F016FA32463B4679
:1005A00000F0C6FB9AA3D3E9002300F00FFA32460D
:1005B0003B4600F0BDFB98A3D3E9002300F004FA0A
:1005C00032463B4600F0B4FB40F200030022C3F683
:1005D000F07300F0FBF922462B468046894600F076
:1005E000A7FB0B4640F200010246C4F208010020BE
:1005F00000F0EAF904460D464046494622462B469D
:1006000000F0E2F922462B4680468946504659467C
:1006100000F08EFB0B4640F200010246C4F21801C6
:10062000002000F0D1F902460B464046494600F052
:10063000A9FC32463B4600F07BFB024603980B4682
:10064000002800F096801046DDE9002300F0BCF998
:1006500052465B4600F06CFBDDE9002300F0B4F984
:1006600032463B4600F0B0F90F4603990646B1F119
:10067000FF3F00F02981039A012A00F0ED800398E2
:10068000431C392B00F237810399132940F35A8117
:10069000039A0020C2F57E730246073330461905DF
:1006A0000B46394600F092F902460B465046594631
:1006B00000F08AF940F200030022C3F6F07300F064
:1006C00085F9044603980D46A24601054B199B4641
:1006D0005FE0002E64D052A3D3E900235046594670
:1006E00000F074F90022002300F092FD00287FF44E
:1006F00018AF40F200070026CBF6E0774AA3D3E913
:1007000000235046594600F013FB32463B4600F0AA
:100710005DF900F0A5FD039000F0A4FA44A3D3E92D
:10072000002304460D4600F003FB52465B4600F0F2
:100730004DF941A3D3E90023804689462046294646
:1007400000F0F6FA06460F4632463B46404649461A
:1007500000F03AF982468B4652465B46404649468F
:1007600000F032F932463B4600F02EF9CDE90001A7
:10077000EEE65046594600F0DBFA32463B4600F0C2
:1007800023F902460B465046594600F01DF98246B1
:100790008B465046594605B0BDE8F08F002EA8D1D3
:1007A00040F200070026C3F6E077A7E724A3D3E9C9
:1007B000002300F04BFD00288BD023A1D1E90001DC
:1007C00002460B4600F0B4FA82468B46E1E74AF255
:1007D000B123C3F6F0739C42E0D8002E66D11CA36F
:1007E000D3E9002300F0F0F813A7D7E900678046AB
:1007F000894601200390A7E72DC3096EB7FD8ABE85
:100800003952E686CACFD03EB7DBAA9E19CE143F36
:100810008555FE19A0015A3FF41011111111A13F85
:1008200059F3F8C21F6EA501FE822B654715F73FED
:100830000000E0FE422EE6BF763C7935EF39EA3D16
:10084000EF39FAFE422E86409C7500883CE4377EE4
:100850000000E0FE422EE63F40F2000350465946BB
:100860000022CBF6D07300F0D3FC00287FD040F2FA
:100870000003504659460022C3F6E07300F0A6F884
:1008800002460B463046394600F09EF800224FF0F3
:10089000404300F04DFA82468B467AE73EA3D3E907
:1008A000002300F093F802460B4668E73CA3D3E927
:1008B000002300F08BF83CA7D7E900678946804603
:1008C0004FF0FF3103913FE75046594632463B46D1
:1008D00000F07AF840F200030022C3F6E07300F063
:1008E00027FA40F200030022C3F6E07300F06CF830
:1008F00082468B464DE752465B463046394600F00D
:1009000063F80B4640F200010246C3F6F071002086
:1009100000F05AF80022044603980D4601052046CF
:100920004B19194640F20003C3F6F07300F04CF87F
:1009300082468B462DE702460B4600F047F882467A
:100940008B4626E74FF400135246304600240B41F5
:100950003946C3F17E555B4600F036F805F5E005F3
:1009600002460B462046294600F02EF8A9E65046DE
:10097000594632463B4600F027F802460B4600F047
:1009800025F840F200030022C3F6F07300F01EF8D1
:1009900082468B46FDE6C0469C7500883CE4377E67
:1009A0000000E0FE422EE63F763C7935EF39EABDA5
:1009B00021F0004330B40D460446194630BC704760
:1009C00081F0004102E0C04683F0004330B54FEAB9
:1009D00041044FEA430594EA050F08BF90EA020F6D
:1009E0001FBF54EA000C55EA020C7FEA645C7FEA00
:1009F000655C00F0E2804FEA5454D4EB5555B8BF23
:100A00006D420CDD2C4480EA020281EA030382EA93
:100A1000000083EA010180EA020281EA0303362D25
:100A200088BF30BD11F0004F4FEA01314FF4801CF8
:100A30004CEA113102D0404261EB410113F0004F0A
:100A40004FEA03334CEA133302D0524263EB4303C1
:100A500094EA050F00F0A780A4F10104D5F1200E5F
:100A60000DDB02FA0EFC22FA05F2801841F10001BA
:100A700003FA0EF2801843FA05F359410EE0A5F18E
:100A800020050EF1200E012A03FA0EFC28BF4CF0BF
:100A9000020C43FA05F3C01851EBE37101F0004575
:100AA00007D54FF0000EDCF1000C7EEB00006EEB82
:100AB0000101B1F5801F1BD3B1F5001F0CD349080C
:100AC0005FEA30004FEA3C0C04F101044FEA445263
:100AD00012F5800F80F09A80BCF1004F08BF5FEAEA
:100AE000500C50F1000041EB045141EA050130BDCA
:100AF0005FEA4C0C404141EB010111F4801FA4F16D
:100B00000104E9D191F0000F04BF01460020B1FAC1
:100B100081F308BF2033A3F10B03B3F120020CDAF9
:100B20000C3208DD02F1140CC2F10C0201FA0CF0D7
:100B300021FA02F10CE002F11402D8BFC2F1200C3C
:100B400001FA02F120FA0CFCDCBF41EA0C019040F2
:100B5000E41AA2BF01EB0451294330BD6FEA04043B
:100B60001F3C1CDA0C340EDC04F11404C4F1200226
:100B700020FA04F001FA02F340EA030021FA04F338
:100B800045EA030130BDC4F10C04C4F1200220FA8F
:100B900002F001FA04F340EA0300294630BD21FACD
:100BA00004F0294630BD94F0000F83F4801306BF93
:100BB00081F480110134013D4EE77FEA645C18BF87
:100BC0007FEA655C29D094EA050F08BF90EA020F1E
:100BD00005D054EA000C04BF1946104630BD91EA16
:100BE000030F1EBF0021002030BD5FEA545C05D119
:100BF0004000494128BF41F0004130BD14F5800458
:100C00003CBF01F5801130BD01F0004545F0FE41CB
:100C100041F470014FF0000030BD7FEA645C1ABF00
:100C2000194610467FEA655C1CBF0B46024650EA37
:100C3000013406BF52EA033591EA030F41F4002163
:100C400030BDC04690F0000F04BF0021704730B5A2
:100C50004FF4806404F132044FF000054FF00001BE
:100C600050E7C04690F0000F04BF0021704730B538
:100C70004FF4806404F1320410F0004548BF404254
:100C80004FF000013EE7C04642004FEAE2014FEA62
:100C900031014FEA02701FBF12F07F4393F07F4F84
:100CA00081F06051704792F0000F14BF93F07F4FB6
:100CB000704730B54FF4607401F0004521F00041F9
:100CC00020E7C04650EA010208BF704730B54FF038
:100CD00000050AE050EA010208BF704730B511F084
:100CE000004502D5404261EB41014FF4806404F1BC
:100CF00032045FEA915C3FF4DCAE4FF003025FEA3E
:100D0000DC0C18BF03325FEADC0C18BF033202EBC5
:100D1000DC02C2F1200300FA03FC20FA02F001FA1F
:100D200003FE40EA0E0021FA02F11444C1E6C04677
:100D300070B54FF0FF0C4CF4E06C1CEA11541DBF71
:100D40001CEA135594EA0C0F95EA0C0F00F0DEF83C
:100D50002C4481EA030621EA4C5123EA4C5350EA21
:100D6000013518BF52EA033541F4801143F4801372
:100D700038D0A0FB02CE4FF00005E1FB02E506F003
:100D80000042E0FB03E54FF00006E1FB03569CF058
:100D9000000F18BF4EF0010EA4F1FF04B6F5007F5E
:100DA00064F5407404D25FEA4E0E6D4146EB0606D0
:100DB00042EAC62141EA55514FEAC52040EA5E5059
:100DC0004FEACE2EB4F1FD0C88BFBCF5E06F1ED803
:100DD000BEF1004F08BF5FEA500E50F1000041EB3A
:100DE000045170BD06F0004646EA010140EA0200E7
:100DF00081EA0301B4EB5C04C2BFD4EB0C0541EA09
:100E0000045170BD41F480114FF0000E013C00F31D
:100E1000AB8014F1360FDEBF002001F0004170BD41
:100E2000C4F10004203C35DA0C341BDC04F114045A
:100E3000C4F1200500FA05F320FA04F001FA05F2E6
:100E400040EA020001F0004221F0004110EBD370B3
:100E500021FA04F642EB06015EEA430E08BF20EADF
:100E6000D37070BDC4F10C04C4F1200500FA04F382
:100E700020FA05F001FA04F240EA020001F0004114
:100E800010EBD37041F100015EEA430E08BF20EA87
:100E9000D37070BDC4F1200500FA05F24EEA020ECF
:100EA00020FA04F301FA05F243EA020321FA04F0FE
:100EB00001F0004121FA04F220EA020000EBD370B5
:100EC0005EEA430E08BF20EAD37070BD94F0000FB5
:100ED0000FD101F00046400041EB010111F4801FE9
:100EE00008BF013CF7D041EA060195F0000F18BF9A
:100EF000704703F00046520043EB030313F4801FD6
:100F000008BF013DF7D043EA0603704794EA0C0F8F
:100F10000CEA135518BF95EA0C0F0CD050EA4106A5
:100F200018BF52EA4306D1D181EA030101F0004122
:100F30004FF0000070BD50EA410606BF104619464A
:100F400052EA430619D094EA0C0F02D150EA013656
:100F500013D195EA0C0F05D152EA03361CBF104697
:100F600019460AD181EA030101F0004141F0FE4136
:100F700041F470014FF0000070BD41F0FE4141F4BA
:100F8000780170BD70B54FF0FF0C4CF4E06C1CEABA
:100F900011541DBF1CEA135594EA0C0F95EA0C0F6F
:100FA00000F0A7F8A4EB050481EA030E52EA03352A
:100FB0004FEA013100F088804FEA03334FF080554B
:100FC00045EA131343EA12634FEA022245EA111578
:100FD00045EA10654FEA00260EF000419D4208BF29
:100FE000964244F1FD0404F5407402D25B084FEAD6
:100FF0003202B61A65EB03055B084FEA32024FF482
:1010000080104FF4002CB6EB020E75EB030E22BFDE
:10101000B61A754640EA0C005B084FEA3202B6EB9E
:10102000020E75EB030E22BFB61A754640EA5C004D
:101030005B084FEA3202B6EB020E75EB030E22BFDD
:10104000B61A754640EA9C005B084FEA3202B6EBDE
:10105000020E75EB030E22BFB61A754640EADC009D
:1010600055EA060E18D04FEA051545EA16754FEAFF
:1010700006164FEAC30343EA52734FEAC2025FEA1D
:101080001C1CC0D111F4801F0BD141EA00014FF0AC
:1010900000004FF0004CB6E711F4801F04BF01437D
:1010A0000020B4F1FD0C88BFBCF5E06F3FF6AFAE99
:1010B000B5EB030C04BFB6EB020C5FEA500C50F129
:1010C000000041EB045170BD0EF0004E4EEA1131AC
:1010D00014EB5C04C2BFD4EB0C0541EA045170BDB3
:1010E00041F480114FF0000E013C90E645EA060EF7
:1010F0008DE60CEA135594EA0C0F08BF95EA0C0F25
:101100003FF43BAF94EA0C0F0AD150EA01347FF46C
:1011100034AF95EA0C0F7FF425AF104619462CE743
:1011200095EA0C0F06D152EA03353FF4FDAE1046A6
:10113000194622E750EA410618BF52EA43067FF4F7
:10114000C5AE50EA41047FF40DAF52EA43057FF487
:10115000EBAE12E74FF0FF3C06E0C0464FF0010C4B
:1011600002E0C0464FF0010C4DF804CC4FEA410CB0
:101170007FEA6C5C4FEA430C18BF7FEA6C5C1AD0C4
:1011800050EA410C0CBF52EA430C91EA030F02BF34
:1011900090EA020F0020704710F1000F91EA030F50
:1011A00058BF994208BF90422CBFD8176FEAE3702E
:1011B00040F0010070474FEA410C7FEA6C5C02D1BD
:1011C00050EA013C07D14FEA430C7FEA6C5CD7D16F
:1011D00052EA033CD4D05DF8040C704784461046B4
:1011E00062468C461946634600E0C04601B5FFF7EB
:1011F000B9FF002848BF10F1000F01BD4DF808ED00
:10120000FFF7F4FF0CBF012000205DF808FBC0468B
:101210004DF808EDFFF7EAFF34BF012000205DF82C
:1012200008FBC0464DF808EDFFF7E0FF94BF012032
:1012300000205DF808FBC0464DF808EDFFF7CEFF33
:1012400094BF012000205DF808FBC0464DF808ED72
:10125000FFF7C4FF34BF012000205DF808FBC04643
:101260004FEA410212F5001215D211D56FF47873CE
:10127000B3EB625212D94FEAC12343F0004343EA71
:10128000505311F0004F23FA02F018BF404270474C
:101290004FF00000704750EA013005D111F00040D6
:1012A00008BF6FF0004070474FF000007047C04625
:1012B0004A0011D212F5001211D20DD56FF47873D5
:1012C000B3EB62520ED44FEAC12343F0004343EA2A
:1012D000505323FA02F070474FF00000704750EA75
:1012E000013002D14FF0FF3070474FF000007047DF
:1012F00010B504462146044803F0B0FF03482146D8
:1013000003F0ACFF10BDC04600240140003C01408A
:1013100010B5104803F0C6FF0E4803F0C9FF0028BF
:10132000FAD10C4803F0CAFF0A4803F0CDFF0028A9
:10133000FAD1094803F0B6FF074803F0B9FF0028C7
:10134000FAD1054803F0BAFF034803F0BDFF0028B7
:10135000FAD110BD00240140003C01402DE970434A
:10136000214C86B00DF10409012500264FF46028B8
:101370002046494601968DF808508DF80960CDF851
:101380000C8004968DF8145003F042FF2A46204644
:101390004FF4087103F07AFF284603F0F9FF2A465C
:1013A00007232046102104F5C05403F09FFF204678
:1013B000494601968DF808508DF80960CDF80C80EB
:1013C00004968DF8145003F023FF204629462A4640
:1013D000334603F08BFF20464FF408712A4603F092
:1013E00055FF06B0BDE87083002401402DE9F04FA1
:1013F0002A4D8FB0044601910320012103F00CFC1B
:10140000284602F0D1FF0DF10C09254B012604946A
:101410004FF4807700244FF4806B4FF0200A4FF494
:101420000058284649460393059406960794089465
:101430000997CDF828B0CDF82CA0CDF830800D94C8
:1014400003F078F82846314603F094F805F58A65EC
:101450003146144803F00EFF284602F0A5FF124B58
:1014600028460393019B49460493059406960794E6
:1014700008940997CDF828B0CDF82CA0CDF830808D
:101480000D9403F057F82846314603F073F80748E7
:10149000314603F0EFFE0FB0BDE8F08F08000240C8
:1014A0004C240140002401404C3C0140003C0140E0
:1014B00037B5164C2078617803F058F954F8083C99
:1014C0006846009314F8043C6D468DF8043014F817
:1014D000033C8DF8053014F8023C0C348DF80630CE
:1014E00003F054F80A4B9C42E4D14FF4803300934C
:1014F000A3F580338DF804300C338DF80530684641
:1015000001238DF8063003F041F83EBD08000020AD
:1015100050000020014610B5014803F011F910BD3C
:10152000000C0140012110B548F21D2003F088FB9A
:101530004FF4C000012103F097FB10BD13B51A232F
:101540000093002412E00B4802A900EBC402937838
:1015500030F834008DF80630D37821F8040D506847
:101560008DF8073003F080F8631CDCB2009B9C42CE
:10157000E9D31CBD9000002013B54FF0006000219E
:1015800002F008FF4FF4407002F0BCFE00240A4A4B
:1015900001A8135D12198DF80430537804348DF8C6
:1015A000053093788DF80630D3788DF8073002F047
:1015B000B3FE3C2CEBD11CBD6001002010B503F044
:1015C00009FA4FF4803003F027FA03F041FA0128BA
:1015D000044629D1102003F03BF8022003F02CF838
:1015E000002003F079FA002003F08AFA4FF48060BB
:1015F00003F07CFA4FF4004003F08EFA4FF4803091
:101600004FF4E01103F044FA204603F04DFA39207C
:1016100003F03EFB0028FAD0022003F04BFA03F05F
:1016200053FA0828FBD100E0FEE710BD064A074B3D
:101630001360074B5360074B9360074BD360074B16
:101640001361074B5361704754530020D1170008B2
:10165000AD17000889170008651700084117000832
:101660001D170008064A074B1360074B5360074BD2
:101670009360074BD360074B1361074B536170476F
:1016800068550020891800087918000865180008B6
:10169000511800083D1800082918000810B500214D
:1016A0004FF0804003F05EFD0021044803F05AFD36
:1016B0000348002103F056FD10BDC0460004004061
:1016C00000080040C0F51C504FF47A73103070B51C
:1016D00090FBF3F00E4DFFF7C5FA002400220D4BEE
:1016E000FFF772F922462B46FFF722FBFEF754FE66
:1016F00022462B46FFF71CFB22462B46FFF766F9D6
:101700000022054BFFF714FBFFF7D2FD80B270BD3E
:101710000000E03F000008400000594070B504465A
:10172000FFF7D0FF054D064621462846A41903F0D1
:101730001FFD2846A1B203F01DFD70BD000800404A
:1017400070B50446FFF7BEFF054D06462146284604
:10175000A41903F009FD2846A1B203F007FD70BDEE
:101760000008004070B50446FFF7ACFF054D064683
:1017700021462846A41903F0FBFC2846A1B203F039
:10178000F9FC70BD0004004070B50446FFF79AFFF5
:10179000054D064621462846A41903F0E5FC2846D7
:1017A000A1B203F0E3FC70BD0004004070B5044634
:1017B000FFF788FF054621464FF08040641903F08B
:1017C000D7FC4FF08040A1B203F0D4FC70BDC046FE
:1017D00070B50446FFF776FF054621464FF080407E
:1017E000641903F0C1FC4FF08040A1B203F0BEFCCD
:1017F00070BDC04610B50121084803F073FC0121FB
:101800004FF0804003F06EFC0121054803F06AFCB4
:101810000448012103F066FC10BDC046002C0140C5
:101820000004004000080040024610B5024818219C
:1018300003F066FC10BDC04600080040024610B52B
:101840000248062103F05CFC10BDC04600080040C1
:10185000024610B50248182103F052FC10BDC046E4
:1018600000040040024610B50248062103F048FC7F
:1018700010BDC04600040040024610B54FF0804045
:10188000182103F03DFC10BD024610B54FF080401A
:10189000062103F035FC10BD2DE97041134C85B0D5
:1018A0004FF0200305460126ADF8060069462046A4
:1018B000ADF80030ADF8026003F05AFB0821204675
:1018C00003F03EFC2846ADF80260FFF7FBFE40192E
:1018D000ADF806006946204603F0AAFB2046082121
:1018E000E84603F035FC05B0BDE870810008004013
:1018F0002DE97041134C85B04FF0200305460126B9
:10190000ADF8060069462046ADF80030ADF802603B
:1019100003F02EFB0821204603F012FC2846ADF808
:101920000260FFF7CFFE4019ADF806006946204679
:1019300003F07EFB20460821E84603F009FC05B0D1
:10194000BDE87081000400407FB54FF020030446DD
:101950000125ADF8060069464FF08040ADF8003033
:10196000ADF8025003F004FB08214FF0804003F073
:10197000E7FB2046ADF80250FFF7A4FE0019ADF8D2
:10198000060069464FF0804003F052FB4FF0804064
:1019900008216E4603F0DCFB7FBDC0462DE9704197
:1019A000134C85B04FF0200305460126ADF8060024
:1019B00069462046ADF80030ADF8026003F018FA31
:1019C0000821204603F0AAFB2846ADF80260FFF785
:1019D00079FE4019ADF806006946204603F066FA24
:1019E00020460821E84603F0A1FB05B0BDE8708160
:1019F000000800402DE97041134C85B04FF02003E2
:101A000005460126ADF8060069462046ADF80030CF
:101A1000ADF8026003F0ECF90821204603F07EFBEC
:101A20002846ADF80260FFF74DFE4019ADF80600FC
:101A30006946204603F03AFA20460821E84603F0BA
:101A400075FB05B0BDE87081000400407FB54FF024
:101A5000200304460125ADF8060069464FF080409A
:101A6000ADF80030ADF8025003F0C2F908214FF094
:101A7000804003F053FB2046ADF80250FFF722FEF2
:101A80000019ADF8060069464FF0804003F00EFAE9
:101A90004FF0804008216E4603F048FB7FBDC046F2
:101AA00030B585B00DF106050446284603F010FB5D
:101AB0004FF04803ADF80630064800232946ADF83C
:101AC0000A40ADF80C30ADF8083003F063F905B00A
:101AD00030BDC0460008004030B585B00DF10605A8
:101AE0000446284603F0F4FA4FF04803ADF80630F8
:101AF000064800232946ADF80A40ADF80C30ADF891
:101B0000083003F047F905B030BDC046000400407E
:101B100030B585B00DF106050446284603F0D8FA25
:101B20004FF04803ADF806304FF0804000232946BF
:101B3000ADF80A40ADF80C30ADF8083003F02AF9E2
:101B400005B030BD30B585B00DF106050446284618
:101B500003F0BEFA4FF04803ADF806300648002304
:101B60002946ADF80A40ADF80C30ADF8083003F066
:101B700011F905B030BDC046002C014010B504205D
:101B8000012103F071F810BD10B50220012103F00E
:101B90006BF810BD012010B5014603F065F810BDCB
:101BA00010B54FF40060012103F04AF810BDC046A3
:101BB00010B501214FF4006003F056F84FF4C070E7
:101BC00003F0F0FA412003F0F7FA7F2003F010FB56
:101BD00003F016FB03F0FCFA10BDC04670B5436974
:101BE000054608460C469847142002F025FA2C803A
:101BF00070BDC04630B589B0002002F0F5F901F0A3
:101C00005FFC394B002118684FF0FF320B4601F0A2
:101C100031FE01F0DBF9354D2C46608901A901F058
:101C20008BFBBDF8040063699847BDF80400B0B9A8
:101C3000A369984701E001F067FD2D4BB3F900104F
:101C40002C4BB3F9002002F108039942F3DCA2F116
:101C500008039942EFDB2848218901221AE042F269
:101C600010739842A36918D10020984701E001F051
:101C70004BFD1F4BB3F900101E4BB3F9002002F1CE
:101C800008039942F3DCA2F108039942EFDB1A48FA
:101C90002189002202F064FD01E001209847174BE2
:101CA0001C349C42B9D1142002F0C6F96889294637
:101CB0001C3501F041FBA542F8D10B4B00210A462F
:101CC00018680B4601F0B2FE01F002FC4FF480519F
:101CD000094802F03BFDC0F101024FF48051064873
:101CE000D2B202F03DFD87E72C5400208053002043
:101CF000805500201C0200200010014028540020C4
:101D00002DE9F04105464FF0010800210B464FF048
:101D1000FF32286901F0AEFD282002F08DF92B7BFF
:101D20002C88002B40F0AB806148698902F008FDE7
:101D30000028EAD10646642002F07EF95C486989F1
:101D400002F0FEFC18B9731CDEB20A2EF3D158481B
:101D5000698902F0F5FC0746002844D10A2E42D1D9
:101D600042F210739C4208D10130AB699847504849
:101D700029893A4602F0F4FC2DE0002C2BD1AB6906
:101D80000120984727E0642002F056F942F21073D0
:101D90009C4201D16C881AE0AB880CB91C4616E055
:101DA000A34201D3EB880FE06B88A34205D8EB88F0
:101DB0004FF00108E31A9CB209E0B8F1010FEB887B
:101DC00002D1E31A9CB202E0E3189CB2B046284666
:101DD0002146FFF703FF3648698902F0B1FC064649
:101DE0000028D0D091E742F210739C4217D101E055
:101DF00001F08AFC2F4BB3F900102F4BB3F90020F0
:101E000002F108039942F3DCA2F108039942EFDBE7
:101E100029892748012202F0A3FC00212DE014B1FA
:101E200010E001F071FC234BB3F90010224BB3F921
:101E3000002002F108039942F3DCA2F10803994261
:101E4000EFDB13E0AB690020984701E001F05CFC98
:101E5000184BB3F90010184BB3F9002002F1080336
:101E60009942F3DCA2F108039942EFDB298910487B
:101E7000002202F075FC42F21071284614E0012B9A
:101E80007FF443AF0A48698902F05AFC10B928462A
:101E9000A98809E00648698902F052FC01287FF40C
:101EA00034AF284642F21071FFF798FE2DE7C04686
:101EB00000100140805500201C02002070B583698D
:101EC00005460020984700214FF0FF320B46286955
:101ED00001F0D0FC282002F0AFF82C7B7CB9184828
:101EE000698902F02DFC18BB2C891548214602F0A7
:101EF0002DFCC0F1010221461148D2B209E0012CAB
:101F000016D10F48698902F01BFC28B90C482989B1
:101F1000224602F025FC0BE00948698902F010FC1A
:101F2000012805D1064829890022F2E701F0ECFBDF
:101F30000348698902F004FC0028C4D1F6E7C046D2
:101F40000010014010B5304B002118684FF0FF32EF
:101F50000B4601F08FFC2D4B002118684FF0FF322B
:101F60000B4601F087FC0020294B41F63E72195ABE
:101F70001C18A1F57A73013B9BB2934205D942F23A
:101F80001073994201D001B123801C30A828EBD1F5
:101F90001F4C01211F4803F09DF901F091FA042024
:101FA000218803F00DFA1C20A18B03F009FA4820C8
:101FB000218F03F005FA6020B4F8541003F000FA02
:101FC0007820B4F8701003F0FBF99020B4F88C106E
:101FD00003F0F6F901F03AF901F07AFA0B4B00211F
:101FE0000A4618680B4601F021FD4FF480510A485B
:101FF00002F0ACFBC0F101024FF480510648D2B2AE
:1020000002F0AEFB9FE7C046CC5500202C540020C8
:1020100080530020002401400010014010B5074A01
:1020200013783BB100231370054A1380054B1868E1
:1020300001F0ACFF0A2001F0FFFFF0E728020020CA
:10204000240200204C53002010B504460088B0B98B
:10205000A369984701E001F057FB1E4BB3F900104C
:102060001D4BB3F9002002F108039942F3DCA2F101
:1020700008039942EFDB1948218901221AE042F254
:102080001073984219D1A3690020984701E001F02C
:102090003BFB104BB3F900100F4BB3F9002002F1DA
:1020A00008039942F3DCA2F108039942EFDB0B48E5
:1020B0002189002202F054FB08E06388834205D3A3
:1020C000A388834202D8A36901209847002001F029
:1020D000D9FF10BD805500201C02002000100140D7
:1020E00073B5FFF7A3FAFFF7BDFA994E0024354602
:1020F0000120002101F02CFD964B185120B1002148
:102100000A460B4601F092FC934B1B596B61934BB3
:102110001B59AB618F4B1B5904342B611C35182C98
:10212000E6D10120002101F013FD8D4B186020B194
:1021300000210A460B4601F079FC01F0E5FC894BD1
:10214000834C1860FFF73AFAFFF7ECF9FFF7F6F95E
:10215000FFF712FAFFF7ACF901F0C2F900F060FEE8
:1021600081498248FFF742F9FFF7F8F80120FFF7AD
:10217000BFF8FFF7CDF801F0BFF9E02002F00CFC4A
:10218000012002F003FC01F075F901F05FF800F0A6
:1021900011FF4020214601F0CFF8802004F11C01FE
:1021A00001F0CAF804F138014FF4807001F0C4F86E
:1021B00004F154014FF4007001F0BEF804F1700115
:1021C0004FF4806001F0B8F804F18C014FF4006026
:1021D00001F0B2F801F058F8FFF7E2FCFFF7DAFC83
:1021E000FFF7D2FCFFF7CAFC1820FFF7ABFC42F266
:1021F0000F70FFF78DFC42F20F70FFF76DFC42F29B
:102200000F70FFF74DFC2088FFF720FCA08BFFF735
:102210009BFB208FFFF7EEFBB4F85400FFF768FB41
:10222000B4F87000FFF7BAFBB4F88C00FFF734FB8A
:1022300001214F480A4602F063FFFFF7DBFA01E095
:1022400001F062FA4B4B1A8844F61F639A42F7D9A1
:102250004FF48050FFF75EF948B1474BB3F90030B7
:10226000B3F5006F03DB454B1B78012B13D1002422
:10227000384B1B5953B102230093414B41481B1962
:10228000019341498022334601F066FF04341C3635
:10229000182CEDD13FE000242E4B1B59A3B1032392
:1022A000009300230193394980223346384801F0D6
:1022B00053FF02230093324B36481B1901933649D2
:1022C0008022334601F048FF04341C36182CE3D139
:1022D000324B01240193324800233249802200947A
:1022E00001F03AFF1E4B1B6843B12F4B2F4801935F
:1022F0002F4980220023009401F02EFF194B1B6808
:102300004BB1012300932B4B2B4801932B49802287
:10231000002301F021FF194D2C78012C11D1AC20A4
:1023200003F054F8264B411C89B21980AC2003F00D
:1023300047F800232B7023484FF48051224602F0C7
:102340000FFA01F0C5F8002001F09CFE7CBDC046EC
:10235000805300205454002054530020685500201E
:10236000CC5500202C540020485400202854002034
:10237000002C01401E0200201C0200202902002027
:1023800030540020BD1E00080454000815540008F5
:1023900049200008011D0008265400084C54002064
:1023A0001D2000083754000850530020451F000826
:1023B000475400084C530020F51B000853540008F4
:1023C0002A0200200010014007B50123064980229F
:1023D00000930648013B019301F0BEFEFFF7E8FBC6
:1023E00001F070FFFEE7C04662540008E1200008DB
:1023F0007047C046034B1A68034B02EA0303034AC3
:102400001360F7E72CED00E0020000C0EC010020B3
:10241000FEE7C046FEE7C046FEE7C0467047C0463E
:102420007047C0467047C0467047C0467047C046B8
:102430007047C0467047C0467047C0467047C046A8
:102440007047C0467047C0467047C0467047C04698
:102450007047C0467047C0467047C0467047C04688
:102460007047C0467047C0467047C0467047C04678
:102470007047C0467047C0467047C0467047C04668
:102480007047C0467047C0467047C0467047C04658
:102490007047C0467047C0467047C0467047C04648
:1024A0007047C0467047C0467047C0467047C04638
:1024B0007047C0467047C0467047C0467047C04628
:1024C0007047C0467047C0467047C0467047C04618
:1024D0007047C04610B503484FF4087102F06CFF16
:1024E00010BDC0460024014010B52E484FF40871BD
:1024F00002F062FF2C4B2D491B882D4C0B8020468F
:1025000004232C4AFDF714FE23684FF08040DB13B0
:10251000236002F033FE41F28833984202D9264B01
:1025200001221A71224B1968244BB3F9002002F1E1
:10253000080399420BDAA2F10803994207DD1E4B0A
:102540001B790BB1FFF7AAF81B4B00221A71174C2D
:1025500044212046FDF73FFE194A11884B1C138089
:1025600049F6404399421BD816492088B1F900200A
:1025700003B29A42B8BF0880134903B2B1F90020F0
:102580009A42114BC8BF088019880E4B0AB2B3F9A2
:1025900000309B1A022293FBF2F3084A5B18138067
:1025A00010BDC046003C014048540020805500202A
:1025B0006C530020DC010020EC0100201C020020F4
:1025C0001E0200201A020020E401002070B51E4DFA
:1025D00000244FF48060AC6002F018F8B8B101F04C
:1025E00041FB012807D1194B2146186905F1080262
:1025F000234601F0F1F9144CA368012B03D101F03B
:1026000083F80023A3604FF4806002F00FF84FF4CA
:10261000006001F0FBFFB0B101F024FB012806D1FE
:102620000A4B002158690A4A0B4601F0D5F9064CBD
:10263000A368012B03D101F067F80023A3604FF4D6
:10264000006001F0F3FF70BDEC0100205454002045
:10265000F401002070B5384D00244020EC6001F0FA
:10266000D5FFB0B101F0FEFA012807D1334B214666
:10267000186805F10C02234601F0AEF92E4CE36810
:10268000012B03D101F040F80023E360402001F06A
:10269000CDFF802001F0BAFFA8B101F0E3FA0128D4
:1026A00006D1264B00215868254A0B4601F094F9C3
:1026B000214CE368012B03D101F026F80023E360ED
:1026C000802001F0B3FF4FF4807001F09FFFB0B1A4
:1026D00001F0C8FA012806D1184B00219868184A61
:1026E0000B4601F079F9144CE368012B03D101F09A
:1026F0000BF80023E3604FF4807001F097FF4FF474
:10270000007001F083FFB0B101F0ACFA012806D1EE
:102710000A4B0021D8680A4A0B4601F05DF9064CC5
:10272000E368012B03D100F0EFFF0023E3604FF4D7
:10273000007001F07BFF70BDEC01002054540020BC
:10274000F801002010B51248124902F08BF818B1B8
:102750000F48104902F096F80D480F4902F082F830
:1027600018B10B480C4902F08DF809480B4902F0EA
:1027700079F818B10648094902F084F80448084974
:1027800002F070F818B10248054902F07BF810BD5C
:102790000058004000040001000100010002000197
:1027A0000008000110B51248124902F05BF818B198
:1027B0000F48104902F066F80D480F4902F052F830
:1027C00018B10B480C4902F05DF809480B4902F0BA
:1027D00049F818B10648094902F054F80448084974
:1027E00002F040F818B10248054902F04BF810BD5C
:1027F000005400400004000100010001000200013B
:102800000008000170B5564802F01EF8554B1861DB
:10281000554B98422CD015D8B0F5806F00F09B80B6
:1028200005D8102876D0502840F0998072E04F4BA0
:10283000984263D00433984260D0B0F1021F40F058
:102840008E8050E04A4B984221D007D8423B9842B4
:1028500018D03E33984240F0828018E0454B9842B1
:1028600029D0023398422DD0043B984277D129E0F9
:1028700001213B4801F0B0FF39483021012201F02D
:10288000CDFF6CE03C4B4FF000021A8067E03A4D00
:102890002C88532C06D8324801F0BCFF374B185512
:1028A000631C2B80344B1B88532B58D12C480021A0
:1028B00001F092FF12E0324B4FF001021978314BD8
:1028C0001A8007E02F480288532A07D82C4B995CBE
:1028D000531C0380224801F09BFF40E02048012167
:1028E00001F06CFF3BE0244B4FF000021A801C48C3
:1028F0004FF48061012201F07DFF30E01E4D2C88F5
:10290000532C2CD8164801F085FF1C4B1855631C1E
:102910002B8024E0184D002211484FF4806101F013
:1029200069FF2C88532C06D80D4801F073FF134B18
:102930001855631C2B801449094801F093FF0121AD
:10294000074801F02DFF0C4B1B88542B07D10F4B70
:1029500001221A7003E002480D4901F07FFF70BDAB
:1029600000580040EC01002001000300400002007C
:10297000440003008200070024020020C05400200D
:10298000145500202602002010000002280200201A
:102990000004000110B5234801F056FF224B586196
:1029A000224B98421DD005D810282BD0B0F5806F4F
:1029B00036D122E01E4B984203D0023398422FD1E9
:1029C0000FE01C4C4FF000034FF4806101221548CA
:1029D000238001F00FFF2388174AD15C0133238045
:1029E00007E014480288532A1AD8134B995C531CE9
:1029F00003800C4801F00CFF12E00A480F4901F077
:102A00002DFF0DE007484FF48061002201F0F2FE37
:102A10000B49044801F026FF0248012101F0C0FEE5
:102A200010BDC04600540040EC01002080000600AC
:102A30008200060026020020145500200004000138
:102A40001000000210B53448022102F09BFB90B147
:102A50000221314802F0A2FB304BB3F8702042F261
:102A600010739A4256D0002A54D02D48102101F0FC
:102A700073FE012219E02848042102F083FBB8B15B
:102A80000421254802F08AFB244BB3F8702042F25F
:102A900010739A4200D01AB9224B1B7E002B39D0FA
:102AA0001F48102101F05AFE00221E4B1A7631E019
:102AB0001948082102F066FB88B10821164802F087
:102AC0006DFB164BB3F88C2042F210739A4221D062
:102AD00002B31348202101F03FFE012218E00E4806
:102AE000102102F04FFBA8B110210B4802F056FB59
:102AF0000A4BB3F88C2042F210739A4200D012B9FC
:102B0000084B5B7E33B10648202101F027FE0022EE
:102B1000044B5A7610BDC046000800408053002088
:102B200000100140EC01002010B53348022102F0F2
:102B300029FB88B10221304802F030FB2F4B1A8F5D
:102B400042F210739A4255D0002A53D02C480421E7
:102B500001F002FE012218E02748042102F012FBD6
:102B6000B0B10421244802F019FB244B1A8F42F221
:102B700010739A4200D01AB9224B9B7E002B39D099
:102B80001F48042101F0EAFD00221E4B9A7631E035
:102B90001948082102F0F6FA88B10821164802F017
:102BA000FDFA164BB3F8542042F210739A4221D02A
:102BB00002B31348082101F0CFFD012218E00E48AE
:102BC000102102F0DFFAA8B110210B4802F0E6FA5A
:102BD0000A4BB3F8542042F210739A4200D012B953
:102BE000084BDB7E33B10648082101F0B7FD002217
:102BF000044BDA7610BDC04600040040805300202C
:102C000000100140EC01002010B54FF0804002217F
:102C100002F0B8FA90B102214FF0804002F0BEFA03
:102C2000304B1A8842F210739A4259D0002A57D07A
:102C30002D48012101F090FD01221AE04FF0804063
:102C4000042102F09FFAB8B104214FF0804002F055
:102C5000A5FA244B1A8842F210739A4200D01AB98E
:102C6000224B1B7F002B3BD01F48012101F076FD3A
:102C700000221E4B1A7733E04FF08040082102F00B
:102C800081FA88B108214FF0804002F087FA154B95
:102C90009A8B42F210739A4222D00AB31248022150
:102CA00001F05AFD012219E04FF08040102102F09E
:102CB00069FAA8B110214FF0804002F06FFA094B79
:102CC0009A8B42F210739A4200D012B9074B5B7F85
:102CD00033B10548022101F041FD0022034B5A7730
:102CE00010BDC0468053002000100140EC010020C0
:102CF000012110B5034802F051FA0348012102F006
:102D0000E9FA10BD002C0140003C014070B5144CA4
:102D100000250120256202F01FF800B3636A4FF41A
:102D2000805001336362FEF7F5FBA8B100F09AFF13
:102D3000012807D10B4B2946186804F120022B46C5
:102D400000F04AFE012002F01BF8054B1B6A012B24
:102D500005D100F0D9FC02E0012002F011F870BDAD
:102D6000EC010020CC55002010B5042001F01EFE1F
:102D700070B1042001F024FE00F0A2FB054BB0204E
:102D8000998C02F01DFB00F0A3FB034A034B1A6071
:102D900010BDC046EC0100200400FA050CED00E077
:102DA00010B57F2002F01CFA02F02AFA10BDC046CE
:102DB000684620F007018D4601B5002103E0114B64
:102DC0005B58435004311048104B42189A42F6D3D6
:102DD0000F4A02E0002342F8043B0E4B9A42F9D31B
:102DE0000D4A136813F0804F05D043F080731360D1
:102DF0000A4B01221A70FFF7E7FABDE80140854649
:102E00007047C0467454000800000020EC01002008
:102E1000EC010020D055002024100240290200209F
:102E20001FB54FF40040FEF775FB0446002840F044
:102E3000B68001215A4801F0B3FC0121594801F044
:102E4000AFFC4FF480634BF6FF72ADF80630564B83
:102E5000ADF802204FF480404FF48042ADF80040BE
:102E6000ADF808200393FEF755FB012808D14FF475
:102E70000050FEF74FFB012802D14FF010031AE07B
:102E80004FF48040FEF746FB012807D14FF4005075
:102E9000FEF740FB10B94FF030021BE04FF48040CA
:102EA000FEF738FB50B900F50050FEF733FB012860
:102EB00004D14FF05003ADF804300DE04FF48040E2
:102EC000FEF728FB40B900F50050FEF723FB18B9C8
:102ED0004FF07002ADF80420344BBDF804203048A8
:102EE0001A80694601F0D2FC4FF480434FF48040D1
:102EF000ADF80830FEF70EFB012808D14FF4005062
:102F0000FEF708FB012802D14FF020021AE04FF42F
:102F10008040FEF7FFFA012807D14FF40050FEF77A
:102F2000F9FA10B94FF040031BE04FF48040FEF770
:102F3000F1FA50B900F50050FEF7ECFA012804D17F
:102F40004FF06002ADF804200DE04FF48040FEF732
:102F5000E1FA40B900F50050FEF7DCFA18B94FF07D
:102F60008003ADF80430124BBDF804200D481A80E0
:102F7000694601F08BFC0A48012101F057FC094821
:102F8000012101F053FC06484FF4E061012201F0F9
:102F900031FC04484FF4E061012201F02BFC1FBD1D
:102FA0000054004000580040A08601004653002015
:102FB0004453002010B5034954220348FDF71AF981
:102FC00010BDC04614550020C05400203B4970B5C8
:102FD0003B485422FDF70EF93A4931F8082CB2F576
:102FE0007A7F07D942F227339A4205D942F2107309
:102FF0009A4201D0002A3AD131F8063CB3F57A7FE3
:1030000035D942F22732934231D831F8043CB3F536
:103010007A7F2CD993422AD831F8023CB3F57A7FD3
:1030200025D24B88402B0DD0802B0BD0B3F5807F61
:1030300008D0B3F5007F05D0B3F5806F02D0B3F5AB
:10304000006F14D10B88012B09D0022B07D0042B61
:1030500005D0082B03D0102B01D0202B07D11A4B01
:103060000C319942B9D1194A0123137002E0174B70
:1030700000221A70154B1B78012B1DD10F4D042413
:103080006B782978204601EB032189B202F098F988
:10309000231D9CB202352C2CF2D1084D14346B7DCB
:1030A000297D204601EB032189B202F089F9231D15
:1030B0009CB20235C02CF2D170BDC046C054002075
:1030C0006C54002074540020BC54002014020020D2
:1030D00010B5A820082102F073F9BC20002102F0ED
:1030E0006FF9B420002102F06BF9B820002102F042
:1030F00067F910BD402810B5044618D1042042F2EB
:10310000107102F05DF9082042F2341102F058F912
:103110000C2040F6C41102F053F91020642102F093
:103120004FF91420012102F04BF9182089E0802882
:1031300018D11C2042F2107102F042F9202042F214
:10314000341102F03DF9242040F6C41102F038F9A0
:103150002820642102F034F94020022102F030F9E5
:1031600044206EE0B0F5807F18D1482042F2107103
:1031700002F026F94C2042F2341102F021F95020DD
:1031800040F6C41102F01CF95420642102F018F931
:103190005820042102F014F95C2052E0B0F5007FC1
:1031A00018D1602042F2107102F00AF9642042F254
:1031B000341102F005F9682040F6C41102F000F95C
:1031C0006C20642102F0FCF87020082102F0F8F86D
:1031D000742036E0B0F5806F18D1782042F210717B
:1031E00002F0EEF87C2042F2341102F0E9F880207F
:1031F00040F6C41102F0E4F88420642102F0E0F803
:103200008820102102F0DCF88C201AE0B0F5006F65
:103210001AD1902042F2107102F0D2F8942042F2BA
:10322000341102F0CDF8982040F6C41102F0C8F82D
:103230009C20642102F0C4F8A020202102F0C0F8F4
:10324000A420214602F0BCF810BDC04670B50D4D5B
:103250000424204602F0BAF8231D28709CB2000A0C
:10326000687002352C2CF4D1064D1434204602F03F
:10327000ADF8231D28759CB2000A68750235C02C74
:10328000F4D170BD1455002010B5AC2002F09EF8AA
:10329000034B1880BC2002F099F8024B186010BD57
:1032A0002A0200202002002013B50446BC2002F0B0
:1032B0008DF8204B402C1860019304D1019B5B01D9
:1032C00043F008532FE0802C06D1019B5B0143F0B3
:1032D000085343F0040326E0B4F5807F06D1019B38
:1032E0005B0143F0085343F008031CE0B4F5007F92
:1032F00006D1019B5B0143F0085343F00C0312E03D
:10330000B4F5806F06D1019B5B0143F0085343F095
:10331000100308E0B4F5006F0BD1019B5B0143F093
:10332000085343F014031B68012B14BF0020012035
:10333000FFE71CBD20020020402870B505460C4662
:1033400015D1042002F042F82080082002F03EF857
:1033500060800C2002F03AF8A080102002F036F8CD
:10336000E080142002F032F8208118207AE08028D2
:1033700015D11C2002F02AF82080202002F026F827
:103380006080242002F022F8A080282002F01EF89D
:10339000E080402002F01AF82081442062E0B0F57D
:1033A000807F15D1482002F011F820804C2002F0D7
:1033B0000DF86080502002F009F8A080542002F03F
:1033C00005F8E080582002F001F820815C2049E0F7
:1033D000B0F5007F15D1602001F0F8FF2080642057
:1033E00001F0F4FF6080682001F0F0FFA0806C2005
:1033F00001F0ECFFE080702001F0E8FF20817420F4
:1034000030E0B0F5806F15D1782001F0DFFF20802B
:103410007C2001F0DBFF6080802001F0D7FFA080DE
:10342000842001F0D3FFE080882001F0CFFF2081CD
:103430008C2017E0B0F5006F1BD1902001F0C6FF83
:103440002080942001F0C2FF6080982001F0BEFF30
:10345000A0809C2001F0BAFFE080A02001F0B6FF20
:103460002081A42001F0B2FF60812846FFF71CFFF5
:10347000207370BD10B54FF48050FEF74BF818B1B3
:103480000E4B1B78012B17D14020FFF733FE802015
:10349000FFF730FE4FF48070FFF72CFE4FF4007002
:1034A000FFF728FE4FF48060FFF724FE4FF4006022
:1034B000FFF720FEFFF70CFE10BDC04629020020DA
:1034C00010B5012001F05CFA01F088FF10BDC04684
:1034D00010B5002001F054FA01F080FF10BDC04685
:1034E00010B501214FF0C05001F0BEFB012001F0EA
:1034F00047FA01F073FF10BD10B54FF0C050012125
:1035000001F0B2FB012001F03BFA012001F00EFBBB
:10351000412001F0BDFB0028FAD04FF4807001F08B
:1035200015FB012001F01AFB01F006FC01F0FAFB8B
:103530000120014601F0CAFB01F0F4FB47F6FF70E1
:1035400001F0DAFB01F0EEFB10BDC04670B5044699
:1035500088B1A0F1080500F041FB54F8040C064ABC
:10356000136811461A465B688342F9D344F8082C65
:103570000D6000F0B1FC70BD2C02002070B5274D2D
:10358000044600F02BFBA86880B9254B4FF4A042FD
:10359000C3F8342CC3F8300C03F5436305F1100174
:1035A0002B610123686029604A60AB6034B1083444
:1035B00014F0030F1CBF24F003031C1D621E44F60D
:1035C000FE739A4225D8154B1A6818465368A342D1
:1035D00005D21368114613B11A460846F6E7114B97
:1035E0009A4216D0036803F1080513680360536814
:1035F0001B1B102B0ED911194B6054604C68074AE5
:10360000136810461A465B68A342F9D30A6001604A
:1036100000E0002500F060FC284670BD2C02002070
:103620000C4600203C5200204FF0FF33836000F135
:1036300008020133C2604260026103607047C04605
:10364000002303617047C0464268086153688A607E
:103650004B605368996051600368416001330360B7
:103660007047C04610B50C68B4F1FF3F01D1026944
:1036700007E000F1080200E0526853681B68A342AB
:10368000FAD95368086199604B60516003688A6099
:103690000133036010BDC046436882689A60816848
:1036A00002694B605368834208BF51600023036185
:1036B0001368013B1360704710B54FF080730446E8
:1036C00044F8043903F17F4340F8041C44F8043CF7
:1036D00040F81C2C3C3810BD064B19680868B0E84F
:1036E000F00F80F309884FF0000080F311884EF04E
:1036F0000D0E7047E052002002480068006880F319
:10370000088800DF08ED00E0024B4FF080521A609D
:103710007047C04604ED00E04FF0BF0080F3118811
:10372000024A1368013313607047C046E801002065
:10373000044A1368013B13601BB94FF0000080F38B
:1037400011887047E8010020EFF309800C4B1A68DC
:1037500020E9F00F10602DE908404FF0BF0080F322
:10376000118800F043FA4FF0000080F31188BDE8A3
:10377000084019680868B0E8F00F80F309887047BE
:10378000E05200200B4A10B51368002443F47F0375
:103790001360136843F07F431360074A074B1A60B6
:1037A0000722043B1A60064B1C60FFF7A5FF20466A
:1037B00010BDC04620ED00E03F19010014E000E01C
:1037C000E8010020074B4FF0805210B51A604FF00F
:1037D000BF0080F3118800F0D7FA4FF0000080F3AB
:1037E000118810BD04ED00E010B5044608462168BC
:1037F00059B1E368226C9B186268E360934228BF6A
:10380000E160E168226CFCF7F5FC10BD70B5044680
:1038100004F12405FFF780FF0AE0636A5BB12846E4
:1038200000F082FA08B100F011FAA36C013BA36426
:10383000A36C002BF1DC4FF0FF33A364FFF778FF9C
:1038400004F11005FFF768FF0AE023695BB1284621
:1038500000F06AFA08B100F0F9F9636C013B6364A7
:10386000636C002BF1DC4FF0FF336364FFF760FF04
:1038700070BDC0462DE9F04385B0054688460192EB
:10388000994600F12407002600E00126FFF744FFD7
:10389000AB6B2BB328464146EC68FFF7A5FFB9F1A7
:1038A000000F10D1AB6B013BAB632B6813B900F079
:1038B000D3F968602B697BB105F1100000F034FA90
:1038C000012809D106E06B6AEC602BB1384600F0A4
:1038D0002BFA08B1FFF718FFFFF72AFF01204BE092
:1038E000019C1CB9FFF724FF204645E016B902A849
:1038F00000F0A2F9FFF71CFF00F070F9FFF70CFFD2
:103900006B6CB3F1FF3F01D101336B64AB6CB3F16E
:10391000FF3F01D10133AB64FFF70AFF02A801A901
:1039200000F080FA10BBFFF7F7FEAC6BFFF700FF6B
:10393000B4B92B6833B9FFF7EFFE686800F0C0F93F
:10394000FFF7F6FE3846019900F098FA2846FFF78F
:103950005DFF00F0C1FA002897D1FFF7D5FE94E78C
:103960002846FFF753FF00F0B7FA8EE72846FFF727
:103970004DFF00F0B1FA002005B0BDE8F083C0466D
:103980001346026C70B5044632B9056805BB406841
:1039900000F074F965601BE063B98068FCF72AFCED
:1039A000A368226C9B186268A360934210D32368BB
:1039B000A3600DE0C068FCF71DFC236C226859422F
:1039C000E3685B189342E36002D263685B18E360CC
:1039D000A36B0133A36370BD70B59C4604461546C6
:1039E0004FF0BF0080F31188A26BE36B9A4201D3C2
:1039F000002314E020466246FFF7C2FFA36CB3F138
:103A0000FF3F09D1636A4BB104F1240000F08CF947
:103A100020B101232B6002E00133A36401234FF0A6
:103A2000000080F31188184670BDC0462DE9F043B0
:103A300085B0064689460192984600F11007002598
:103A400000E00125FFF768FEB26BF36B9A4212D2D9
:103A5000304649464246FFF793FF736A3BB106F191
:103A6000240000F061F9012801D1FFF74DFEFFF7B6
:103A70005FFE012044E0019C1CB9FFF759FE20467F
:103A80003EE015B902A800F0D7F8FFF751FE00F0AC
:103A9000A5F8FFF741FE736CB3F1FF3F01D101338D
:103AA0007364B36CB3F1FF3F01D10133B364FFF72B
:103AB0003FFE02A801A900F0B5F9D8B9FFF72CFE26
:103AC000B56BF46BFFF734FEA5420DD13846019972
:103AD00000F0D4F93046FFF799FE00F0FDF9002818
:103AE000AFD1FFF711FEACE73046FFF78FFE00F0D5
:103AF000F3F9A6E73046FFF789FE00F0EDF9002064
:103B000005B0BDE8F083C04670B54C20FFF736FD28
:103B10000546D0B101230024C3634FF0FF33436453
:103B20008364446004608460C4608463046400F15E
:103B30001000FFF779FD05F12400FFF775FD284619
:103B4000214622462346FFF771FF284670BDC04636
:103B50002DE9F0418846064608B9044629E04C2084
:103B6000FFF70CFD044620B306FB08F7781CFFF7AF
:103B700005FD05462060C0B1C31963600023A3633F
:103B8000731E08FB0303E3604FF0FF33A060E6639E
:103B900004F11000C4F840806364A364FFF744FD9F
:103BA00004F12400FFF740FD03E02046FFF7CEFCC0
:103BB0002C462046BDE8F0814269074B9A4209D164
:103BC000806A02F11403984204D0D0F1010038BF9A
:103BD000002000E00020704744520020024A936A0F
:103BE000013393627047C04644520020114A936AE1
:103BF0002BB1012313631CE0536B013B53630D4A4C
:103C00001421536B02F138004B43C358002BF3D0FF
:103C1000536B01FB03014B685A6801F108034A60CA
:103C20009A4204BF53684B604B68DA68014BC3F893
:103C30009C20704744520020034AD2F8A030036011
:103C4000D2F8A4304360704744520020014B012257
:103C50001A63704744520020014BD3F89C00704710
:103C600044520020044BD3F8A80020B19B6A002BDB
:103C70000CBF0120022070474452002070B504465A
:103C8000C0B1C26A436C9A4214D0051D2846FFF7A2
:103C900003FD626C0849C2F10503E262A3614B6B4C
:103CA00006489A4288BF4A63142303FB0200294650
:103CB000FFF7CAFC70BDC046445200207C52002071
:103CC00070B5174DC16AD5F89C300446DB6A99423D
:103CD00025D2D5F89C3005F13802DB6AC3F1050323
:103CE0008361142303FB012342699A4213D1061D09
:103CF0003046FFF7D1FCD5F89C300A48DA6A3146E5
:103D0000E2626B6B9A4288BF6A63142303FB020072
:103D1000FFF79AFC03E0D5F89C30DB6AC36270BD04
:103D2000445200207C520020036870B50BB91D4638
:103D300001E0C368DD6805F11806114C3046FFF755
:103D4000ABFCA36A6BB92E1D3046FFF7A5FCEA6AEF
:103D5000636B0C489A4288BF6263142303FB020022
:103D600001E004F114003146FFF76EFC044BEA6AEF
:103D7000D3F89C30D86A824234BF0020012070BD45
:103D8000445200207C520020244970B58B6A002BDD
:103D90003DD1D1F8A4300133C1F8A430D1F8A4301A
:103DA0004BBBD1F8AC20D1F8B030C1F8AC30C1F881
:103DB000B020D1F8A0300133C1F8A0301BE0D2F818
:103DC000A42063689A4227D3251D2846FFF764FC88
:103DD000A36A1BB104F11800FFF75EFC0F49E26A09
:103DE0004B6B0F489A4288BF4A63142303FB0200BF
:103DF0002946FFF729FC094AD2F8AC301B685BB1B1
:103E0000D2F8AC30DB68DC68002CD8D104E0D1F803
:103E1000B4300133C1F8B43070BDC0464452002004
:103E20007C52002070B50D460446FFF775FC2968EA
:103E3000B1F1FF3F19D010482368D0F8A0209A4272
:103E400004D0D0F8A42063689A4210D20A4862686D
:103E5000D0F8A4309B1A8B4209D2D0F8A430204667
:103E6000D31A5B182B60FFF7E7FE002400E0012463
:103E7000FFF75EFC204670BD4452002070B5154C23
:103E80000D46D4F89C101831FFF7ECFBD4F89C00D9
:103E90000430FFF701FCB5F1FF3F06D1D4F89C10C8
:103EA00020460431FFF7D0FB12E0D4F8A430D4F858
:103EB0009C20EB185360D4F8A420934234BFD4F86C
:103EC000B000D4F8AC00D4F89C100431FFF7CAFB62
:103ED00070BDC046445200202DE9F041FFF71CFCA4
:103EE000294A936A013B9362916A002946D1D36AB9
:103EF000002B43D00E461CE02F1D05F11800FFF7E4
:103F0000CBFB3846FFF7C8FBEA6A636B39469A4237
:103F100088BF62631C4C142004F1380300FB02309C
:103F2000FFF792FBD4F89C30EA6ADB6A9A4228BF1A
:103F30000126154C63691BB1236ADD68002DDBD1B6
:103F4000114AD2F8B4303BB90CE0FFF71DFFD4F8AA
:103F5000B430013BC4F8B4300B4CD4F8B430002B6F
:103F6000F3D104E0012E02D0136B012B06D1064BD6
:103F700000221A63FFF7C8FB012400E00024FFF7CA
:103F8000D7FB2046BDE8F0814452002070B50546BD
:103F900038B3144CD4F89C30984222D0FFF7BCFBC5
:103FA0002846FFF709FE012819D12E1D3046FFF7DC
:103FB00073FBEA6A636B31469A4288BF6263094CBD
:103FC000142004F1380300FB0230FFF73DFBD4F866
:103FD0009C30EA6ADB6A9A4201D3FFF795FBFFF750
:103FE000A7FB70BD4452002070B50546FFF794FB57
:103FF000104BD3F89C309D4201D1002500E01DB943
:104000000C4BD3F89C4000E02C46261D3046FFF7B1
:1040100043FBA36A1BB104F11800FFF73DFB054801
:104020003146FFF711FBFFF783FB0DB9FFF76CFB80
:1040300070BDC0464452002070B50646E8B1104D30
:10404000FFF7CCFDD5F8A440D5F89C003419043016
:10405000FFF722FBD5F89C305C60D5F8A4309C4279
:1040600034BFD5F8B000D5F8AC00D5F89C100431B9
:10407000FFF7F8FAFFF730FF08B9FFF745FB70BD0F
:104080004452002070B50546FFF746FB174BD3F8A6
:104090009C309D4201D1002500E01DB9134BD3F89F
:1040A0009C4000E02C46261D3046FFF7F5FAA36A37
:1040B0001BB104F11800FFF7EFFA0C4C314604F184
:1040C000B800FFF7C1FAD4F8CC300133C4F8CC30D3
:1040D000D4F8D0300133C4F8D030FFF729FBD4F83E
:1040E000A83013B10DB9FFF70FFB70BD445200208B
:1040F00070B5184DD5F8CC3023B3FFF76FFDD5F868
:10410000B840FFF7E9FEECB1FFF706FBD5F8B800C1
:1041100008B9044602E0D5F8C430DC68201DFFF77A
:10412000BBFA0C4BDA6A013ADA62D3F8CC20013AD6
:10413000C3F8CC20FFF7FCFA206BFFF707FA204604
:10414000FFF704FA034B9B6B012BD2D9FFF7DCFA84
:10415000CFE7C046445200202DE9F84F8146482061
:104160000D4617469846DDF828B0FFF707FA0646D1
:1041700008B901389FE0BC002046FFF7FFF9306323
:1041800028B93046FFF7E2F94FF0FF3093E0A52160
:104190002246FCF77BF81022294606F13400FCF792
:1041A000B9F8BBF1040F34BF5C460424002306F1C8
:1041B000040A86F84330F46274645046FFF740FA0C
:1041C00006F11800FFF73CFA336BC7F10102C4F1A6
:1041D00005046FF0030000FB023049464246366199
:1041E000B4617662FFF768FA3060FFF795FA3348FA
:1041F000C36A0133C362C36A012B26D1C0F89C6035
:1042000000F138042D4F2046FFF70EFA143407F161
:104210009C039C42F6D107F1D405284607F1E80437
:10422000FFF702FA2046FFF7FFF907F11400FFF746
:10423000FBF907F1B800FFF7F7F93846FFF7F4F993
:10424000C7F8AC50C7F8B04009E0D0F8A83033B98F
:10425000D0F89C30DB6A5B4598BFC0F89C6017497A
:10426000F26AD1F8FC3016489A4288BFC1F8FC20A7
:104270001249D1F8D0300133C1F8D030F26A4B6B1B
:104280009A4288BF4A63F26A142303FB0200514634
:10429000FFF7DAF9FFF74CFA0B9B03B11E60074AF0
:1042A000D2F8A83033B1D2F89C30DB6A5B4501D23A
:1042B000FFF72AFA0120BDE8F88FC04644520020DB
:1042C0007C52002013B5002480220B480B49234662
:1042D00000940194FFF740FF012802460AD14FF0F5
:1042E000BF0080F31188064BC3F8A820C3F8A44090
:1042F000FFF748FA1CBDC046F14000086E540008A4
:104300004452002040F0BE60024B40F42020D860B0
:104310007047C04600ED00E030B5C37890F800C0AB
:104320004BB31A4B4178DA68194DD243C2F30222DB
:10433000C2F1040399400F23D34082780CF00300AC
:1043400013400B43C0001B01FF22824083404FEA11
:104350009C04C03455F82410134021EA02010B4399
:1043600045F824300CF01F02012393404FEA5C1102
:1043700045F8213009E00CF01F02012393404FEA79
:104380005C11034A203142F8213030BD00ED00E0DD
:1043900000E100E021F0604121F07F01014B014389
:1043A0009960704700ED00E00368002223F00103EC
:1043B000036040F26C03C4F2020382B098420260D0
:1043C000019042608260C26000F0AA801DD940F274
:1043D0001C43C4F20203984200F0908031D840F2AE
:1043E0008003C4F2020398427FD040F20843C4F233
:1043F0000203984207D140F20042C4F2020253681D
:1044000043F00F03536002B0704740F23003C4F230
:10441000020398427BD02FD940F24403C4F2020336
:10442000984247D040F25803C4F202039842EAD1BE
:1044300040F20002C4F20202536843F47023536056
:10444000E1E740F24443C4F20203984244D040F210
:104450005843C4F20203984235D040F23043C4F2CC
:1044600002039842CFD140F20042C4F202025368E4
:1044700043F470635360C6E740F20803C4F20203DA
:1044800098420ED040F21C03C4F202039842BAD103
:1044900040F20002C4F20202536843F0F00353609A
:1044A000B1E740F20002C4F20202536843F00F0386
:1044B0005360A8E740F20002C4F20202536843F4DA
:1044C000704353609FE740F20042C4F20202536817
:1044D00043F47023536096E740F20042C4F20202B4
:1044E000536843F4704353608DE740F20002C4F216
:1044F0000202536843F07063536084E740F2004265
:10450000C4F20202536843F0F00353607BE740F2C9
:104510000002C4F20202536843F47063536072E70E
:1045200040F20002C4F20202536843F47003536085
:1045300069E7C04630B448F20F020568CFF6FF7253
:104540000B6A15408A680C6913434A6923438C69D6
:104550001343CA6923434C6A13438A6A23431343B0
:104560002B430360CA6842600B6883604A68C2607C
:1045700030BC704721B9036823F001030360704722
:10458000036843F001030360F9E7C046837970B420
:10459000054643B340F20044C4F2010400682368B6
:1045A000C14301EA03032360626811402A79616014
:1045B00002F1804202F582321368034313602E68D1
:1045C000A168F34303EA0101A160E268687913403E
:1045D0001028E36013D000F1804202F582321368A4
:1045E0003343136009E00379026803F1804303F564
:1045F00082331968D2431140196070BC7047A368B8
:104600003343A360E2683243E260F6E740F20043DE
:10461000C4F2010319685A6910EA020308BF184678
:1046200003D008420CBF00200120704740F2004335
:10463000C4F201035861704742F20002C4F2020260
:10464000136803F038031360116808431060704763
:1046500042F20002C4F20202136823F01003136056
:1046600011680843106070472DE9F003CD780646C5
:1046700015F0100F18BF8B78088805F00F0718BFCA
:104680001F4310F0FF0F29D034684FF0000C4FF09B
:1046900001084FF00F0904E00CF1010CBCF1080F08
:1046A0001BD008FA0CF303EA00019942F4D14FEA57
:1046B0008C0209FA02F317FA02F2DB432340282D99
:1046C00043EA020408BF7161E6D0482D0CF1010CE9
:1046D00008BF3161BCF1080FE3D13460FF282BD94A
:1046E00074684FF0000C4FF001084FF00F0904E020
:1046F0000CF1010CBCF1080F1DD00CF1080308FAF5
:1047000003F303EA00019942F2D14FEA8C0209FA5D
:1047100002F317FA02F2DB432340282D43EA020496
:1047200008BF7161E4D0482D0CF1010C08BF316164
:10473000BCF1080FE1D17460BDE8F0037047C046DA
:10474000836819420CBF002001207047C3681942DA
:104750000CBF002001207047016170474161704724
:104760000AB9416170470161FCE7C04630B401F00D
:104770000305AD000F23AB40A840890840F20002BA
:10478000C4F20102023152F82140DB43234042F8D7
:10479000213052F82140204342F8210030BC7047BC
:1047A00031B9038823F001031B041B0C03807047FD
:1047B00003889BB243F001030380F8E731B9038813
:1047C00023F400731B041B0C0380704703889BB207
:1047D00043F400730380F8E731B9038823F480635E
:1047E0001B041B0C0380704703889BB243F4806357
:1047F0000380F8E72AB98388CA439BB213408380B9
:10480000704783889BB241EA03038380F8E7C04680
:1048100001827047008AC0B27047C0461AB901F0E1
:10482000FE010182704741F00101FAE731B10388CE
:1048300023F080031B041B0C0380704703889BB28A
:1048400043F080030380F8E70346808A1A8B80B226
:1048500040EA024020F07F407047C046C94389B219
:10486000818270478288838A92B29BB213EA0100E8
:1048700006D001F0E06312EA13430CBF00200120D0
:104880007047C046C94389B28182704770B586B00F
:104890000546848801A80E4600F066F903984DF697
:1048A0008363C4F21B33A3FB001324F03F042404EE
:1048B000240C4FEA934E4EEA0404AC802B88F16836
:1048C00023F001031B041B0C2B8048F2A063C0F2F1
:1048D0000103994224D84B00B0FBF3F39BB20EF1D5
:1048E00001022A84032B8CBF18460420A8832A883F
:1048F00092B242F001022A802B88F28823F480636E
:10490000318823F00A031B040A431B0C13439BB298
:104910002B80B28833891A4392B22A8106B070BDC7
:1049200072884BF6FF739A4223D0CA004B019B1A40
:104930005B18B0FBF3F39BB243F4804213051B0DED
:104940000BB942F0010242F400404FEA8E014FEAF7
:104950000E1289180B0144F6D3525B1AC1F262029F
:1049600082FB0312DB17C3EBA21301339BB22B8430
:10497000BCE74B005B18B0FBF3F39AB2DEE7C0462E
:1049800040F22003C4F20E231860704740F2100377
:10499000C4F20E231860704747F20003C4F200030C
:1049A0001A6822F0E00210431860704747F20003D3
:1049B000C4F200035A6810420CBF00200120704767
:1049C00047F20002C4F20002136843EA8003136056
:1049D0007047C04641F20000C4F20200036843F091
:1049E00001030360426840F20003CFF6FF031A4060
:1049F000426001684FF6FF73CFF6F663194001601D
:104A0000036823F4802303604268002322F4FE023B
:104A1000426083607047C04641F20001C4F2020167
:104A20000B68B0F5803F23F480330B600A6822F4F2
:104A300080220A6002BF0B6843F480330B6006D00B
:104A4000B0F5802F03D10B6843F4A0230B607047AF
:104A500082B0002341F200010193C4F202010B680D
:104A600013F4003F0CD0019B0133019341F200038A
:104A7000C4F202031868400C00F0010002B0704755
:104A8000019B01330193019AB2F5A06FE7D1EDE7E5
:104A900041F20003C4F202035A6822F47C1210436C
:104AA000084358607047C04640F26003C4F2422396
:104AB0001860704741F20003C4F202035A6822F002
:104AC000030210435860704741F20003C4F202032E
:104AD000586800F00C00704741F20003C4F2020372
:104AE0005A6822F0F00210435860704741F2000308
:104AF000C4F202035A6822F4E0621043586070471F
:104B000041F20002C4F20202536823F4605343EA04
:104B1000C00353607047C04641F20003C4F2020371
:104B20005A6822F4404210435860704741F2200214
:104B3000C4F20202002301281370137008BF107022
:104B400003D0042801D105231370704741F20003FC
:104B5000C4F202031A6A10431862704740F23C43E1
:104B6000C4F242231860704741F20001C4F202010E
:104B70004B6830B403F00C03042B054601D0082B1E
:104B80002ED041F20023C0F27A032B6041F20004E0
:104B9000C4F20204636845F2F03003F0F003C0F69B
:104BA00000001B09C25C2968D1406960636803F496
:104BB000E0631B0AC25C31FA02F2AA60636803F484
:104BC0006053DB0AC25CD140E960636803F4404390
:104BD00000EB9330027CB1FBF2F1296130BC7047ED
:104BE0004B684A6803F470139B0C981C12F4803FC6
:104BF0000AD04B6813F4003F01BF41F20023C0F21A
:104C00007A0343432B60C1D040F60013C0F23D034A
:104C100003FB00F32B60B9E741B941F20003C4F292
:104C200002035969C2430A405A61704741F20002C7
:104C3000C4F20202536940EA03035361F5E7C04638
:104C400041B941F20003C4F202039969C2430A4028
:104C50009A61704741F20002C4F20202936940EA8D
:104C600003039361F5E7C04641B941F20003C4F282
:104C70000203D969C2430A40DA61704741F2000277
:104C8000C4F20202D36940EA0303D361F5E7C046E8
:104C90004309012B02BF41F20003C4F202031B6867
:104CA0000CD0022B0BBF41F2000341F20003C4F20F
:104CB0000203C4F202030CBF1B6A5B6A00F01F0010
:104CC00033FA00F000F001007047C04649B942F6DF
:104CD0000003C4F200031A88C14392B20A401A804A
:104CE000704742F60002C4F2000213889BB240EA09
:104CF00003031380F4E7C04642F60001C4F200014A
:104D00008B8800F470229BB243F01003120C80B227
:104D10008B800A8188818B8823F010031B041B0C75
:104D20008B80704742F60002C4F20002938813F0B1
:104D3000200FFBD07047C04642F60002C4F20002CA
:104D4000938823F008031B041B0C9380938813F0B3
:104D5000080FFBD07047C04642F60003C4F20003C0
:104D600099881A8889B210EA020308BF184606D04B
:104D700000EA010313F0FF0F0CBF00200120704771
:104D800042F60003C4F200039A88C04392B2024084
:104D90009A807047028810B402F08F020280038864
:104DA000CA880C469BB2498813430B439BB20380CD
:104DB000A28883B08285238842F6004203854FF0A3
:104DC0000103838243F20043C4F20103C4F20102EF
:104DD000984214BF00230123904208BF43F001030F
:104DE00001900BB1237A038603B010BC7047C04614
:104DF000038C2DE9F00123F001031B041B0C038439
:104E00000D46018C8388028B9EB297B26B882A89EB
:104E100021F00201134309049BB2EA88090C43EA1A
:104E2000010C43F20043B5F80080C4F2010382860E
:104E300042F60042C4F20102984214BF002301234B
:104E400083B0904208BF43F0010301900446E3B1F0
:104E50004FF6F7736989C0F200030CEA03034FF6BB
:104E6000FB720B43C0F20002A98803EA020242EA85
:104E7000010CEB89AA8947F6FF40C0F200001343FA
:104E800006EA00009BB243EA00064FF68F73C0F2B9
:104E9000000307EA030343EA0803A6802383A4F878
:104EA00020C003B0BDE8F0017047C046038CF0B4E9
:104EB00023F010031B041B0C0384028C83880C4614
:104EC00022F020029DB212042389120C42EA03123E
:104ED000638892B242EA0312E388018B2788038732
:104EE00043F200431FFA82FCC4F2010342F600427F
:104EF000C4F20102984214BF0023012382B0904201
:104F000008BF43F0010301908EB20BB34FF67F72DE
:104F10006189C0F200020CEA02024FF6BF7342EA56
:104F20000112C0F20003A18802EA030343EA01135D
:104F300047F2FF321FFA83FCC0F20002A38905EAA0
:104F4000020242EA8302E38992B242EA830295B204
:104F500048F6FF73C0F2000306EA030343EA07239F
:104F60009BB285800383A0F820C002B0F0BC7047DC
:104F7000038CF0B423F480731B041B0C0384028C99
:104F800083880C4622F400729DB212042389120C0D
:104F900042EA0322638892B242EA0322E388818BC9
:104FA0002788838743F200431FFA82FCC4F201037F
:104FB00042F60042C4F20102984214BF00230123CA
:104FC00082B0904208BF43F0010301908EB20BB350
:104FD0004FF2FF726189C0F200020CEA02024FF642
:104FE000FF3342EA0122C0F20003A18802EA030370
:104FF00043EA012344F6FF721FFA83FCC0F2000269
:10500000A38905EA020242EA0312E38992B242EA64
:10501000031295B24FF68F73C0F2000306EA030342
:105020003B4385808383A0F820C002B0F0BC70476A
:10503000038C2DE9F00323F480531B041B0C038421
:10504000028C83881FFA82F91FFA83FCCB88828B3B
:105050000E880F89B1F80280A0F8403043F2004377
:1050600095B2C4F2010342F60042C4F20102984232
:1050700014BF0023012382B0904208BF43F0010314
:1050800001900C463BB14FEA8C43A2899B0C43EA4A
:1050900082131FFA83FC4DF6FF72C0F2000248F63D
:1050A000FF7309EA0202C0F2000342EA073205EA8E
:1050B000030392B243EA062342EA08329BB292B259
:1050C000A0F804C08383028402B0BDE8F0037047F7
:1050D0004FF0FF33838000230380C380438003723B
:1050E0007047C04631B9038823F001039B059B0D2F
:1050F0000380704703889BB243F001030380F8E705
:105100002AB98389CA439BB213408381704783893C
:105110009BB241EA03038381F8E7C046038B23F087
:1051200008031B041B0C194301837047038B23F4F2
:1051300000631B041B0C43EA01239BB203837047EB
:10514000838B23F008031B041B0C194381837047D6
:10515000838B23F400631B041B0C43EA01239BB2E3
:1051600083837047818470478186704701877047C9
:1051700081877047A0F840107047C046808C80B28D
:105180007047C046038A828919420CBF0020012063
:1051900011420CBF002000F001007047C94389B2E2
:1051A0000182704742F60043C4F200035A6822F4B9
:1051B000C07210435860704742F60042C4F20002C9
:1051C000536800F07F0023F07F031843506070475E
:1051D00048F2A403C4F2052301221A607047C046B6
:1051E00042F6004300F07F00C4F2000318607047ED
:1051F00042F6004340F08000C4F20003186070479C
:1052000042F60043C4F2000300229A607047C04691
:1052100042684FF6FF6330B4CFF6F0730C681A4063
:105220000B79224342EA032242608568CC688A688F
:105230004FF2FD73CFF6F17322431D404B792A43A1
:1052400042EA430282600B7CC46A013B24F470048E
:10525000DBB244EA0354C46230BC704721B98368AE
:1052600023F0010383607047836843F00103836088
:10527000F9E7C04621B9836823F4807383607047DF
:10528000836843F480738360F9E7C046C9B222B9EA
:105290004268CB43134043607047436841EA0303CD
:1052A0004360F9E7836843F0080383607047C046B2
:1052B0008068C00800F001007047C046836843F072
:1052C000040383607047C0468068800800F00100D6
:1052D0007047C04621B9836823F4A00383607047F8
:1052E000836843F4A0038360F9E7C046092930B41A
:1052F000944604461D46084620D9420012181E3A1C
:105300000723934015FA02F2E168DB430B40134395
:10531000BCF1060FE3601FD9BCF10C0F2AD94FEA8C
:105320008C026244413A1F23934010FA02F2E16A70
:10533000DB430B401343E36230BC7047420012185A
:105340000723934015FA02F22169DB430B40134314
:10535000BCF1060F2361DFD84FEA8C026244053AA4
:105360001F23934010FA02F2616BDB430B4013439F
:105370006363E1E74FEA8C026244233A1F239340C0
:1053800010FA02F2216BDB430B4013432363D3E794
:1053900040B942F20042C4F20102936823F40003D0
:1053A0009360704742F20042C4F20102936843F4F2
:1053B00000039360F5E7C046090AC94301607047DE
:1053C00046F60043C4F20003C152704746F600435C
:1053D000C4F20003C05A80B27047C04646F600428D
:1053E000C4F20002938E9BB243F001039386704790
:1053F000000000000102030401020304060708097B
:1054000002040608427574746F6E546F67676C65AA
:105410005461736B00496E697444696D6D657256B1
:10542000616C75657300427574746F6E44696D6D5F
:1054300065725461736B004932433252656365692A
:1054400076655461736B005265667265736854616A
:10545000736B0053656E6455706461746554617359
:105460006B00537461727475705461736B004944BE
:045470004C450000A7
:1054740040000000000C0100020600008000000053
:10548400000C01000207000000010000000C0100F4
:105494000208000000020000000C010002090000E4
:1054A40000040000000C0100020A000000080000D3
:1054B400000C0100020B000040000000000C000082
:1054C4000206000080000000000C0000020700003B
:1054D40000010000000C00000208000000020000AF
:1054E400000C00000209000000040000000C000091
:1054F400020A000000080000000C0000020B00007B
:1055040002000300000801401000031000080140DD
:10551400200003100008014040000310000801406F
:1055240080000310000801404000031C000C0140EF
:105534008000031C000C01400004031C000C01400B
:105544000008031C000C014000100248000C01403C
:1055540000200248000C014000400248000C0140B9
:1055640000800248000C0140400002480010014045
:105574008000024800100140000102480010014070
:1055840000020248001001400004024800100140DB
:1055940000080248001001400100031000100140FF
:1055A4000200031000100140040003100010014029
:1055B4000800031000100140100003100010014007
:1055C40020000310001001400010031000100140DF
:1055D40001000001190000011C0000011D00000170
:1055E4001E0000012F01000120030001220300011D
:1055F4001F0300012103000112050001000A00013C
:10560400280C0001170C0001030E000115034603CA
:105614007503A203CD03F40319043B045904730472
:105624008A049D04AC04B604BD04BF04BD04B604DE
:10563400AC049D048A04730459043B041904F40360
:10564400CD03A20375034603150300009C0100204B
:0C5654002000000000100800AAAAAAAA6A
:0400000508000130BE
:00000001FF
