:020000040800F2
:10000000000001209D2E0008852400088924000896
:10001000A5240008A9240008AD2400080000000061
:100020000000000000000000000000000D38000883
:10003000B1240008000000007D380008F9380008ED
:100040008D2E00086D2E0008B5240008112E000822
:10005000B9240008BD240008C1240008C5240008F4
:10006000C9240008CD240008D1240008D5240008A4
:10007000D9240008DD240008E1240008E524000854
:10008000E9240008ED240008912D0008F12400085F
:10009000F5240008F9240008FD240008D5260008EE
:1000A00001250008712D0008052500080925000814
:1000B000892C0008A92B0008C52A0008152A000869
:1000C0002528000885280008C52700080D250008F8
:1000D0001125000815250008192500081D25000810
:1000E0004D2600082125000825250008292500089F
:1000F0002D25000831250008352500086925000850
:10010000392500083D25000841250008452500083F
:10011000492500084D2500085125000855250008EF
:10012000592500085D25000861250008652500089F
:100130002DE9F04F546812682DE9180031F9025B7F
:1001400031F9026B31F9027B31F902EB4FF0000813
:100150004FF000094FF0000A4FF0000B32F9023B5C
:1001600032F902CB043C05FB038831F9025B06FB44
:10017000039907FB03AA0EFB03BB32F9023B06FB04
:100180000C8831F9026B07FB0C990EFB0CAA05FBDE
:100190000CBB32F902CB07FB038831F9027B0EFB63
:1001A000039905FB03AA06FB03BB0EFB0C8831F980
:1001B00002EB05FB0C9906FB0CAA07FB0CBBCDDC84
:1001C00018BCA0E8000FA2EB4402A1EB4401043BE1
:1001D000B2DCBDE8F08F2DE9F04F0144A1F104013C
:1001E00001F1020251F8023942F802399042F9D184
:1001F000BDE8F08F70B414460F2C06460D4604D9A6
:1002000045EA060313F0030F0DD04AB14FF0000C7E
:1002100011F80C3000F80C300CF1010C9445F7D1BA
:10022000304670BC7047A4460B68ACF1100C0360FC
:100230004A6842608B688360CA681031C2601030BF
:10024000BCF10F0FF0D8A4F1100303F00F0223F05C
:100250000F031033EC18F118032A13D94FF0000CD8
:1002600054F80C3041F80C300CF1040CCCEB0203C8
:10027000032BF5D8131F03F0030223F00303043309
:10028000E418C91808462146BFE7C046032A844639
:1002900030B40446CDB231D910F0030F2FD145EA66
:1002A00005230F2A88BF944643EA034188BF2346AB
:1002B00012D9ACF1100C196059609960D9601033F3
:1002C000BCF10F0FF5D8103A22F00F0302F00F0225
:1002D0001033E018032A10D94FF0000C40F80C102E
:1002E0000CF1040CCCEB0203032BF7D8131F03F023
:1002F000030223F003030433C018844632B1E9B289
:1003000000230CF8031001339A42FAD1204630BC86
:100310007047C04630B4154641EA0002844612F0E8
:10032000030F14BF00230123032D94BF002303F008
:100330000103002B2DD0044608460168CB43A1F1F0
:100340000132134013F0803F05D1043D0430032DEA
:1003500044F8041BF1D822460446BDB12378114667
:10036000681E01F8013B53B1023278B114F8013F25
:100370001146013802F8013C0132002BF5D128B1B9
:1003800000231A46CA5401339842FBD1604630BC60
:10039000704702460C46E0E74FF6FF7321F000423B
:1003A000C7F6EF739A422DE9F04104460D460F4619
:1003B00018DD00294DDB40F2000122462B460020CB
:1003C000C3F6F07100F0DEFD40F200030022C3F638
:1003D000F07300F0FBFA044608460346204619462F
:1003E000BDE8F0814FF6FF73C4F235039A4209DD90
:1003F00040F200000024C3F6F070002FB8BF00F1F7
:100400000040EAE7B2F1725F36DB4FF6FF73C3F6E6
:10041000EF739A423EDD00F0CBFA02460B4600F045
:10042000D5FA00F055F800224FF0804300F0CEFAE4
:1004300002460B4600204FF0404100F0A3FD40F281
:1004400000030022C3F6F07300F0C0FA0446084629
:10045000D3E740F2000122462B460020C3F6F0719C
:1004600000F090FD40F200030022C3F6F07300F0AC
:10047000ABFA04460846B0E740F200030022C3F698
:10048000F07300F0A3FA22462B4600F051FC04461C
:100490000846A2E700F08CFA00224FF0404300F03B
:1004A00047FC00F015F800224FF0804301F10048AE
:1004B000064600F08BFA454602460B46304641465A
:1004C00000F060FD0446084697E7C04600000000C3
:1004D00046F679032DE9F04FC4F2430321F00044BE
:1004E00085B09C4282468B4601F0004620D942F6F8
:1004F0004163C4F286039C4240F2EB804FF6FF73E7
:10050000C7F6EF739C4240F2518121F07F430446CD
:1005100023F470030D46034340F00D82002E00F0DB
:10052000388140F2000B4FF0000ACBF6F07B30E14F
:1005300042F64263C3F6D6739C4200F248814FF6FE
:10054000FF73C3F68F439C4240F2A88100220392BE
:1005500040F200030022C3F6E0735046594600F013
:10056000E7FB04460D4622462B465046594600F00E
:10057000DFFBA1A3D3E9002306460F4600F0D8FB1A
:100580009FA3D3E9002300F021FA32463B4600F056
:10059000CFFB9DA3D3E9002300F016FA32463B4679
:1005A00000F0C6FB9AA3D3E9002300F00FFA32460D
:1005B0003B4600F0BDFB98A3D3E9002300F004FA0A
:1005C00032463B4600F0B4FB40F200030022C3F683
:1005D000F07300F0FBF922462B468046894600F076
:1005E000A7FB0B4640F200010246C4F208010020BE
:1005F00000F0EAF904460D464046494622462B469D
:1006000000F0E2F922462B4680468946504659467C
:1006100000F08EFB0B4640F200010246C4F21801C6
:10062000002000F0D1F902460B464046494600F052
:10063000A9FC32463B4600F07BFB024603980B4682
:10064000002800F096801046DDE9002300F0BCF998
:1006500052465B4600F06CFBDDE9002300F0B4F984
:1006600032463B4600F0B0F90F4603990646B1F119
:10067000FF3F00F02981039A012A00F0ED800398E2
:10068000431C392B00F237810399132940F35A8117
:10069000039A0020C2F57E730246073330461905DF
:1006A0000B46394600F092F902460B465046594631
:1006B00000F08AF940F200030022C3F6F07300F064
:1006C00085F9044603980D46A24601054B199B4641
:1006D0005FE0002E64D052A3D3E900235046594670
:1006E00000F074F90022002300F092FD00287FF44E
:1006F00018AF40F200070026CBF6E0774AA3D3E913
:1007000000235046594600F013FB32463B4600F0AA
:100710005DF900F0A5FD039000F0A4FA44A3D3E92D
:10072000002304460D4600F003FB52465B4600F0F2
:100730004DF941A3D3E90023804689462046294646
:1007400000F0F6FA06460F4632463B46404649461A
:1007500000F03AF982468B4652465B46404649468F
:1007600000F032F932463B4600F02EF9CDE90001A7
:10077000EEE65046594600F0DBFA32463B4600F0C2
:1007800023F902460B465046594600F01DF98246B1
:100790008B465046594605B0BDE8F08F002EA8D1D3
:1007A00040F200070026C3F6E077A7E724A3D3E9C9
:1007B000002300F04BFD00288BD023A1D1E90001DC
:1007C00002460B4600F0B4FA82468B46E1E74AF255
:1007D000B123C3F6F0739C42E0D8002E66D11CA36F
:1007E000D3E9002300F0F0F813A7D7E900678046AB
:1007F000894601200390A7E72DC3096EB7FD8ABE85
:100800003952E686CACFD03EB7DBAA9E19CE143F36
:100810008555FE19A0015A3FF41011111111A13F85
:1008200059F3F8C21F6EA501FE822B654715F73FED
:100830000000E0FE422EE6BF763C7935EF39EA3D16
:10084000EF39FAFE422E86409C7500883CE4377EE4
:100850000000E0FE422EE63F40F2000350465946BB
:100860000022CBF6D07300F0D3FC00287FD040F2FA
:100870000003504659460022C3F6E07300F0A6F884
:1008800002460B463046394600F09EF800224FF0F3
:10089000404300F04DFA82468B467AE73EA3D3E907
:1008A000002300F093F802460B4668E73CA3D3E927
:1008B000002300F08BF83CA7D7E900678946804603
:1008C0004FF0FF3103913FE75046594632463B46D1
:1008D00000F07AF840F200030022C3F6E07300F063
:1008E00027FA40F200030022C3F6E07300F06CF830
:1008F00082468B464DE752465B463046394600F00D
:1009000063F80B4640F200010246C3F6F071002086
:1009100000F05AF80022044603980D4601052046CF
:100920004B19194640F20003C3F6F07300F04CF87F
:1009300082468B462DE702460B4600F047F882467A
:100940008B4626E74FF400135246304600240B41F5
:100950003946C3F17E555B4600F036F805F5E005F3
:1009600002460B462046294600F02EF8A9E65046DE
:10097000594632463B4600F027F802460B4600F047
:1009800025F840F200030022C3F6F07300F01EF8D1
:1009900082468B46FDE6C0469C7500883CE4377E67
:1009A0000000E0FE422EE63F763C7935EF39EABDA5
:1009B00021F0004330B40D460446194630BC704760
:1009C00081F0004102E0C04683F0004330B54FEAB9
:1009D00041044FEA430594EA050F08BF90EA020F6D
:1009E0001FBF54EA000C55EA020C7FEA645C7FEA00
:1009F000655C00F0E2804FEA5454D4EB5555B8BF23
:100A00006D420CDD2C4480EA020281EA030382EA93
:100A1000000083EA010180EA020281EA0303362D25
:100A200088BF30BD11F0004F4FEA01314FF4801CF8
:100A30004CEA113102D0404261EB410113F0004F0A
:100A40004FEA03334CEA133302D0524263EB4303C1
:100A500094EA050F00F0A780A4F10104D5F1200E5F
:100A60000DDB02FA0EFC22FA05F2801841F10001BA
:100A700003FA0EF2801843FA05F359410EE0A5F18E
:100A800020050EF1200E012A03FA0EFC28BF4CF0BF
:100A9000020C43FA05F3C01851EBE37101F0004575
:100AA00007D54FF0000EDCF1000C7EEB00006EEB82
:100AB0000101B1F5801F1BD3B1F5001F0CD349080C
:100AC0005FEA30004FEA3C0C04F101044FEA445263
:100AD00012F5800F80F09A80BCF1004F08BF5FEAEA
:100AE000500C50F1000041EB045141EA050130BDCA
:100AF0005FEA4C0C404141EB010111F4801FA4F16D
:100B00000104E9D191F0000F04BF01460020B1FAC1
:100B100081F308BF2033A3F10B03B3F120020CDAF9
:100B20000C3208DD02F1140CC2F10C0201FA0CF0D7
:100B300021FA02F10CE002F11402D8BFC2F1200C3C
:100B400001FA02F120FA0CFCDCBF41EA0C019040F2
:100B5000E41AA2BF01EB0451294330BD6FEA04043B
:100B60001F3C1CDA0C340EDC04F11404C4F1200226
:100B700020FA04F001FA02F340EA030021FA04F338
:100B800045EA030130BDC4F10C04C4F1200220FA8F
:100B900002F001FA04F340EA0300294630BD21FACD
:100BA00004F0294630BD94F0000F83F4801306BF93
:100BB00081F480110134013D4EE77FEA645C18BF87
:100BC0007FEA655C29D094EA050F08BF90EA020F1E
:100BD00005D054EA000C04BF1946104630BD91EA16
:100BE000030F1EBF0021002030BD5FEA545C05D119
:100BF0004000494128BF41F0004130BD14F5800458
:100C00003CBF01F5801130BD01F0004545F0FE41CB
:100C100041F470014FF0000030BD7FEA645C1ABF00
:100C2000194610467FEA655C1CBF0B46024650EA37
:100C3000013406BF52EA033591EA030F41F4002163
:100C400030BDC04690F0000F04BF0021704730B5A2
:100C50004FF4806404F132044FF000054FF00001BE
:100C600050E7C04690F0000F04BF0021704730B538
:100C70004FF4806404F1320410F0004548BF404254
:100C80004FF000013EE7C04642004FEAE2014FEA62
:100C900031014FEA02701FBF12F07F4393F07F4F84
:100CA00081F06051704792F0000F14BF93F07F4FB6
:100CB000704730B54FF4607401F0004521F00041F9
:100CC00020E7C04650EA010208BF704730B54FF038
:100CD00000050AE050EA010208BF704730B511F084
:100CE000004502D5404261EB41014FF4806404F1BC
:100CF00032045FEA915C3FF4DCAE4FF003025FEA3E
:100D0000DC0C18BF03325FEADC0C18BF033202EBC5
:100D1000DC02C2F1200300FA03FC20FA02F001FA1F
:100D200003FE40EA0E0021FA02F11444C1E6C04677
:100D300070B54FF0FF0C4CF4E06C1CEA11541DBF71
:100D40001CEA135594EA0C0F95EA0C0F00F0DEF83C
:100D50002C4481EA030621EA4C5123EA4C5350EA21
:100D6000013518BF52EA033541F4801143F4801372
:100D700038D0A0FB02CE4FF00005E1FB02E506F003
:100D80000042E0FB03E54FF00006E1FB03569CF058
:100D9000000F18BF4EF0010EA4F1FF04B6F5007F5E
:100DA00064F5407404D25FEA4E0E6D4146EB0606D0
:100DB00042EAC62141EA55514FEAC52040EA5E5059
:100DC0004FEACE2EB4F1FD0C88BFBCF5E06F1ED803
:100DD000BEF1004F08BF5FEA500E50F1000041EB3A
:100DE000045170BD06F0004646EA010140EA0200E7
:100DF00081EA0301B4EB5C04C2BFD4EB0C0541EA09
:100E0000045170BD41F480114FF0000E013C00F31D
:100E1000AB8014F1360FDEBF002001F0004170BD41
:100E2000C4F10004203C35DA0C341BDC04F114045A
:100E3000C4F1200500FA05F320FA04F001FA05F2E6
:100E400040EA020001F0004221F0004110EBD370B3
:100E500021FA04F642EB06015EEA430E08BF20EADF
:100E6000D37070BDC4F10C04C4F1200500FA04F382
:100E700020FA05F001FA04F240EA020001F0004114
:100E800010EBD37041F100015EEA430E08BF20EA87
:100E9000D37070BDC4F1200500FA05F24EEA020ECF
:100EA00020FA04F301FA05F243EA020321FA04F0FE
:100EB00001F0004121FA04F220EA020000EBD370B5
:100EC0005EEA430E08BF20EAD37070BD94F0000FB5
:100ED0000FD101F00046400041EB010111F4801FE9
:100EE00008BF013CF7D041EA060195F0000F18BF9A
:100EF000704703F00046520043EB030313F4801FD6
:100F000008BF013DF7D043EA0603704794EA0C0F8F
:100F10000CEA135518BF95EA0C0F0CD050EA4106A5
:100F200018BF52EA4306D1D181EA030101F0004122
:100F30004FF0000070BD50EA410606BF104619464A
:100F400052EA430619D094EA0C0F02D150EA013656
:100F500013D195EA0C0F05D152EA03361CBF104697
:100F600019460AD181EA030101F0004141F0FE4136
:100F700041F470014FF0000070BD41F0FE4141F4BA
:100F8000780170BD70B54FF0FF0C4CF4E06C1CEABA
:100F900011541DBF1CEA135594EA0C0F95EA0C0F6F
:100FA00000F0A7F8A4EB050481EA030E52EA03352A
:100FB0004FEA013100F088804FEA03334FF080554B
:100FC00045EA131343EA12634FEA022245EA111578
:100FD00045EA10654FEA00260EF000419D4208BF29
:100FE000964244F1FD0404F5407402D25B084FEAD6
:100FF0003202B61A65EB03055B084FEA32024FF482
:1010000080104FF4002CB6EB020E75EB030E22BFDE
:10101000B61A754640EA0C005B084FEA3202B6EB9E
:10102000020E75EB030E22BFB61A754640EA5C004D
:101030005B084FEA3202B6EB020E75EB030E22BFDD
:10104000B61A754640EA9C005B084FEA3202B6EBDE
:10105000020E75EB030E22BFB61A754640EADC009D
:1010600055EA060E18D04FEA051545EA16754FEAFF
:1010700006164FEAC30343EA52734FEAC2025FEA1D
:101080001C1CC0D111F4801F0BD141EA00014FF0AC
:1010900000004FF0004CB6E711F4801F04BF01437D
:1010A0000020B4F1FD0C88BFBCF5E06F3FF6AFAE99
:1010B000B5EB030C04BFB6EB020C5FEA500C50F129
:1010C000000041EB045170BD0EF0004E4EEA1131AC
:1010D00014EB5C04C2BFD4EB0C0541EA045170BDB3
:1010E00041F480114FF0000E013C90E645EA060EF7
:1010F0008DE60CEA135594EA0C0F08BF95EA0C0F25
:101100003FF43BAF94EA0C0F0AD150EA01347FF46C
:1011100034AF95EA0C0F7FF425AF104619462CE743
:1011200095EA0C0F06D152EA03353FF4FDAE1046A6
:10113000194622E750EA410618BF52EA43067FF4F7
:10114000C5AE50EA41047FF40DAF52EA43057FF487
:10115000EBAE12E74FF0FF3C06E0C0464FF0010C4B
:1011600002E0C0464FF0010C4DF804CC4FEA410CB0
:101170007FEA6C5C4FEA430C18BF7FEA6C5C1AD0C4
:1011800050EA410C0CBF52EA430C91EA030F02BF34
:1011900090EA020F0020704710F1000F91EA030F50
:1011A00058BF994208BF90422CBFD8176FEAE3702E
:1011B00040F0010070474FEA410C7FEA6C5C02D1BD
:1011C00050EA013C07D14FEA430C7FEA6C5CD7D16F
:1011D00052EA033CD4D05DF8040C704784461046B4
:1011E00062468C461946634600E0C04601B5FFF7EB
:1011F000B9FF002848BF10F1000F01BD4DF808ED00
:10120000FFF7F4FF0CBF012000205DF808FBC0468B
:101210004DF808EDFFF7EAFF34BF012000205DF82C
:1012200008FBC0464DF808EDFFF7E0FF94BF012032
:1012300000205DF808FBC0464DF808EDFFF7CEFF33
:1012400094BF012000205DF808FBC0464DF808ED72
:10125000FFF7C4FF34BF012000205DF808FBC04643
:101260004FEA410212F5001215D211D56FF47873CE
:10127000B3EB625212D94FEAC12343F0004343EA71
:10128000505311F0004F23FA02F018BF404270474C
:101290004FF00000704750EA013005D111F00040D6
:1012A00008BF6FF0004070474FF000007047C04625
:1012B0004A0011D212F5001211D20DD56FF47873D5
:1012C000B3EB62520ED44FEAC12343F0004343EA2A
:1012D000505323FA02F070474FF00000704750EA75
:1012E000013002D14FF0FF3070474FF000007047DF
:1012F00010B504462146044804F03AF80348214654
:1013000004F036F810BDC04600240140003C014006
:1013100010B5104804F050F80E4804F053F80028B7
:10132000FAD10C4804F054F80A4804F057F80028A1
:10133000FAD1094804F040F8074804F043F80028BF
:10134000FAD1054804F044F8034804F047F80028AF
:10135000FAD110BD00240140003C01402DE970434A
:10136000214C86B00DF10409012500264FF46028B8
:101370002046494601968DF808508DF80960CDF851
:101380000C8004968DF8145003F0CCFF2A462046BA
:101390004FF4087104F004F8284604F083F82A4654
:1013A00003232046102104F5C05404F029F82046F8
:1013B000494601968DF808508DF80960CDF80C80EB
:1013C00004968DF8145003F0ADFF204629462A46B6
:1013D000334604F015F820464FF408712A4603F00E
:1013E000DFFF06B0BDE87083002401402DE9F04F17
:1013F0002A4D8DB004460F460320012103F096FCD0
:10140000284603F06BF80DF1040A254B01260294DF
:101410004FF4807B00244FF480694FF02008284669
:10142000514601930394049605940694CDF81CB09C
:10143000CDF82090CDF824800A940B9403F014F991
:101440002846314603F030F905F58A6531461548DE
:1014500003F09AFF284603F041F8134B2846019306
:1014600051464FF400530A9302970394049605944F
:101470000694CDF81CB0CDF82090CDF824800B94C4
:1014800003F0F2F82846314603F00EF907483146DA
:1014900003F07AFF0DB0BDE8F08FC04608000240AF
:1014A0004C240140002401404C3C0140003C0140E0
:1014B00037B5164C2078617803F0F2F954F8083CFF
:1014C0006846009314F8043C6D468DF8043014F817
:1014D000033C8DF8053014F8023C0C348DF80630CE
:1014E00003F0EEF80A4B9C42E4D14FF480330093B2
:1014F000A3F580338DF804300C338DF80530684641
:1015000001238DF8063003F0DBF83EBD0800002013
:1015100050000020014610B5014803F0ABF910BDA2
:10152000000C0140012110B548F21D2003F012FC0F
:101530004FF4C000012103F021FC10BD13B51A23A4
:101540000093002412E00B4802A900EBC402937838
:1015500030F834008DF80630D37821F8040D506847
:101560008DF8073003F01AF9631CDCB2009B9C4233
:10157000E9D31CBD9000002013B54FF0006000219E
:1015800002F0A2FF4FF4407002F056FF00240A4A16
:1015900001A8135D12198DF80430537804348DF8C6
:1015A000053093788DF80630D3788DF8073002F047
:1015B0004DFF382CEBD11CBD6001002010B503F0AD
:1015C00093FA4FF4803003F0B1FA03F0CBFA01281C
:1015D000044629D1102003F0D5F8022003F0C6F804
:1015E000002003F003FB002003F014FB4FF48060A5
:1015F00003F006FB4FF4004003F018FB4FF480307B
:101600004FF4E01103F0CEFA204603F0D7FA392068
:1016100003F0C8FB0028FAD0022003F0D5FA03F04B
:10162000DDFA0828FBD100E0FEE710BD064A074BB3
:101630001360074B5360074B9360074BD360074B16
:101640001361074B5361704758530020D1170008AE
:10165000AD17000889170008651700084117000832
:101660001D170008064A074B1360074B5360074BD2
:101670009360074BD360074B1361074B536170476F
:1016800074550020891800087918000865180008AA
:10169000511800083D1800082918000810B500214D
:1016A0004FF0804003F0E8FD0021044803F0E4FD22
:1016B0000348002103F0E0FD10BDC04600040040D7
:1016C00000080040C0F51C504FF47A73103070B51C
:1016D00090FBF3F00E4DFFF7C5FA002400220D4BEE
:1016E000FFF772F922462B46FFF722FBFEF754FE66
:1016F00022462B46FFF71CFB22462B46FFF766F9D6
:101700000022054BFFF714FBFFF7D2FD80B270BD3E
:101710000000E03F000008400000594070B504465A
:10172000FFF7D0FF054D064621462846A41903F0D1
:10173000A9FD2846A1B203F0A7FD70BD0008004036
:1017400070B50446FFF7BEFF054D06462146284604
:10175000A41903F093FD2846A1B203F091FD70BDDA
:101760000008004070B50446FFF7ACFF054D064683
:1017700021462846A41903F085FD2846A1B203F0AE
:1017800083FD70BD0004004070B50446FFF79AFF6A
:10179000054D064621462846A41903F06FFD28464C
:1017A000A1B203F06DFD70BD0004004070B50446A9
:1017B000FFF788FF054621464FF08040641903F08B
:1017C00061FD4FF08040A1B203F05EFD70BDC046E8
:1017D00070B50446FFF776FF054621464FF080407E
:1017E000641903F04BFD4FF08040A1B203F048FDB7
:1017F00070BDC04610B50121084803F0FDFC012171
:101800004FF0804003F0F8FC0121054803F0F4FCA0
:101810000448012103F0F0FC10BDC046002C01403B
:101820000004004000080040024610B5024818219C
:1018300003F0F0FC10BDC04600080040024610B5A1
:101840000248062103F0E6FC10BDC0460008004037
:10185000024610B50248182103F0DCFC10BDC0465A
:1018600000040040024610B50248062103F0D2FCF5
:1018700010BDC04600040040024610B54FF0804045
:10188000182103F0C7FC10BD024610B54FF0804090
:10189000062103F0BFFC10BD2DE97041134C85B04B
:1018A0004FF0200305460126ADF8060069462046A4
:1018B000ADF80030ADF8026003F0E4FB08212046EB
:1018C00003F0C8FC2846ADF80260FFF7FBFE4019A4
:1018D000ADF806006946204603F034FC2046082196
:1018E000E84603F0BFFC05B0BDE870810008004089
:1018F0002DE97041134C85B04FF0200305460126B9
:10190000ADF8060069462046ADF80030ADF802603B
:1019100003F0B8FB0821204603F09CFC2846ADF8F4
:101920000260FFF7CFFE4019ADF806006946204679
:1019300003F008FC20460821E84603F093FC05B0BC
:10194000BDE87081000400407FB54FF020030446DD
:101950000125ADF8060069464FF08040ADF8003033
:10196000ADF8025003F08EFB08214FF0804003F0E9
:1019700071FC2046ADF80250FFF7A4FE0019ADF847
:10198000060069464FF0804003F0DCFB4FF08040DA
:1019900008216E4603F066FC7FBDC0462DE970410C
:1019A000134C85B04FF0200305460126ADF8060024
:1019B00069462046ADF80030ADF8026003F0A2FAA7
:1019C0000821204603F034FC2846ADF80260FFF7FA
:1019D00079FE4019ADF806006946204603F0F0FA9A
:1019E00020460821E84603F02BFC05B0BDE87081D5
:1019F000000800402DE97041134C85B04FF02003E2
:101A000005460126ADF8060069462046ADF80030CF
:101A1000ADF8026003F076FA0821204603F008FCD6
:101A20002846ADF80260FFF74DFE4019ADF80600FC
:101A30006946204603F0C4FA20460821E84603F030
:101A4000FFFB05B0BDE87081000400407FB54FF09A
:101A5000200304460125ADF8060069464FF080409A
:101A6000ADF80030ADF8025003F04CFA08214FF009
:101A7000804003F0DDFB2046ADF80250FFF722FE68
:101A80000019ADF8060069464FF0804003F098FA5F
:101A90004FF0804008216E4603F0D2FB7FBDC04668
:101AA00030B585B00DF106050446284603F09AFBD3
:101AB0004FF04803ADF80630064800232946ADF83C
:101AC0000A40ADF80C30ADF8083003F0EDF905B080
:101AD00030BDC0460008004030B585B00DF10605A8
:101AE0000446284603F07EFB4FF04803ADF806306D
:101AF000064800232946ADF80A40ADF80C30ADF891
:101B0000083003F0D1F905B030BDC04600040040F4
:101B100030B585B00DF106050446284603F062FB9A
:101B20004FF04803ADF806304FF0804000232946BF
:101B3000ADF80A40ADF80C30ADF8083003F0B4F958
:101B400005B030BD30B585B00DF106050446284618
:101B500003F048FB4FF04803ADF806300648002379
:101B60002946ADF80A40ADF80C30ADF8083003F066
:101B70009BF905B030BDC046002C014010B50420D3
:101B8000012103F0FBF810BD10B50220012103F084
:101B9000F5F810BD012010B5014603F0EFF810BDB7
:101BA00010B54FF40060012103F0D4F810BDC04619
:101BB00010B501214FF4006003F0E0F84FF4C0705D
:101BC00003F07AFB412003F081FB7F2003F09AFBB6
:101BD00003F0A0FB03F086FB10BDC04670B543695F
:101BE000054608460C469847142002F0BFFA2C80A0
:101BF00070BDC04630B589B0002002F08FFA01F008
:101C0000F9FC404B00214FF0FF3218680B4601F001
:101C1000CBFE4FF480513C4802F032FEC0F101028D
:101C20004FF480513848D2B202F034FE01F044FA49
:101C3000364D2C46608901A901F018FCBDF804005E
:101C400063699847BDF80400B0B9A369984701E0FB
:101C500001F0F4FD2E4BB3F900102E4BB3F9002028
:101C600002F108039942F3DCA2F108039942EFDB89
:101C70002548218901221AE042F210739842A36993
:101C800018D10020984701E001F0D8FD204BB3F9AE
:101C90000010204BB3F9002002F108039942F3DC55
:101CA000A2F108039942EFDB17482189002202F0D4
:101CB000F1FD01E001209847174B1C349C42B9D13B
:101CC000142002F053FA688929461C3501F0CEFB36
:101CD000A542F8D14FF480510B4802F0D1FDC0F17C
:101CE00001024FF480510848D2B202F0D3FD054BF7
:101CF00000210A4618680B4601F032FF01F082FC11
:101D00007AE7C04630540020001001408453002080
:101D10008C550020200200202C54002070B58369CF
:101D200005460020984700214FF0FF320B462869F6
:101D300001F03AFE282002F019FA2C7B7CB91848F1
:101D4000698902F097FD18BB2C891548214602F0DD
:101D500097FDC0F1010221461148D2B209E0012CE1
:101D600016D10F48698902F085FD28B90C482989E8
:101D7000224602F08FFD0BE00948698902F07AFDE6
:101D8000012805D1064829890022F2E701F056FD15
:101D90000348698902F06EFD0028C4D1F6E7C04609
:101DA000001001402DE9F04106464FF001080021E6
:101DB0000B464FF0FF32306901F0F6FD282002F0AB
:101DC000D5F9337B3488002B40F0C3806D4871898E
:101DD00002F050FD0028EAD10546642002F0C6F961
:101DE0006848718902F046FD18B96B1CDDB20A2DF6
:101DF000F3D16448718902F03DFD0746002850D1B7
:101E00000A2D4ED101F0F6FB5F4BB4201988013149
:101E100089B2198003F05EFB01F0F4FB42F210730B
:101E20009C4208D10120B3699847564831893A4607
:101E300002F030FD2DE0002C2BD1B3690120984732
:101E400027E0642002F092F942F210739C4201D123
:101E500074881AE0B3880CB91C4616E0A34201D37B
:101E6000F3880FE07388A34205D8F3884FF0010888
:101E7000E31A9CB209E0B8F1010FF38802D1E31A2A
:101E80009CB202E0E3189CB2A84630462146FFF718
:101E9000A5FE3C48718902F0EDFC05460028D0D033
:101EA00085E701F0A7FB394BB0201988013189B2D1
:101EB000198003F00FFB01F0A5FB42F210739C4266
:101EC00017D101E001F0BAFC314BB3F90010314BEE
:101ED000B3F9002002F108039942F3DCA2F10803F0
:101EE0009942EFDB31892748012202F0D3FC00211F
:101EF0002DE014B110E001F0A1FC254BB3F9001066
:101F0000244BB3F9002002F108039942F3DCA2F15B
:101F100008039942EFDB13E0B3690020984701E022
:101F200001F08CFC1A4BB3F900101A4BB3F90020E6
:101F300002F108039942F3DCA2F108039942EFDBB6
:101F400031891048002202F0A5FC42F2107130469F
:101F500014E0012B7FF42BAF0A48718902F08AFC50
:101F600010B93046B18809E00648718902F082FC58
:101F700001287FF41CAF304642F21071FFF72EFEAD
:101F800015E7C04600100140365400201C550020C3
:101F90008C5500202002002010B5424B00214FF04C
:101FA000FF3218680B4601F0FFFC4FF480513E48A9
:101FB00002F066FCC0F10102D2B23B484FF48051FE
:101FC00002F068FC394A138801339BB2B3F5616FA4
:101FD00013800ED14FF00003138001F00BFB344B44
:101FE000B8201988013189B2198003F073FA01F021
:101FF00009FB304B002118684FF0FF320B4601F00F
:10200000D3FC00202C4B41F63E72195A1C18A1F546
:102010007A73013B9BB2934205D942F21073994205
:1020200001D001B123801C30A828EBD1224C012122
:10203000224803F0D9F901F0DDFA0420218803F0E9
:1020400049FA1C20A18B03F045FA4820218F03F0A8
:1020500041FA6020B4F8541003F03CFA7820B4F848
:10206000701003F037FA9020B4F88C1003F032FAB5
:1020700001F06AF901F0C6FA0E4B00210A46186811
:102080000B4601F06DFD4FF48051074802F0F8FB5C
:10209000C0F101024FF480510348D2B202F0FAFBC2
:1020A0007BE7C046D855002000100140E801002021
:1020B0003454002030540020845300200024014078
:1020C00010B5074A13783BB100231370054A1380FB
:1020D000054B186801F0F4FF0A2002F047F8F0E71A
:1020E0002C020020280200205053002010B5044686
:1020F0000088B0B9A369984701E001F09FFB1E4B2F
:10210000B3F900101D4BB3F9002002F10803994206
:10211000F3DCA2F108039942EFDB1948218901227F
:102120001AE042F21073984219D1A369002098472F
:1021300001E001F083FB104BB3F900100F4BB3F932
:10214000002002F108039942F3DCA2F1080399424E
:10215000EFDB0B482189002202F09CFB08E063883A
:10216000834205D3A388834202D8A36901209847FC
:10217000002002F021F810BD8C5500202002002024
:102180000010014073B5FFF751FAFFF76BFA954E57
:10219000002435460120002101F074FD924B1851B6
:1021A00020B100210A460B4601F0DAFC8F4B1B5987
:1021B0006B618F4B1B59AB618B4B1B5904342B61EB
:1021C0001C35182CE6D10120002101F05BFD894B64
:1021D000186020B100210A460B4601F0C1FC01F055
:1021E0002DFD854B7F4C1860FFF7E8F9FFF79AF952
:1021F000FFF7A4F9FFF7C0F9FFF75AF901F00AFA5F
:1022000000F084FE7D497E48FFF7F0F8FFF7A6F85E
:102210000120FFF76DF8FFF77BF801F007FA01F0F6
:10222000C3F901F091F800F03BFF4020214601F096
:102230001DF9802004F11C0101F018F904F13801A6
:102240004FF4807001F012F904F154014FF4007062
:1022500001F00CF904F170014FF4806001F006F90F
:1022600004F18C014FF4006001F000F901F08AF8EC
:10227000FFF796FCFFF78EFCFFF786FCFFF77EFC6E
:102280001820FFF75FFC42F20F70FFF741FC42F2AB
:102290000F70FFF721FC42F20F70FFF701FC20885E
:1022A000FFF7D4FBA08BFFF74FFB208FFFF7A2FBBC
:1022B000B4F85400FFF71CFBB4F87000FFF76EFB96
:1022C000B4F88C00FFF7E8FA01214E480A4602F004
:1022D000A1FFFFF78FFA01E001F0B0FA4A4B1A882C
:1022E00044F61F639A42F7D94FF48050FFF712F972
:1022F00048B1464BB3F90030B3F5006F03DB444BF4
:102300001B78012B13D10024374B1B5953B10223E7
:102310000093404B40481B190193404980223346AB
:1023200001F0B4FF04341C36182CEDD13FE000243A
:102330002D4B1B59A3B1032300930023019338496C
:1023400080223346374801F0A1FF02230093314B2E
:1023500035481B19019335498022334601F096FF19
:1023600004341C36182CE3D1314B0124019331483D
:10237000002331498022009401F088FF1D4B1B6827
:1023800043B12E4B2E4801932E4980220023009406
:1023900001F07CFF184B1B684BB1012300932A4BC3
:1023A0002A4801932A498022002301F06FFF184D2B
:1023B0002C78012C0FD1274BAC201988013189B220
:1023C000198003F087F800232B7023484FF48051C5
:1023D000224602F05FFA01F015F9002001F0ECFE50
:1023E0007CBDC046845300205C540020585300201C
:1023F00074550020D855002030540020505400203F
:102400002C540020002C0140220200202002002039
:102410002D020020385400201D1D0008185500080A
:1024200029550008ED200008A51D00083A550008B0
:1024300054540020C12000084B550008545300207C
:10244000991F00085B55000850530020F51B000839
:10245000675500082E0200200010014007B5012337
:102460000649802200930648013B019301F00EFFCC
:10247000FFF79EFB01F0C0FFFEE7C046765500085F
:10248000852100087047C046034B1A68034B02EAD7
:102490000303034A1360F7E72CED00E0020000C0DD
:1024A000F0010020FEE7C046FEE7C046FEE7C0465A
:1024B0007047C0467047C0467047C0467047C04628
:1024C0007047C0467047C0467047C0467047C04618
:1024D0007047C0467047C0467047C0467047C04608
:1024E0007047C0467047C0467047C0467047C046F8
:1024F0007047C0467047C0467047C0467047C046E8
:102500007047C0467047C0467047C0467047C046D7
:102510007047C0467047C0467047C0467047C046C7
:102520007047C0467047C0467047C0467047C046B7
:102530007047C0467047C0467047C0467047C046A7
:102540007047C0467047C0467047C0467047C04697
:102550007047C0467047C0467047C0467047C04687
:102560007047C0467047C04610B52E484FF40871FA
:1025700002F0ACFF2C4B2D491B882D4C0B802046C4
:1025800004232C4AFDF7D4FD23684FF08040DB1371
:10259000236002F07DFE41F28833984202D9264B37
:1025A00001221A71224B1968244BB3F9002002F161
:1025B000080399420BDAA2F10803994207DD1E4B8A
:1025C0001B790BB1FFF76AF81B4B00221A71174CED
:1025D00044212046FDF7FFFD194A11884B1C13804A
:1025E00049F6404399421BD816492088B1F900208A
:1025F00003B29A42B8BF0880134903B2B1F9002070
:102600009A42114BC8BF088019880E4B0AB2B3F921
:1026100000309B1A022293FBF2F3084A5B181380E6
:1026200010BDC046003C0140505400208C55002095
:1026300070530020D8010020F0010020200200206B
:10264000220200201E020020E001002070B51E4D75
:1026500000244FF48060AC6002F072F8B8B101F071
:102660009BFB012807D1194B2146186905F1080287
:10267000234601F04BFA144CA368012B03D101F05F
:10268000DDF80023A3604FF4806002F069F84FF496
:10269000006002F055F8B0B101F07EFB012806D1D0
:1026A0000A4B002158690A4A0B4601F02FFA064CE2
:1026B000A368012B03D101F0C1F80023A3604FF4FC
:1026C000006002F04DF870BDF00100205C54002065
:1026D000F801002070B5384D00244020EC6002F075
:1026E0002FF8B0B101F058FB012807D1334B214638
:1026F000186805F10C02234601F008FA2E4CE36835
:10270000012B03D101F09AF80023E360402002F08E
:1027100027F8802002F014F8A8B101F03DFB012851
:1027200006D1264B00215868254A0B4601F0EEF9E8
:10273000214CE368012B03D101F080F80023E36012
:10274000802002F00DF84FF4807001F0F9FFB0B175
:1027500001F022FB012806D1184B00219868184A85
:102760000B4601F0D3F9144CE368012B03D101F0BF
:1027700065F80023E3604FF4807001F0F1FF4FF43F
:10278000007001F0DDFFB0B101F006FB012806D1B9
:102790000A4B0021D8680A4A0B4601F0B7F9064CEB
:1027A000E368012B03D101F049F80023E3604FF403
:1027B000007001F0D5FF70BDF00100205C540020D6
:1027C000FC01002010B51248124902F0E5F818B1DA
:1027D0000F48104902F0F0F80D480F4902F0DCF8FC
:1027E00018B10B480C4902F0E7F809480B4902F010
:1027F000D3F818B10648094902F0DEF80448084940
:1028000002F0CAF818B10248054902F0D5F810BD27
:102810000058004000040001000100010002000116
:102820000008000110B51248124902F0B5F818B1BD
:102830000F48104902F0C0F80D480F4902F0ACF8FB
:1028400018B10B480C4902F0B7F809480B4902F0DF
:10285000A3F818B10648094902F0AEF8044808493F
:1028600002F09AF818B10248054902F0A5F810BD27
:1028700000540040000400010001000100020001BA
:102880000008000170B5564802F078F8554B186101
:10289000554B98422CD015D8B0F5806F00F09B8036
:1028A00005D8102876D0502840F0998072E04F4B20
:1028B000984263D00433984260D0B0F1021F40F0D8
:1028C0008E8050E04A4B984221D007D8423B984234
:1028D00018D03E33984240F0828018E0454B984231
:1028E00029D0023398422DD0043B984277D129E079
:1028F00001213B4802F00AF839483021012202F058
:1029000027F86CE03C4B4FF000021A8067E03A4D2C
:102910002C88532C06D8324802F016F8374B18553D
:10292000631C2B80344B1B88532B58D12C4800211F
:1029300001F0ECFF12E0324B4FF001021978314BFD
:102940001A8007E02F480288532A07D82C4B995C3D
:10295000531C0380224801F0F5FF40E0204801218C
:1029600001F0C6FF3BE0244B4FF000021A801C48E8
:102970004FF48061012201F0D7FF30E01E4D2C881A
:10298000532C2CD8164801F0DFFF1C4B1855631C44
:102990002B8024E0184D002211484FF4806101F093
:1029A000C3FF2C88532C06D80D4801F0CDFF134BE4
:1029B0001855631C2B801449094801F0EDFF0121D3
:1029C000074801F087FF0C4B1B88542B07D10F4B96
:1029D00001221A7003E002480D4901F0D9FF70BDD1
:1029E00000580040F00100200100030040000200F8
:1029F000440003008200070028020020C854002081
:102A00001E5500202A020020100000022C02002087
:102A10000004000110B5234801F0B0FF224B5861BB
:102A2000224B98421DD005D810282BD0B0F5806FCE
:102A300036D122E01E4B984203D0023398422FD168
:102A40000FE01C4C4FF000034FF480610122154849
:102A5000238001F069FF2388174AD15C013323806A
:102A600007E014480288532A1AD8134B995C531C68
:102A700003800C4801F066FF12E00A480F4901F09C
:102A800087FF0DE007484FF48061002201F04CFF02
:102A90000B49044801F080FF0248012101F01AFFB0
:102AA00010BDC04600540040F00100208000060028
:102AB000820006002A0200201E55002000040001AA
:102AC0001000000210B53448022102F0E5FB90B17D
:102AD0000221314802F0ECFB304BB3F8702042F297
:102AE00010739A4256D0002A54D02D48102101F07C
:102AF000CDFE012219E02848042102F0CDFBB8B137
:102B00000421254802F0D4FB244BB3F8702042F294
:102B100010739A4200D01AB9224B1B7E002B39D079
:102B20001F48102101F0B4FE00221E4B1A7631E03E
:102B30001948082102F0B0FB88B10821164802F0BC
:102B4000B7FB164BB3F88C2042F210739A4221D097
:102B500002B31348202101F099FE012218E00E482B
:102B6000102102F099FBA8B110210B4802F0A0FB44
:102B70000A4BB3F88C2042F210739A4200D012B97B
:102B8000084B5B7E33B10648202101F081FE002214
:102B9000044B5A7610BDC046000800408453002004
:102BA00000100140F001002010B53348022102F06E
:102BB00073FB88B10221304802F07AFB2F4B1A8F49
:102BC00042F210739A4255D0002A53D02C48042167
:102BD00001F05CFE012218E02748042102F05CFBB2
:102BE000B0B10421244802F063FB244B1A8F42F257
:102BF00010739A4200D01AB9224B9B7E002B39D019
:102C00001F48042101F044FE00221E4B9A7631E059
:102C10001948082102F040FB88B10821164802F04B
:102C200047FB164BB3F8542042F210739A4221D05E
:102C300002B31348082101F029FE012218E00E48D2
:102C4000102102F029FBA8B110210B4802F030FB43
:102C50000A4BB3F8542042F210739A4200D012B9D2
:102C6000084BDB7E33B10648082101F011FE00223B
:102C7000044BDA7610BDC0460004004084530020A7
:102C800000100140F001002010B54FF080400221FB
:102C900002F002FB90B102214FF0804002F008FBED
:102CA000304B1A8842F210739A4259D0002A57D0FA
:102CB0002D48012101F0EAFD01221AE04FF0804089
:102CC000042102F0E9FAB8B104214FF0804002F08B
:102CD000EFFA244B1A8842F210739A4200D01AB9C4
:102CE000224B1B7F002B3BD01F48012101F0D0FD60
:102CF00000221E4B1A7733E04FF08040082102F08B
:102D0000CBFA88B108214FF0804002F0D1FA154B80
:102D10009A8B42F210739A4222D00AB312480221CF
:102D200001F0B4FD012219E04FF08040102102F0C3
:102D3000B3FAA8B110214FF0804002F0B9FA094B64
:102D40009A8B42F210739A4200D012B9074B5B7F04
:102D500033B10548022101F09BFD0022034B5A7755
:102D600010BDC0468453002000100140F001002037
:102D7000012110B5034802F09BFA0348012102F03B
:102D800033FB10BD002C0140003C0140000000005E
:102D900010B51B484FF4087102F098FB194B1888C6
:102DA000FDF760FF10A3D3E90023FDF7C1FF10A3D7
:102DB000D3E90023FDF70AFE0FA3D3E90023FEF7B2
:102DC000E1F80022104BFDF701FEFEF771FA84B224
:102DD00000F010FCA820214602F07CFB00F012FC61
:102DE00010BDC046C046C0466666666666664ABF97
:102DF000E17A14AE47E1F63F22FDF675E09C713FA3
:102E0000002401402C54002000003940C046C04638
:102E100070B5144C00250120256202F027F800B39C
:102E2000636A4FF4805001336362FEF773FBA8B10D
:102E300000F0B2FF012807D10B4B2946186804F1B6
:102E400020022B4600F062FE012002F023F8054B21
:102E50001B6A012B05D100F0F1FC02E0012002F019
:102E600019F870BDF0010020D855002010B50420DD
:102E700001F026FE28B1042001F02CFE014A024B8D
:102E80001A6010BD0400FA050CED00E010B57F20BB
:102E900002F030FA02F03EFA10BDC046684620F05B
:102EA00007018D4601B5002103E0114B5B584350EB
:102EB00004311048104B42189A42F6D30F4A02E0F0
:102EC000002342F8043B0E4B9A42F9D30D4A136893
:102ED00013F0804F05D043F0807313600A4B01223A
:102EE0001A70FFF7BBFABDE8014085467047C0463F
:102EF0008855000800000020E8010020E8010020BB
:102F0000DC550020241002402D0200201FB54FF494
:102F10000040FEF7FFFA0446002840F0B680012189
:102F20005A4801F0D7FC0121594801F0D3FC4FF475
:102F300080634BF6FF72ADF80630564BADF80220B9
:102F40004FF480404FF48042ADF80040ADF80820C7
:102F50000393FEF7DFFA012808D14FF40050FEF783
:102F6000D9FA012802D14FF010031AE04FF4804043
:102F7000FEF7D0FA012807D14FF40050FEF7CAFA45
:102F800010B94FF030021BE04FF48040FEF7C2FA58
:102F900050B900F50050FEF7BDFA012804D14FF0FA
:102FA0005003ADF804300DE04FF48040FEF7B2FA64
:102FB00040B900F50050FEF7ADFA18B94FF07002B5
:102FC000ADF80420344BBDF8042030481A8069461F
:102FD00001F0F6FC4FF480434FF48040ADF8083028
:102FE000FEF798FA012808D14FF40050FEF792FA44
:102FF000012802D14FF020021AE04FF48040FEF782
:1030000089FA012807D14FF40050FEF783FA10B96E
:103010004FF040031BE04FF48040FEF77BFA50B9BD
:1030200000F50050FEF776FA012804D14FF0600257
:10303000ADF804200DE04FF48040FEF76BFA40B984
:1030400000F50050FEF766FA18B94FF08003ADF8AE
:103050000430124BBDF804200D481A80694601F077
:10306000AFFC0A48012101F07BFC0948012101F075
:1030700077FC06484FF4E061012201F055FC04485A
:103080004FF4E061012201F04FFC1FBD00540040ED
:1030900000580040A08601004A53002048530020F9
:1030A00010B5034954220348FDF7A4F810BDC046EB
:1030B0001E550020C85400203B4970B53B4854229F
:1030C000FDF798F83A4931F8082CB2F57A7F07D91C
:1030D00042F227339A4205D942F210739A4201D044
:1030E000002A3AD131F8063CB3F57A7F35D942F25D
:1030F0002732934231D831F8043CB3F57A7F2CD98A
:1031000093422AD831F8023CB3F57A7F25D24B8816
:10311000402B0DD0802B0BD0B3F5807F08D0B3F5BA
:10312000007F05D0B3F5806F02D0B3F5006F14D1E6
:103130000B88012B09D0022B07D0042B05D0082BBC
:1031400003D0102B01D0202B07D11A4B0C31994200
:10315000B9D1194A0123137002E0174B00221A70EB
:10316000154B1B78012B1DD10F4D04246B7829784A
:10317000204601EB032189B202F0ACF9231D9CB279
:1031800002352C2CF2D1084D14346B7D297D20465C
:1031900001EB032189B202F09DF9231D9CB2023597
:1031A000C02CF2D170BDC046C85400207454002019
:1031B0007C540020C45400201802002010B5A82020
:1031C000002102F087F9AC20002102F083F9B02041
:1031D000002102F07FF9B420002102F07BF9B82031
:1031E000002102F077F9BC20002102F073F910BD34
:1031F000402810B5044618D1042042F2107102F0A4
:1032000069F9082042F2341102F064F90C2040F60A
:10321000C41102F05FF91020642102F05BF9142060
:10322000012102F057F9182089E0802818D11C20CC
:1032300042F2107102F04EF9202042F2341102F0F5
:1032400049F9242040F6C41102F044F928206421F1
:1032500002F040F94020022102F03CF944206EE0E7
:10326000B0F5807F18D1482042F2107102F032F997
:103270004C2042F2341102F02DF9502040F6C411D6
:1032800002F028F95420642102F024F95820042186
:1032900002F020F95C2052E0B0F5007F18D16020E8
:1032A00042F2107102F016F9642042F2341102F079
:1032B00011F9682040F6C41102F00CF96C20642169
:1032C00002F008F97020082102F004F9742036E0B9
:1032D000B0F5806F18D1782042F2107102F0FAF840
:1032E0007C2042F2341102F0F5F8802040F6C4113F
:1032F00002F0F0F88420642102F0ECF8882010211C
:1033000002F0E8F88C201AE0B0F5006F1AD1902096
:1033100042F2107102F0DEF8942042F2341102F011
:10332000D9F8982040F6C41102F0D4F89C2064210A
:1033300002F0D0F8A020202102F0CCF8A4202146F1
:1033400002F0C8F810BDC04670B50D4D04242046EB
:1033500002F0C6F8231D28709CB2000A687002357E
:103360002C2CF4D1064D1434204602F0B9F8231D5C
:1033700028759CB2000A68750235C02CF4D170BD66
:103380001E55002010B5A82002F0AAF80D4B188099
:10339000AC2002F0A5F80C4B1880B02002F0A0F889
:1033A0000A4B1880B42002F09BF8094B1880B82013
:1033B00002F096F8074B1880BC2002F091F8064BFB
:1033C000186010BD2C5400202E0200201C55002037
:1033D00036540020345400202402002013B5044643
:1033E000BC2002F07DF8204B402C1860019304D1E2
:1033F000019B5B0143F008532FE0802C06D1019B19
:103400005B0143F0085343F0040326E0B4F5807FEA
:1034100006D1019B5B0143F0085343F008031CE015
:10342000B4F5007F06D1019B5B0143F0085343F0E4
:103430000C0312E0B4F5806F06D1019B5B0143F0F1
:10344000085343F0100308E0B4F5006F0BD1019B63
:103450005B0143F0085343F014031B68012B14BFB6
:1034600000200120FFE71CBD24020020402870B589
:1034700005460C4615D1042002F032F820800820C1
:1034800002F02EF860800C2002F02AF8A0801020B4
:1034900002F026F8E080142002F022F820811820A3
:1034A0007AE0802815D11C2002F01AF82080202014
:1034B00002F016F86080242002F012F8A080282084
:1034C00002F00EF8E080402002F00AF8208144204B
:1034D00062E0B0F5807F15D1482002F001F820802D
:1034E0004C2001F0FDFF6080502001F0F9FFA0802A
:1034F000542001F0F5FFE080582001F0F1FF208119
:103500005C2049E0B0F5007F15D1602001F0E8FFB4
:103510002080642001F0E4FF6080682001F0E0FF7B
:10352000A0806C2001F0DCFFE080702001F0D8FF6B
:103530002081742030E0B0F5806F15D1782001F043
:10354000CFFF20807C2001F0CBFF6080802001F045
:10355000C7FFA080842001F0C3FFE080882001F035
:10356000BFFF20818C2017E0B0F5006F1BD19020A9
:1035700001F0B6FF2080942001F0B2FF6080982017
:1035800001F0AEFFA0809C2001F0AAFFE080A02007
:1035900001F0A6FF2081A42001F0A2FF608128464F
:1035A000FFF71CFF207370BD10B54FF48050FDF77E
:1035B000B1FF18B10E4B1B78012B17D14020FFF73C
:1035C00017FE8020FFF714FE4FF48070FFF710FE07
:1035D0004FF40070FFF70CFE4FF48060FFF708FE19
:1035E0004FF40060FFF704FEFFF7E8FD10BDC04692
:1035F0002D02002010B5012001F05CFA01F078FFE7
:1036000010BDC04610B5002001F054FA01F070FF63
:1036100010BDC04610B501214FF0C05001F0AEFB07
:10362000012001F047FA01F063FF10BD10B54FF023
:10363000C050012101F0A2FB012001F03BFA012062
:1036400001F0FEFA412001F0ADFB0028FAD04FF462
:10365000807001F005FB012001F00AFB01F0F6FB90
:1036600001F0EAFB0120014601F0BAFB01F0E4FBA6
:1036700047F6FF7001F0CAFB01F0DEFB10BDC0464B
:1036800070B5044688B1A0F1080500F041FB54F87C
:10369000040C064A136811461A465B688342F9D344
:1036A00044F8082C0D6000F0B1FC70BD3002002021
:1036B00070B5274D044600F02BFBA86880B9254B58
:1036C0004FF4A042C3F8342CC3F8300C03F5436325
:1036D00005F110012B610123686029604A60AB602D
:1036E00034B1083414F0030F1CBF24F003031C1D75
:1036F000621E44F6FE739A4225D8154B1A68184686
:103700005368A34205D21368114613B11A460846FE
:10371000F6E7114B9A4216D0036803F108051368C7
:10372000036053681B1B102B0ED911194B6054609A
:103730004C68074A136810461A465B68A342F9D3DF
:103740000A60016000E0002500F060FC284670BDC2
:103750003002002010460020405200204FF0FF337E
:10376000836000F108020133C260426002610360BD
:103770007047C046002303617047C0464268086135
:1037800053688A604B605368996051600368416078
:10379000013303607047C04610B50C68B4F1FF3FB9
:1037A00001D1026907E000F1080200E052685368A5
:1037B0001B68A342FAD95368086199604B60516055
:1037C00003688A600133036010BDC04643688268A5
:1037D0009A60816802694B605368834208BF5160F8
:1037E000002303611368013B1360704710B54FF06D
:1037F0008073044644F8043903F17F4340F8041C05
:1038000044F8043C40F81C2C3C3810BD064B1968A9
:103810000868B0E8F00F80F309884FF0000080F3EB
:1038200011884EF00D0E7047E452002002480068E7
:10383000006880F3088800DF08ED00E0024B4FF0DD
:1038400080521A607047C04604ED00E04FF0BF00A0
:1038500080F31188024A1368013313607047C04631
:10386000E4010020044A1368013B13601BB94FF0C8
:10387000000080F311887047E4010020EFF3098015
:103880000C4B1A6820E9F00F10602DE908404FF04A
:10389000BF0080F3118800F043FA4FF0000080F37E
:1038A0001188BDE8084019680868B0E8F00F80F397
:1038B00009887047E45200200B4A10B513680024B1
:1038C00043F47F031360136843F07F431360074A98
:1038D000074B1A600722043B1A60064B1C60FFF777
:1038E000A5FF204610BDC04620ED00E03F190100B5
:1038F00014E000E0E4010020074B4FF0805210B5C7
:103900001A604FF0BF0080F3118800F0D7FA4FF033
:10391000000080F3118810BD04ED00E010B50446EE
:103920000846216859B1E368226C9B186268E3601D
:10393000934228BFE160E168226CFCF75BFC10BD9C
:1039400070B5044604F12405FFF780FF0AE0636ABE
:103950005BB1284600F082FA08B100F011FAA36CBE
:10396000013BA364A36C002BF1DC4FF0FF33A36495
:10397000FFF778FF04F11005FFF768FF0AE02369FD
:103980005BB1284600F06AFA08B100F0F9F9636CFF
:10399000013B6364636C002BF1DC4FF0FF33636425
:1039A000FFF760FF70BDC0462DE9F04385B00546C6
:1039B00088460192994600F12407002600E001267E
:1039C000FFF744FFAB6B2BB328464146EC68FFF78B
:1039D000A5FFB9F1000F10D1AB6B013BAB632B68B6
:1039E00013B900F0D3F968602B697BB105F11000C1
:1039F00000F034FA012809D106E06B6AEC602BB1C3
:103A0000384600F02BFA08B1FFF718FFFFF72AFF3E
:103A100001204BE0019C1CB9FFF724FF204645E044
:103A200016B902A800F0A2F9FFF71CFF00F070F928
:103A3000FFF70CFF6B6CB3F1FF3F01D101336B64F7
:103A4000AB6CB3F1FF3F01D10133AB64FFF70AFF69
:103A500002A801A900F080FA10BBFFF7F7FEAC6BDB
:103A6000FFF700FFB4B92B6833B9FFF7EFFE6868C2
:103A700000F0C0F9FFF7F6FE3846019900F098FA19
:103A80002846FFF75DFF00F0C1FA002897D1FFF745
:103A9000D5FE94E72846FFF753FF00F0B7FA8EE70C
:103AA0002846FFF74DFF00F0B1FA002005B0BDE851
:103AB000F083C0461346026C70B5044632B90568FF
:103AC00005BB406800F074F965601BE063B980686D
:103AD000FCF790FBA368226C9B186268A36093427A
:103AE00010D32368A3600DE0C068FCF783FB236C50
:103AF00022685942E3685B189342E36002D263682C
:103B00005B18E360A36B0133A36370BD70B59C4683
:103B1000044615464FF0BF0080F31188A26BE36B9B
:103B20009A4201D3002314E020466246FFF7C2FF09
:103B3000A36CB3F1FF3F09D1636A4BB104F12400D8
:103B400000F08CF920B101232B6002E00133A36463
:103B500001234FF0000080F31188184670BDC04665
:103B60002DE9F04385B0064689460192984600F15A
:103B70001007002500E00125FFF768FEB26BF36B2C
:103B80009A4212D2304649464246FFF793FF736A83
:103B90003BB106F1240000F061F9012801D1FFF7E3
:103BA0004DFEFFF75FFE012044E0019C1CB9FFF7CA
:103BB00059FE20463EE015B902A800F0D7F8FFF7FD
:103BC00051FE00F0A5F8FFF741FE736CB3F1FF3F23
:103BD00001D101337364B36CB3F1FF3F01D1013301
:103BE000B364FFF73FFE02A801A900F0B5F9D8B908
:103BF000FFF72CFEB56BF46BFFF734FEA5420DD139
:103C00003846019900F0D4F93046FFF799FE00F0EC
:103C1000FDF90028AFD1FFF711FEACE73046FFF702
:103C20008FFE00F0F3F9A6E73046FFF789FE00F0BB
:103C3000EDF9002005B0BDE8F083C04670B54C201A
:103C4000FFF736FD0546D0B101230024C3634FF0D2
:103C5000FF3343648364446004608460C4608463AD
:103C6000046400F11000FFF779FD05F12400FFF76F
:103C700075FD2846214622462346FFF771FF284658
:103C800070BDC0462DE9F0418846064608B9044695
:103C900029E04C20FFF70CFD044620B306FB08F793
:103CA000781CFFF705FD05462060C0B1C3196360AD
:103CB0000023A363731E08FB0303E3604FF0FF338D
:103CC000A060E66304F11000C4F840806364A3645C
:103CD000FFF744FD04F12400FFF740FD03E0204618
:103CE000FFF7CEFC2C462046BDE8F0814269074B29
:103CF0009A4209D1806A02F11403984204D0D0F1AB
:103D0000010038BF002000E000207047485200202A
:103D1000024A936A013393627047C04648520020BA
:103D2000114A936A2BB1012313631CE0536B013BCF
:103D300053630D4A1421536B02F138004B43C358AF
:103D4000002BF3D0536B01FB03014B685A6801F160
:103D500008034A609A4204BF53684B604B68DA68B4
:103D6000014BC3F89C20704748520020034AD2F808
:103D7000A0300360D2F8A43043607047485200205E
:103D8000014B01221A63704748520020014BD3F8BF
:103D90009C00704748520020044BD3F8A80020B183
:103DA0009B6A002B0CBF0120022070474852002064
:103DB00070B50446C0B1C26A436C9A4214D0051D66
:103DC0002846FFF703FD626C0849C2F10503E26271
:103DD000A3614B6B06489A4288BF4A63142303FBD6
:103DE00002002946FFF7CAFC70BDC04648520020B9
:103DF0008052002070B5174DC16AD5F89C3004463A
:103E0000DB6A994225D2D5F89C3005F13802DB6A8D
:103E1000C3F105038361142303FB012342699A4222
:103E200013D1061D3046FFF7D1FCD5F89C300A4867
:103E3000DA6A3146E2626B6B9A4288BF6A63142386
:103E400003FB0200FFF79AFC03E0D5F89C30DB6A25
:103E5000C36270BD4852002080520020036870B5D4
:103E60000BB91D4601E0C368DD6805F11806114C69
:103E70003046FFF7ABFCA36A6BB92E1D3046FFF747
:103E8000A5FCEA6A636B0C489A4288BF62631423FC
:103E900003FB020001E004F114003146FFF76EFC61
:103EA000044BEA6AD3F89C30D86A824234BF0020BF
:103EB000012070BD4852002080520020244970B576
:103EC0008B6A002B3DD1D1F8A4300133C1F8A43066
:103ED000D1F8A4304BBBD1F8AC20D1F8B030C1F848
:103EE000AC30C1F8B020D1F8A0300133C1F8A03017
:103EF0001BE0D2F8A42063689A4227D3251D2846E8
:103F0000FFF764FCA36A1BB104F11800FFF75EFC25
:103F10000F49E26A4B6B0F489A4288BF4A631423E9
:103F200003FB02002946FFF729FC094AD2F8AC300E
:103F30001B685BB1D2F8AC30DB68DC68002CD8D1F0
:103F400004E0D1F8B4300133C1F8B43070BDC046DC
:103F5000485200208052002070B50D460446FFF7FD
:103F600075FC2968B1F1FF3F19D010482368D0F8DB
:103F7000A0209A4204D0D0F8A42063689A4210D2BC
:103F80000A486268D0F8A4309B1A8B4209D2D0F854
:103F9000A4302046D31A5B182B60FFF7E7FE0024FD
:103FA00000E00124FFF75EFC204670BD485200206F
:103FB00070B5154C0D46D4F89C101831FFF7ECFB8A
:103FC000D4F89C000430FFF701FCB5F1FF3F06D1A7
:103FD000D4F89C1020460431FFF7D0FB12E0D4F84F
:103FE000A430D4F89C20EB185360D4F8A42093425A
:103FF00034BFD4F8B000D4F8AC00D4F89C1004312D
:10400000FFF7CAFB70BDC046485200202DE9F041C1
:10401000FFF71CFC294A936A013B9362916A0029CD
:1040200046D1D36A002B43D00E461CE02F1D05F16C
:104030001800FFF7CBFB3846FFF7C8FBEA6A636B53
:1040400039469A4288BF62631C4C142004F138033D
:1040500000FB0230FFF792FBD4F89C30EA6ADB6A7F
:104060009A4228BF0126154C63691BB1236ADD689B
:10407000002DDBD1114AD2F8B4303BB90CE0FFF788
:104080001DFFD4F8B430013BC4F8B4300B4CD4F865
:10409000B430002BF3D104E0012E02D0136B012BBE
:1040A00006D1064B00221A63FFF7C8FB012400E08B
:1040B0000024FFF7D7FB2046BDE8F08148520020DE
:1040C00070B5054638B3144CD4F89C30984222D0D1
:1040D000FFF7BCFB2846FFF709FE012819D12E1D6A
:1040E0003046FFF773FBEA6A636B31469A4288BF3A
:1040F0006263094C142004F1380300FB0230FFF71F
:104100003DFBD4F89C30EA6ADB6A9A4201D3FFF7A0
:1041100095FBFFF7A7FB70BD4852002070B5054620
:10412000FFF794FB104BD3F89C309D4201D1002542
:1041300000E01DB90C4BD3F89C4000E02C46261D36
:104140003046FFF743FBA36A1BB104F11800FFF7E9
:104150003DFB05483146FFF711FBFFF783FB0DB927
:10416000FFF76CFB70BDC0464852002070B5064694
:10417000E8B1104DFFF7CCFDD5F8A440D5F89C0070
:1041800034190430FFF722FBD5F89C305C60D5F879
:10419000A4309C4234BFD5F8B000D5F8AC00D5F8B7
:1041A0009C100431FFF7F8FAFFF730FF08B9FFF76A
:1041B00045FB70BD4852002070B50546FFF746FB31
:1041C000174BD3F89C309D4201D1002500E01DB96A
:1041D000134BD3F89C4000E02C46261D3046FFF7D9
:1041E000F5FAA36A1BB104F11800FFF7EFFA0C4CC3
:1041F000314604F1B800FFF7C1FAD4F8CC300133EE
:10420000C4F8CC30D4F8D0300133C4F8D030FFF744
:1042100029FBD4F8A83013B10DB9FFF70FFB70BD1F
:104220004852002070B5184DD5F8CC3023B3FFF7B5
:104230006FFDD5F8B840FFF7E9FEECB1FFF706FBDC
:10424000D5F8B80008B9044602E0D5F8C430DC68F7
:10425000201DFFF7BBFA0C4BDA6A013ADA62D3F899
:10426000CC20013AC3F8CC20FFF7FCFA206BFFF713
:1042700007FA2046FFF704FA034B9B6B012BD2D9B8
:10428000FFF7DCFACFE7C046485200202DE9F84F8F
:10429000814648200D4617469846DDF828B0FFF7BE
:1042A00007FA064608B901389FE0BC002046FFF730
:1042B000FFF9306328B93046FFF7E2F94FF0FF30DD
:1042C00093E0A5212246FBF7E1FF1022294606F1E3
:1042D0003400FCF71FF8BBF1040F34BF5C46042424
:1042E000002306F1040A86F84330F46274645046F1
:1042F000FFF740FA06F11800FFF73CFA336BC7F1FD
:104300000102C4F105046FF0030000FB02304946CE
:1043100042463661B4617662FFF768FA3060FFF7B3
:1043200095FA3348C36A0133C362C36A012B26D1AD
:10433000C0F89C6000F138042D4F2046FFF70EFABC
:10434000143407F19C039C42F6D107F1D4052846AA
:1043500007F1E804FFF702FA2046FFF7FFF907F13B
:104360001400FFF7FBF907F1B800FFF7F7F938463B
:10437000FFF7F4F9C7F8AC50C7F8B04009E0D0F83F
:10438000A83033B9D0F89C30DB6A5B4598BFC0F8E1
:104390009C601749F26AD1F8FC3016489A4288BFEF
:1043A000C1F8FC201249D1F8D0300133C1F8D03027
:1043B000F26A4B6B9A4288BF4A63F26A142303FB8A
:1043C00002005146FFF7DAF9FFF74CFA0B9B03B1F5
:1043D0001E60074AD2F8A83033B1D2F89C30DB6AAD
:1043E0005B4501D2FFF72AFA0120BDE8F88FC046ED
:1043F000485200208052002013B5002480220B4830
:104400000B49234600940194FFF740FF0128024620
:104410000AD14FF0BF0080F31188064BC3F8A820E3
:10442000C3F8A440FFF748FA1CBDC0462542000867
:10443000825500084852002040F0BE60024B40F414
:104440002020D8607047C04600ED00E030B5C3784A
:1044500090F800C04BB31A4B4178DA68194DD2433B
:10446000C2F30222C2F1040399400F23D3408278A1
:104470000CF0030013400B43C0001B01FF228240DD
:1044800083404FEA9C04C03455F82410134021EABD
:1044900002010B4345F824300CF01F020123934026
:1044A0004FEA5C1145F8213009E00CF01F020123AE
:1044B00093404FEA5C11034A203142F8213030BD6D
:1044C00000ED00E000E100E021F0604121F07F011B
:1044D000014B01439960704700ED00E00368002242
:1044E00023F00103036040F26C03C4F2020382B0C4
:1044F00098420260019042608260C26000F0AA802F
:104500001DD940F21C43C4F20203984200F090808F
:1045100031D840F28003C4F2020398427FD040F2C7
:104520000843C4F20203984207D140F20042C4F2A9
:104530000202536843F00F03536002B0704740F229
:104540003003C4F2020398427BD02FD940F24403D7
:10455000C4F20203984247D040F25803C4F2020367
:104560009842EAD140F20002C4F20202536843F4D6
:1045700070235360E1E740F24443C4F202039842DF
:1045800044D040F25843C4F20203984235D040F27E
:104590003043C4F202039842CFD140F20042C4F249
:1045A0000202536843F470635360C6E740F20803A5
:1045B000C4F2020398420ED040F21C03C4F202037C
:1045C0009842BAD140F20002C4F20202536843F0AA
:1045D000F0035360B1E740F20002C4F202025368F4
:1045E00043F00F035360A8E740F20002C4F2020256
:1045F000536843F4704353609FE740F20042C4F2B3
:104600000202536843F47023536096E740F200427D
:10461000C4F20202536843F4704353608DE740F2E2
:104620000002C4F20202536843F07063536084E7EF
:1046300040F20042C4F20202536843F0F0035360B8
:104640007BE740F20002C4F20202536843F4706355
:10465000536072E740F20002C4F20202536843F46E
:104660007003536069E7C04630B448F20F02056832
:10467000CFF6FF720B6A15408A680C6913434A69CA
:1046800023438C691343CA6923434C6A13438A6AE0
:10469000234313432B430360CA6842600B68836063
:1046A0004A68C26030BC704721B9036823F0010337
:1046B00003607047036843F001030360F9E7C046F5
:1046C000837970B4054643B340F20044C4F2010458
:1046D00000682368C14301EA030323606268114054
:1046E0002A79616002F1804202F582321368034345
:1046F00013602E68A168F34303EA0101A160E26838
:10470000687913401028E36013D000F1804202F56D
:10471000823213683343136009E00379026803F1BE
:10472000804303F582331968D2431140196070BC8D
:104730007047A3683343A360E2683243E260F6E760
:1047400040F20043C4F2010319685A6910EA0203F7
:1047500008BF184603D008420CBF00200120704754
:1047600040F20043C4F201035861704742F2000274
:10477000C4F20202136803F038031360116808439F
:104780001060704742F20002C4F20202136823F084
:104790001003136011680843106070472DE9F0039F
:1047A000CD78064615F0100F18BF8B78088805F0F5
:1047B0000F0718BF1F4310F0FF0F29D034684FF0C8
:1047C000000C4FF001084FF00F0904E00CF1010C50
:1047D000BCF1080F1BD008FA0CF303EA0001994260
:1047E000F4D14FEA8C0209FA02F317FA02F2DB4322
:1047F0002340282D43EA020408BF7161E6D0482D0A
:104800000CF1010C08BF3161BCF1080FE3D1346039
:10481000FF282BD974684FF0000C4FF001084FF0BF
:104820000F0904E00CF1010CBCF1080F1DD00CF1D4
:10483000080308FA03F303EA00019942F2D14FEAB0
:104840008C0209FA02F317FA02F2DB432340282D07
:1048500043EA020408BF7161E4D0482D0CF1010C59
:1048600008BF3161BCF1080FE1D17460BDE8F0030D
:104870007047C046836819420CBF00200120704772
:10488000C36819420CBF00200120704701617047C6
:10489000416170470AB9416170470161FCE7C04658
:1048A00030B401F00305AD000F23AB40A8408908E8
:1048B00040F20002C4F20102023152F82140DB430F
:1048C000234042F8213052F82140204342F8210091
:1048D00030BC704731B9038823F001031B041B0C63
:1048E0000380704703889BB243F001030380F8E71D
:1048F00031B9038823F400731B041B0C0380704739
:1049000003889BB243F400730380F8E731B903884E
:1049100023F480631B041B0C0380704703889BB245
:1049200043F480630380F8E72AB98388CA439BB2C3
:1049300013408380704783889BB241EA03038380DE
:10494000F8E7C04601827047008AC0B27047C0468F
:104950001AB901F0FE010182704741F00101FAE746
:1049600031B1038823F080031B041B0C03807047C4
:1049700003889BB243F080030380F8E70346808AF4
:104980001A8B80B240EA024020F07F407047C04658
:10499000C94389B2818270478288838A92B29BB26E
:1049A00013EA010006D001F0E06312EA13430CBFE2
:1049B000002001207047C046C94389B281827047F8
:1049C00070B586B00546848801A80E4600F056F9F9
:1049D00003984DF68363C4F21B33A3FB001324F04A
:1049E0003F042404240C4FEA934E4EEA0404AC80A6
:1049F0002B88F16823F001031B041B0C2B8048F269
:104A0000A063C0F20103994224D84B00B0FBF3F33A
:104A10009BB20EF101022A84032B8CBF184604209E
:104A2000A8832A8892B242F001022A802B88F28859
:104A300023F48063318823F00A031B040A431B0C10
:104A400013439BB22B80B28833891A4392B22A81D6
:104A500006B070BD72884BF6FF739A4223D0CA002D
:104A60004B019B1A5B18B0FBF3F39BB243F48042FB
:104A700013051B0D0BB942F0010242F400404FEA4E
:104A80008E014FEA0E1289180B0144F6D3525B1ABD
:104A9000C1F2620282FB0312DB17C3EBA2130133E4
:104AA0009BB22B84BCE74B005B18B0FBF3F39AB2CC
:104AB000DEE7C04640F22003C4F20E2318607047C0
:104AC00047F20003C4F200035A6810420CBF0020F2
:104AD0000120704747F20002C4F20002136843EA63
:104AE000800313607047C04641F20000C4F2020028
:104AF000036843F001030360426840F20003CFF60D
:104B0000FF031A40426001684FF6FF73CFF6F66369
:104B100019400160036823F4802303604268002386
:104B200022F4FE02426083607047C04641F20001F9
:104B3000C4F202010B68B0F5803F23F480330B60B0
:104B40000A6822F480220A6002BF0B6843F48033B3
:104B50000B6006D0B0F5802F03D10B6843F4A0237F
:104B60000B60704782B0002341F200010193C4F250
:104B700002010B6813F4003F0CD0019B0133019339
:104B800041F20003C4F202031868400C00F0010077
:104B900002B07047019B01330193019AB2F5A06FF7
:104BA000E7D1EDE741F20003C4F202035A6822F4B0
:104BB0007C121043084358607047C04640F26003BF
:104BC000C4F242231860704741F20003C4F20203AA
:104BD0005A6822F0030210435860704741F2000304
:104BE000C4F20203586800F00C00704741F2000361
:104BF000C4F202035A6822F0F00210435860704772
:104C000041F20003C4F202035A6822F4E062104346
:104C10005860704741F20002C4F20202536823F464
:104C2000605343EAC00353607047C04641F200033B
:104C3000C4F202035A6822F440421043586070479D
:104C400041F22002C4F20202002301281370137003
:104C500008BF107003D0042801D1052313707047DA
:104C600041F20003C4F202031A6A1043186270474B
:104C700040F23C43C4F242231860704741F2000105
:104C8000C4F202014B6830B403F00C03042B054658
:104C900001D0082B2ED041F20023C0F27A032B6002
:104CA00041F20004C4F20204636845F2045003F0C8
:104CB000F003C0F600001B09C25C2968D14069609E
:104CC000636803F4E0631B0AC25C31FA02F2AA6073
:104CD000636803F46053DB0AC25CD140E960636837
:104CE00003F4404300EB9330027CB1FBF2F1296105
:104CF00030BC70474B684A6803F470139B0C981CD7
:104D000012F4803F0AD04B6813F4003F01BF41F218
:104D10000023C0F27A0343432B60C1D040F6001356
:104D2000C0F23D0303FB00F32B60B9E741B941F248
:104D30000003C4F202035969C2430A405A61704732
:104D400041F20002C4F20202536940EA03035361D4
:104D5000F5E7C04641B941F20003C4F20203996984
:104D6000C2430A409A61704741F20002C4F2020253
:104D7000936940EA03039361F5E7C04641B941F204
:104D80000003C4F20203D969C2430A40DA617047E2
:104D900041F20002C4F20202D36940EA0303D36184
:104DA000F5E7C0464309012B02BF41F20003C4F2FC
:104DB00002031B680CD0022B0BBF41F2000341F22F
:104DC0000003C4F20203C4F202030CBF1B6A5B6A55
:104DD00000F01F0033FA00F000F001007047C046F9
:104DE00049B942F60003C4F200031A88C14392B2E3
:104DF0000A401A80704742F60002C4F2000213888B
:104E00009BB240EA03031380F4E7C04642F6000178
:104E1000C4F200018B8800F470229BB243F01003AF
:104E2000120C80B28B800A8188818B8823F010035A
:104E30001B041B0C8B80704742F60002C4F2000278
:104E4000938813F0200FFBD07047C04642F6000253
:104E5000C4F20002938823F008031B041B0C938008
:104E6000938813F0080FFBD07047C04642F600034A
:104E7000C4F2000399881A8889B210EA020308BFB5
:104E8000184606D000EA010313F0FF0F0CBF002004
:104E90000120704742F60003C4F200039A88C04321
:104EA00092B202409A807047028810B402F08F02DA
:104EB00002800388CA880C469BB2498813430B437F
:104EC0009BB20380A28883B08285238842F6004289
:104ED00003854FF00103838243F20043C4F20103D0
:104EE000C4F20102984214BF00230123904208BF7C
:104EF00043F0010301900BB1237A038603B010BC89
:104F00007047C046038C2DE9F00123F001031B0418
:104F10001B0C03840D46018C8388028B9EB297B2D2
:104F20006B882A8921F00201134309049BB2EA88A5
:104F3000090C43EA010C43F20043B5F80080C4F2C7
:104F40000103828642F60042C4F20102984214BF75
:104F50000023012383B0904208BF43F00103019076
:104F60000446E3B14FF6F7736989C0F200030CEA17
:104F700003034FF6FB720B43C0F20002A98803EA59
:104F8000020242EA010CEB89AA8947F6FF40C0F20F
:104F90000000134306EA00009BB243EA00064FF606
:104FA0008F73C0F2000307EA030343EA0803A680F5
:104FB0002383A4F820C003B0BDE8F0017047C046C9
:104FC000038CF0B423F010031B041B0C0384028C2D
:104FD00083880C4622F020029DB212042389120C11
:104FE00042EA0312638892B242EA0312E388018B19
:104FF0002788038743F200431FFA82FCC4F20103AF
:1050000042F60042C4F20102984214BF0023012379
:1050100082B0904208BF43F0010301908EB20BB3FF
:105020004FF67F726189C0F200020CEA02024FF66D
:10503000BF7342EA0112C0F20003A18802EA03032F
:1050400043EA011347F2FF321FFA83FCC0F2000269
:10505000A38905EA020242EA8302E38992B242EAA4
:10506000830295B248F6FF73C0F2000306EA030319
:1050700043EA07239BB285800383A0F820C002B0D7
:10508000F0BC7047038CF0B423F480731B041B0C3A
:105090000384028C83880C4622F400729DB21204B1
:1050A0002389120C42EA0322638892B242EA032265
:1050B000E388818B2788838743F200431FFA82FCB1
:1050C000C4F2010342F60042C4F20102984214BF46
:1050D0000023012382B0904208BF43F001030190F6
:1050E0008EB20BB34FF2FF726189C0F200020CEA7C
:1050F00002024FF6FF3342EA0122C0F20003A18808
:1051000002EA030343EA012344F6FF721FFA83FC19
:10511000C0F20002A38905EA020242EA0312E3890F
:1051200092B242EA031295B24FF68F73C0F20003B7
:1051300006EA03033B4385808383A0F820C002B0C6
:10514000F0BC7047038C2DE9F00323F480531B045B
:105150001B0C0384028C83881FFA82F91FFA83FCDC
:10516000CB88828B0E880F89B1F80280A0F840307E
:1051700043F2004395B2C4F2010342F60042C4F286
:105180000102984214BF0023012382B0904208BF5D
:1051900043F0010301900C463BB14FEA8C43A289D6
:1051A0009B0C43EA82131FFA83FC4DF6FF72C0F298
:1051B000000248F6FF7309EA0202C0F2000342EA65
:1051C000073205EA030392B243EA062342EA0832B1
:1051D0009BB292B2A0F804C08383028402B0BDE8FF
:1051E000F00370474FF0FF33838000230380C380B8
:1051F000438003727047C04631B9038823F001032E
:105200009B059B0D0380704703889BB243F001030D
:105210000380F8E72AB98389CA439BB2134083818C
:10522000704783899BB241EA03038381F8E7C04654
:10523000038B23F008031B041B0C194301837047E5
:10524000038B23F400631B041B0C43EA01239BB272
:1052500003837047838B23F008031B041B0C194343
:1052600081837047838B23F400631B041B0C43EA88
:1052700001239BB283837047818470478186704786
:105280000187704781877047A0F840107047C0467B
:10529000808C80B27047C046038A828919420CBF55
:1052A0000020012011420CBF002000F001007047D7
:1052B000C94389B20182704742F60043C4F2000339
:1052C0005A6822F4C07210435860704742F6004298
:1052D000C4F20002536800F07F0023F07F031843FC
:1052E0005060704748F2A403C4F2052301221A60FB
:1052F0007047C04642F6004300F07F00C4F200034E
:105300001860704742F6004340F08000C4F200038A
:105310001860704742F60043C4F2000300229A600E
:105320007047C04642684FF6FF6330B4CFF6F07363
:105330000C681A400B79224342EA032242608568D6
:10534000CC688A684FF2FD73CFF6F17322431D409B
:105350004B792A4342EA430282600B7CC46A013BD8
:1053600024F47004DBB244EA0354C46230BC7047D6
:1053700021B9836823F0010383607047836843F099
:1053800001038360F9E7C04621B9836823F4807381
:1053900083607047836843F480738360F9E7C04695
:1053A000C9B222B94268CB43134043607047436897
:1053B00041EA03034360F9E7836843F0080383602D
:1053C0007047C0468068C00800F001007047C046C2
:1053D000836843F0040383607047C0468068800898
:1053E00000F001007047C04621B9836823F4A00390
:1053F00083607047836843F4A0038360F9E7C04685
:10540000092930B4944604461D46084620D9420076
:1054100012181E3A0723934015FA02F2E168DB43A3
:105420000B401343BCF1060FE3601FD9BCF10C0F16
:105430002AD94FEA8C026244413A1F23934010FA62
:1054400002F2E16ADB430B401343E36230BC704776
:10545000420012180723934015FA02F22169DB4338
:105460000B401343BCF1060F2361DFD84FEA8C02D7
:105470006244053A1F23934010FA02F2616BDB434A
:105480000B4013436363E1E74FEA8C026244233A23
:105490001F23934010FA02F2216BDB430B401343AE
:1054A0002363D3E740B942F20042C4F20102936899
:1054B00023F400039360704742F20042C4F20102F9
:1054C000936843F400039360F5E7C046090AC943B3
:1054D0000160704746F60043C4F20003C1527047B2
:1054E00046F60043C4F20003C05A80B27047C0467B
:1054F00046F60042C4F20002938E9BB243F00103D1
:1055000093867047000000000102030401020304B7
:105510000607080902040608427574746F6E546F1A
:1055200067676C655461736B00496E697444696D9B
:105530006D657256616C75657300427574746F6E3B
:1055400044696D6D65725461736B00493243325228
:105550006563656976655461736B00526566726553
:1055600073685461736B0053656E64557064617445
:10557000655461736B005374617274757054617318
:085580006B0049444C4500009A
:1055880040000000000C010002060000800000003E
:10559800000C01000207000000010000000C0100DF
:1055A8000208000000020000000C010002090000CF
:1055B80000040000000C0100020A000000080000BE
:1055C800000C0100020B000040000000000C00006D
:1055D8000206000080000000000C00000207000026
:1055E80000010000000C000002080000000200009A
:1055F800000C00000209000000040000000C00007C
:10560800020A000000080000000C0000020B000065
:1056180002000300000801401000031000080140C8
:10562800200003100008014040000310000801405A
:1056380080000310000801404000031C000C0140DA
:105648008000031C000C01400004031C000C0140F6
:105658000008031C000C014000100248000C014027
:1056680000200248000C014000400248000C0140A4
:1056780000800248000C0140400002480010014030
:10568800800002480010014000010248001001405B
:1056980000020248001001400004024800100140C6
:1056A80000080248001001400100031000100140EA
:1056B8000200031000100140040003100010014014
:1056C80008000310001001401000031000100140F2
:1056D80020000310001001400010031000100140CA
:1056E800190000011C0000011D0000011E0000013E
:1056F8002F01000120030001220300011F03000104
:105708002103000112050001000A0001280C000114
:10571800170C0001030E0001150346037503A203CD
:10572800CD03F40319043B04590473048A049D044B
:10573800AC04B604BD04BF04BD04B604AC049D04A7
:105748008A04730459043B041904F403CD03A20327
:10575800750346031503000098010020200000008F
:0857680000100800AAAAAAAA79
:0400000508000130BE
:00000001FF
