:020000040800F2
:1000000000040020011300085313000853130008D4
:100010005313000853130008531300080000000096
:100020000000000000000000000000005313000862
:100030005313000800000000531300085313000876
:1000400055130008651300086713000869130008BA
:100050006B1300086D1300086F130008711300087C
:10006000731300087513000877130008791300084C
:100070007B1300087D13000881130008CD130008CE
:100080001514000817140008191400085313000869
:100090005313000853130008531300081B140008DF
:1000A0001D1400081F140008211400082314000860
:1000B0002514000827140008291400082B14000830
:1000C0002D14000831140008CD1500083116000861
:1000D00033160008351600083716000839160008D0
:1000E0003B1600083D1600083F16000841160008A0
:1000F0004316000845160008471600084916000870
:100100004B1600084D1600084F160008511600083F
:10011000531600085516000857160008591600080F
:100120005B1600085D1600085F16000861160008DF
:1001300000000000000000000000000000000000BF
:1001400000000000000000000000000000000000AF
:10015000000000000000000000000000000000009F
:10016000000000000000000000000000000000008F
:10017000000000000000000000000000000000007F
:10018000000000000000000000000000000000006F
:10019000000000000000000000000000000000005F
:1001A000000000000000000000000000000000004F
:1001B000000000000000000000000000000000003F
:1001C000000000000000000000000000000000002F
:1001D000000000000000000000000000000000001F
:0401E0005FF8E0F1F3
:1001E80030BF704720BF704740BF7047BFF36F8F65
:1001F8007047BFF34F8F7047BFF35F8F704701DFC2
:100208007047EFF31480704780F31488BFF36F8F43
:100218007047EFF30980704780F309887047EFF360
:100228000880704780F30888704762B6704772B6D6
:100238007047EFF31080704761B6704771B670472A
:10024800EFF31380704780F311887047EFF3128043
:10025800704740BA704700BA7047000010F0030FAB
:10026800034670B4C9B210D002B303788B421ED0D3
:10027800013A013005E0CAB110F8014B013A8C424D
:1002880017D010F0030F0346F5D1032A13D86AB12B
:10029800187888420DD0013A5C1C04E014F8015B20
:1002A800013A8D4203D02046002AF7D1104670BC8F
:1002B80070471846FBE741EA012646EA0646184613
:1002C80053F8044B86EA0404A4F1013525EA040432
:1002D80014F0803F03D1043A1846032AEFD80346A6
:1002E800D5E700BF032A2DE9F00109D82AB1002378
:1002F800CC5CC45401339342FAD1BDE8F001704795
:100308000B468218014603E02478013301F8014BBB
:1003180011F0030F1C46F7D113F003055DD06E42B0
:10032800C5F1040CED009B594FEACC0C08E00434ED
:10033800A7593B4607FA0CF748EA070741F8047B38
:10034800571A23FA05F8032FF1DC03E014F8013BF0
:1003580001F8013B8A42F9D8CFE753F8404C41F8FD
:10036800404C53F83C4C41F83C4C53F8384C41F85D
:10037800384C53F8344C41F8344C53F8304C41F86D
:10038800304C53F82C4C41F82C4C53F8284C41F87D
:10039800284C53F8244C41F8244C53F8204C41F88D
:1003A800204C53F81C4C41F81C4C53F8184C41F89D
:1003B800184C53F8144C41F8144C53F8104C41F8AD
:1003C800104C53F80C4C41F80C4C53F8084C41F8BD
:1003D800084C53F8044C41F8044C561A1D460C4678
:1003E800403340313F2EB8DC2B460FE053F8101C49
:1003F80044F8101C53F80C1C44F80C1C53F8081C47
:1004080044F8081C53F8041C44F8041C161B1D4629
:1004180010330F2E214604F11004E7DC2B4602E0CE
:10042800246841F8044B551A1C46032D03F10403B4
:10043800F6DC8FE70246404240EA020221F0004122
:1004480041EAD272C2F1FE4202F57002504240EA1D
:100458000202D0170130704702464042104321F093
:10046800004141EAD070C0F1FE4000F57000C00FB5
:10047800704700BF20F0030110F00300C0F1000036
:1004880051F8043B00F1040C4FEACC0C6FF0000269
:100498001CBF22FA0CF213434FF0010C4CEA0C2C4F
:1004A8004CEA0C4CA3EB0C0222EA030212EACC122F
:1004B80004BF51F8043B0430F4D013F0FF0F1FBF02
:1004C800013013F47F4F013013F47F0F18BF013050
:1004D800704700BF000000004A1E08BF7047C0F008
:1004E8002481884240F21681114200F01781B0FA47
:1004F80080F3B1FA81F2A2EB0303C3F11F0304A254
:1005080002EB03134FF000029F4600BFAFF30080D9
:10051800B0EBC17F00BF42EB020228BFA0EBC17065
:10052800B0EB817F00BF42EB020228BFA0EB8170D5
:10053800B0EB417F00BF42EB020228BFA0EB417045
:10054800B0EB017F00BF42EB020228BFA0EB0170B5
:10055800B0EBC16F00BF42EB020228BFA0EBC16045
:10056800B0EB816F00BF42EB020228BFA0EB8160B5
:10057800B0EB416F00BF42EB020228BFA0EB416025
:10058800B0EB016F00BF42EB020228BFA0EB016095
:10059800B0EBC15F00BF42EB020228BFA0EBC15025
:1005A800B0EB815F00BF42EB020228BFA0EB815095
:1005B800B0EB415F00BF42EB020228BFA0EB415005
:1005C800B0EB015F00BF42EB020228BFA0EB015075
:1005D800B0EBC14F00BF42EB020228BFA0EBC14005
:1005E800B0EB814F00BF42EB020228BFA0EB814075
:1005F800B0EB414F00BF42EB020228BFA0EB4140E5
:10060800B0EB014F00BF42EB020228BFA0EB014054
:10061800B0EBC13F00BF42EB020228BFA0EBC130E4
:10062800B0EB813F00BF42EB020228BFA0EB813054
:10063800B0EB413F00BF42EB020228BFA0EB4130C4
:10064800B0EB013F00BF42EB020228BFA0EB013034
:10065800B0EBC12F00BF42EB020228BFA0EBC120C4
:10066800B0EB812F00BF42EB020228BFA0EB812034
:10067800B0EB412F00BF42EB020228BFA0EB4120A4
:10068800B0EB012F00BF42EB020228BFA0EB012014
:10069800B0EBC11F00BF42EB020228BFA0EBC110A4
:1006A800B0EB811F00BF42EB020228BFA0EB811014
:1006B800B0EB411F00BF42EB020228BFA0EB411084
:1006C800B0EB011F00BF42EB020228BFA0EB0110F4
:1006D800B0EBC10F00BF42EB020228BFA0EBC10084
:1006E800B0EB810F00BF42EB020228BFA0EB8100F4
:1006F800B0EB410F00BF42EB020228BFA0EB410064
:10070800B0EB010F00BF42EB020228BFA0EB0100D3
:10071800104670470CBF012000207047B1FA81F2E3
:10072800C2F11F0220FA02F0704708B14FF0FF3003
:1007380000F066B90029F8D02DE90340FFF7CCFE98
:10074800BDE8064002FB00F3A1EB0301704700BFC0
:10075800002900F03E8180EA010C48BF49424A1E48
:1007680000F01F81030048BF43428B4240F21E81C4
:10077800114200F02381B3FA83F2B1FA81F0A0EBC1
:100788000202C2F11F0204A000EB02124FF00000A7
:10079800974600BFAFF30080B3EBC17F00BF40EBCB
:1007A800000028BFA3EBC173B3EB817F00BF40EB10
:1007B800000028BFA3EB8173B3EB417F00BF40EB80
:1007C800000028BFA3EB4173B3EB017F00BF40EBF0
:1007D800000028BFA3EB0173B3EBC16F00BF40EB70
:1007E800000028BFA3EBC163B3EB816F00BF40EBF0
:1007F800000028BFA3EB8163B3EB416F00BF40EB60
:10080800000028BFA3EB4163B3EB016F00BF40EBCF
:10081800000028BFA3EB0163B3EBC15F00BF40EB4F
:10082800000028BFA3EBC153B3EB815F00BF40EBCF
:10083800000028BFA3EB8153B3EB415F00BF40EB3F
:10084800000028BFA3EB4153B3EB015F00BF40EBAF
:10085800000028BFA3EB0153B3EBC14F00BF40EB2F
:10086800000028BFA3EBC143B3EB814F00BF40EBAF
:10087800000028BFA3EB8143B3EB414F00BF40EB1F
:10088800000028BFA3EB4143B3EB014F00BF40EB8F
:10089800000028BFA3EB0143B3EBC13F00BF40EB0F
:1008A800000028BFA3EBC133B3EB813F00BF40EB8F
:1008B800000028BFA3EB8133B3EB413F00BF40EBFF
:1008C800000028BFA3EB4133B3EB013F00BF40EB6F
:1008D800000028BFA3EB0133B3EBC12F00BF40EBEF
:1008E800000028BFA3EBC123B3EB812F00BF40EB6F
:1008F800000028BFA3EB8123B3EB412F00BF40EBDF
:10090800000028BFA3EB4123B3EB012F00BF40EB4E
:10091800000028BFA3EB0123B3EBC11F00BF40EBCE
:10092800000028BFA3EBC113B3EB811F00BF40EB4E
:10093800000028BFA3EB8113B3EB411F00BF40EBBE
:10094800000028BFA3EB4113B3EB011F00BF40EB2E
:10095800000028BFA3EB0113B3EBC10F00BF40EBAE
:10096800000028BFA3EBC103B3EB810F00BF40EB2E
:10097800000028BFA3EB8103B3EB410F00BF40EB9E
:10098800000028BFA3EB4103B3EB010F00BF40EB0E
:10099800000028BFA3EB0103BCF1000F48BF404291
:1009A80070479CEA000F48BF4042704738BF00209C
:1009B80004BF4FEAEC7040F001007047B1FA81F2D1
:1009C800C2F11F02BCF1000F23FA02F048BF4042F7
:1009D80070470028C8BF6FF00040B8BF4FF0004014
:1009E80000F00EB80029F4D02DE90340FFF7B3FE5C
:1009F800BDE8064002FB00F3A1EB0301704700BF0E
:100A0800704700BF81F0004102E000BF83F000435F
:100A180030B54FEA41044FEA430594EA050F08BF91
:100A280090EA020F1FBF54EA000C55EA020C7FEA55
:100A3800645C7FEA655C00F0E2804FEA5454D4EBD2
:100A48005555B8BF6D420CDD2C4480EA020281EA9C
:100A5800030382EA000083EA010180EA020281EAD4
:100A68000303362D88BF30BD11F0004F4FEA013126
:100A78004FF4801C4CEA113102D0404261EB410135
:100A880013F0004F4FEA03334CEA133302D05242BB
:100A980063EB430394EA050F00F0A780A4F1010477
:100AA800D5F1200E0DDB02FA0EFC22FA05F28018B1
:100AB80041F1000103FA0EF2801843FA05F3594197
:100AC8000EE0A5F120050EF1200E012A03FA0EFC16
:100AD80028BF4CF0020C43FA05F3C01851EBE37140
:100AE80001F0004507D54FF0000EDCF1000C7EEB5D
:100AF80000006EEB0101B1F5801F1BD3B1F5001F9B
:100B08000CD349085FEA30004FEA3C0C04F10104B9
:100B18004FEA445212F5800F80F09A80BCF1004FE2
:100B280008BF5FEA500C50F1000041EB045141EA64
:100B3800050130BD5FEA4C0C404141EB010111F465
:100B4800801FA4F10104E9D191F0000F04BF014610
:100B58000020B1FA81F308BF2033A3F10B03B3F1EE
:100B680020020CDA0C3208DD02F1140CC2F10C027E
:100B780001FA0CF021FA02F10CE002F11402D8BFDC
:100B8800C2F1200C01FA02F120FA0CFCDCBF41EAA8
:100B98000C019040E41AA2BF01EB0451294330BD77
:100BA8006FEA04041F3C1CDA0C340EDC04F1140454
:100BB800C4F1200220FA04F001FA02F340EA03002B
:100BC80021FA04F345EA030130BDC4F10C04C4F171
:100BD800200220FA02F001FA04F340EA0300294651
:100BE80030BD21FA04F0294630BD94F0000F83F49B
:100BF800801306BF81F480110134013D4EE77FEA7E
:100C0800645C18BF7FEA655C29D094EA050F08BFC9
:100C180090EA020F05D054EA000C04BF19461046AA
:100C280030BD91EA030F1EBF0021002030BD5FEAEE
:100C3800545C05D14000494128BF41F0004130BD16
:100C480014F580043CBF01F5801130BD01F000456A
:100C580045F0FE4141F470014FF0000030BD7FEADD
:100C6800645C1ABF194610467FEA655C1CBF0B46D8
:100C7800024650EA013406BF52EA033591EA030FEF
:100C880041F4002130BD00BF90F0000F04BF0021E7
:100C9800704730B54FF4806404F132044FF000051A
:100CA8004FF0000150E700BF90F0000F04BF002193
:100CB800704730B54FF4806404F1320410F00045F9
:100CC80048BF40424FF000013EE700BF42004FEAF4
:100CD800E2014FEA31014FEA02701FBF12F07F4371
:100CE80093F07F4F81F06051704792F0000F14BF6E
:100CF80093F07F4F704730B54FF4607401F00045B2
:100D080021F0004120E700BF50EA010208BF704708
:100D180030B54FF000050AE050EA010208BF7047FD
:100D280030B511F0004502D5404261EB41014FF466
:100D3800806404F132045FEA915C3FF4DCAE4FF06A
:100D480003025FEADC0C18BF03325FEADC0C18BF51
:100D5800033202EBDC02C2F1200300FA03FC20FAA2
:100D680002F001FA03FE40EA0E0021FA02F11444EF
:100D7800C1E600BF70B54FF0FF0C4CF4E06C1CEA04
:100D880011541DBF1CEA135594EA0C0F95EA0C0F79
:100D980000F0DEF82C4481EA030621EA4C5123EAEC
:100DA8004C5350EA013518BF52EA033541F480111B
:100DB80043F4801338D0A0FB02CE4FF00005E1FBCE
:100DC80002E506F00042E0FB03E54FF00006E1FB18
:100DD80003569CF0000F18BF4EF0010EA4F1FF045B
:100DE800B6F5007F64F5407404D25FEA4E0E6D419B
:100DF80046EB060642EAC62141EA55514FEAC520AC
:100E080040EA5E504FEACE2EB4F1FD0C88BFBCF527
:100E1800E06F1ED8BEF1004F08BF5FEA500E50F1D8
:100E2800000041EB045170BD06F0004646EA01019E
:100E380040EA020081EA0301B4EB5C04C2BFD4EBD0
:100E48000C0541EA045170BD41F480114FF0000EC9
:100E5800013C00F3AB8014F1360FDEBF002001F037
:100E6800004170BDC4F10004203C35DA0C341BDCB1
:100E780004F11404C4F1200500FA05F320FA04F083
:100E880001FA05F240EA020001F0004221F00041B7
:100E980010EBD37021FA04F642EB06015EEA430E2A
:100EA80008BF20EAD37070BDC4F10C04C4F120055A
:100EB80000FA04F320FA05F001FA04F240EA02000D
:100EC80001F0004110EBD37041F100015EEA430EDE
:100ED80008BF20EAD37070BDC4F1200500FA05F2FE
:100EE8004EEA020E20FA04F301FA05F243EA02037D
:100EF80021FA04F001F0004121FA04F220EA02008C
:100F080000EBD3705EEA430E08BF20EAD37070BDD1
:100F180094F0000F0FD101F00046400041EB0101B1
:100F280011F4801F08BF013CF7D041EA060195F093
:100F3800000F18BF704703F00046520043EB03034D
:100F480013F4801F08BF013DF7D043EA060370473A
:100F580094EA0C0F0CEA135518BF95EA0C0F0CD045
:100F680050EA410618BF52EA4306D1D181EA03018B
:100F780001F000414FF0000070BD50EA410606BF85
:100F88001046194652EA430619D094EA0C0F02D1CA
:100F980050EA013613D195EA0C0F05D152EA03360F
:100FA8001CBF104619460AD181EA030101F000412D
:100FB80041F0FE4141F470014FF0000070BD41F076
:100FC800FE4141F4780170BD70B54FF0FF0C4CF450
:100FD800E06C1CEA11541DBF1CEA135594EA0C0F6F
:100FE80095EA0C0F00F0A7F8A4EB050481EA030EBC
:100FF80052EA03354FEA013100F088804FEA0333A3
:101008004FF0805545EA131343EA12634FEA022270
:1010180045EA111545EA10654FEA00260EF0004131
:101028009D4208BF964244F1FD0404F5407402D283
:101038005B084FEA3202B61A65EB03055B084FEA14
:1010480032024FF480104FF4002CB6EB020E75EB11
:10105800030E22BFB61A754640EA0C005B084FEA39
:101068003202B6EB020E75EB030E22BFB61A7546B6
:1010780040EA5C005B084FEA3202B6EB020E75EB01
:10108800030E22BFB61A754640EA9C005B084FEA79
:101098003202B6EB020E75EB030E22BFB61A754686
:1010A80040EADC0055EA060E18D04FEA051545EA75
:1010B80016754FEA06164FEAC30343EA52734FEA1E
:1010C800C2025FEA1C1CC0D111F4801F0BD141EA97
:1010D80000014FF000004FF0004CB6E711F4801FFC
:1010E80004BF01430020B4F1FD0C88BFBCF5E06FDC
:1010F8003FF6AFAEB5EB030C04BFB6EB020C5FEAEC
:10110800500C50F1000041EB045170BD0EF0004E40
:101118004EEA113114EB5C04C2BFD4EB0C0541EA72
:10112800045170BD41F480114FF0000E013C90E66F
:1011380045EA060E8DE60CEA135594EA0C0F08BF33
:1011480095EA0C0F3FF43BAF94EA0C0F0AD150EA32
:1011580001347FF434AF95EA0C0F7FF425AF1046C5
:1011680019462CE795EA0C0F06D152EA03353FF4ED
:10117800FDAE1046194622E750EA410618BF52EA6A
:1011880043067FF4C5AE50EA41047FF40DAF52EA3E
:1011980043057FF4EBAE12E74FF0FF3C06E000BFDB
:1011A8004FF0010C02E000BF4FF0010C4DF804CDE8
:1011B8004FEA410C7FEA6C5C4FEA430C18BF7FEAA8
:1011C8006C5C1BD001B050EA410C0CBF52EA430CD6
:1011D80091EA030F02BF90EA020F0020704710F156
:1011E800000F91EA030F58BF994208BF90422CBFE5
:1011F800D8176FEAE37040F0010070474FEA410CDE
:101208007FEA6C5C02D150EA013C07D14FEA430CFB
:101218007FEA6C5CD6D152EA033CD3D05DF8040B6C
:10122800704700BF8446104662468C46194663469E
:1012380000E000BF01B5FFF7B7FF002848BF10F175
:10124800000F01BD4DF808EDFFF7F4FF0CBF0120BA
:1012580000205DF808FB00BF4DF808EDFFF7EAFF36
:1012680034BF012000205DF808FB00BF4DF808EDF1
:10127800FFF7E0FF94BF012000205DF808FB00BFE6
:101288004DF808EDFFF7CEFF94BF012000205DF870
:1012980008FB00BF4DF808EDFFF7C4FF34BF01207D
:1012A80000205DF808FB00BF4FEA410212F500126A
:1012B80015D211D56FF47873B3EB625212D94FEA95
:1012C800C12343F0004343EA505311F0004F23FA7F
:1012D80002F018BF404270474FF00000704750EAD4
:1012E800013005D111F0004008BF6FF00040704791
:1012F8004FF00000704700BF00F026F80C4880F35C
:101308000888002103E00B4B5B58435004310A481E
:101318000A4B42189A42F6D3094A02E0002342F8DF
:10132800043B084B9A42F9D300F024FB70470000B5
:10133800000001209C4C000800000020F400002060
:10134800F4000020E80500207047FEE710B57F2074
:1013580000F0A2FFBDE8104000F0A6BF704770473C
:1013680070477047704770477047704770477047BD
:10137800704770477047000010B54FF4804000F088
:1013880059FC012802D14FF4804014E04FF400507A
:1013980000F050FC012806D10948002100F036FC75
:1013A8004FF4005007E04FF4004000F043FC0128E0
:1013B80005D14FF40040BDE8104000F04BBC10BD13
:1013C8004400024010B54FF4802000F033FC01289F
:1013D80002D14FF4802012E04FF4003000F02AFCD4
:1013E800012804D1084B18704FF4003007E04FF47F
:1013F800002000F01FFC012805D14FF40020BDE8B3
:10140800104000F027BC10BDFC000020704770475A
:10141800704770477047704770477047704770470C
:1014280070477047704700002DE9F041574800F0B9
:1014380054FD574B1860574B984243D00AD83F3B4E
:10144800984218D0013398422ED0B0F5806F40F002
:101458009A8092E0504B98425FD004D84F4B984204
:1014680040F091802EE04E4B984222D002339842B1
:1014780040F0898060E04548012100F0FCFC012231
:1014880042484FF4806100F003FD464B1A78464B02
:101498001AB959783D48013202E059783B48002290
:1014A800BDE8F04100F004BD404B00221A80BDE8C1
:1014B800F0813F4B00221A803B4AD2681178012202
:1014C8001A8034E0394E384D34882B7A9C4206D243
:1014D8002E48EF6800F0E9FC3855013434802A7A48
:1014E8003388013A934209D10021284800F0C3FC0F
:1014F80026480121BDE8F04100F0B0BC2A4A127A22
:10150800934240D12B4B012421461C702A4800F0FD
:1015180014FC2146221A28482AE0254A2249138821
:10152800087A83422FD2C968C95C013313801748EF
:10153800BDE8F04100F0B7BC1B4B1A7A1C4B198868
:10154800914220D100221A80104800224FF4806175
:1015580000F09EFC194B012119700C4800F07EFC2C
:101568000221154800F0E9FBC0F1010212480221EE
:10157800D2B2BDE8F04100F0E6BB04481049BDE82E
:10158800F04100F0B2BCBDE8F08100BF0058004057
:10159800F40000204000030080000700440003001E
:1015A80082000700FD000020D8050020040100206B
:1015B800000100200201002000100140FE00002070
:1015C8000004000110B51348134900F092FC18B14B
:1015D8001048114900F09BFC0E48104900F089FCA6
:1015E80018B10C480D4900F092FC0A480C4900F06B
:1015F80080FC18B107480A4900F089FC05480949E8
:1016080000F077FC28B103480649BDE8104000F017
:101618007EBC10BD0058004000040001000100011C
:1016280000020001000800017047704770477047CA
:1016380070477047704770477047704770477047EA
:1016480070477047704770477047704770477047DA
:101658007047704770477047704700001149002372
:1016680010B50B804BF6FF734B8004238B804FF42F
:101678008063CB804FF480430B810B4B0B48CB60CE
:1016880000F066FB012209484FF4E06100F000FC1D
:101698000121064800F014FC04480121BDE810406F
:1016A80000F0C2BB0C010020A086010000580040D9
:1016B80070B5184D0C2300244FF4612629461648AE
:1016C8006B812E60AC80EC802C81AC8100F078FDC1
:1016D800294612482E6000F073FD012240210E4871
:1016E80000F0C5FD01210E4800F090FA012280218A
:1016F800094800F0BCFD21460A4800F087FA01219C
:10170800054800F0A7FD05480121BDE8704000F03C
:10171800A1BD00BFC40500200038014000440040BE
:10172800580002404400024010B54FF4803000F0E9
:1017380049FC00F02FFD214B01280446187024D1E4
:10174800102000F09FFA022000F090FA002000F02C
:1017580079FC002000F08AFC4FF4806000F07CFCEB
:101768004FF480304FF4801100F048FC204600F020
:1017780051FC392000F0FAFC0028FAD0022000F0D1
:101788004FFC00F057FC0828FBD10120014600F06F
:10179800C9FC01214FF4804000F0D0FC01214FF436
:1017A800003000F0D7FC01214FF4C00000F0D2FC5B
:1017B8001D200121BDE8104000F0C0BC0801002038
:1017C80073B5C0230324ADF8043001A91C232648AF
:1017D80004258DF807308DF8064000F05FFA4FF4C5
:1017E800406301A92048ADF8043000F057FA4FF4DF
:1017F80080630DEB05011D48ADF8043018268DF8FF
:10180800075000F04BFA4FF400730DEB0501174831
:10181800ADF804308DF806408DF8076000F03EFA08
:1018280008230DEB05011148ADF804308DF8075079
:1018380000F034FA0DEB05010C48ADF804508DF8B2
:1018480006408DF8076000F029FA0723ADF8043048
:10185800074810230DEB05018DF806408DF8073079
:1018680000F01CFA7CBD00BF000C014000080140DC
:101878000010014070B50021164C4FF0006000F0D8
:1018880097FB4FF4407000F047FB01252123002609
:10189800204623706670E57000F048FB222320463E
:1018A800237000F043FB0F23204623706670E57019
:1018B80000F03CFB0E23204623706570E57000F0B5
:1018C80035FB0223204626706370E570BDE8704042
:1018D80000F02CBBD40500202DE9F04721488CB03E
:1018E800DFF88890DFF8888000F0FAF800244FF4D9
:1018F8008067802620254FF4405A01A91948CDF861
:101908000490CDF8088003940497059406960794EC
:1019180008940995CDF828A00B9400F057F90122F6
:101928000E21104800F07CF90F4800F0D9F8102378
:1019380001A90D48CDF80490CDF8088003930497C9
:1019480005940696079408940995CDF828A00B9459
:1019580000F03CF904480E21012200F061F90CB0B6
:10196800BDE8F087580002404400024004380140B6
:101978001C0100202DE9F041FFF7D6FEFFF77AFFA2
:10198800FFF71EFFFFF7A8FFFFF792FEFFF766FEBF
:10199800414EFEF725FC33783546012BF8D13F48F8
:1019A80001F026FB00243E4BE2019F5C9918002FB2
:1019B80059D09F5CDFF8EC8088F800704F7888F881
:1019C8000170897888F8021098F8021021B1033262
:1019D800D218C8F8042001E0C8F8041098F80200EA
:1019E800E101033008181B5C2E4A88F8083098F883
:1019F800083033B1937804335918294BC918D1608A
:101A080000E0D36098F80030012B194602D0022B71
:101A180029D113E06B70244800F013FA01E0FEF7B7
:101A2800DFFBAB781C4F002BF9D098F800201F483B
:101A3800B98800F03FFC0023BB7014E000236B70F2
:101A48001948012100F0FDF901E0FEF7C9FBAB7967
:101A5800114F002BF9D098F800201548B98800F0EC
:101A680029FC0023BB710134082C9CD1114801F0DA
:101A7800BFFA002304211048337000F05EF9C0F16A
:101A8800010204210C48D2B200F05DF90B48012193
:101A980000F0BCF87CE700BFFC000020A04B000869
:101AA8001C010020D805002000580040BC4B00084D
:101AB800E74B00080F4C00080010014044000240AA
:101AC80010B50446E1B2054800F0DCFB034880216C
:101AD80000F0DCFB0028F9D0204610BD004400408F
:101AE800036882B023F001030360002303604360AE
:101AF8008360C3602D4B0190984231D011D83C3B94
:101B0800984227D006D8283B98421FD014339842D1
:101B180049D11DE0264B98421ED01433984242D139
:101B28001CE0244B98422AD006D8234B98421CD05C
:101B3800224B984237D11DE0214B984229D01433CB
:101B480098422BD0283B98422DD11DE01D4B12E026
:101B58001C4B15E01B4B18E01A4B1BE0194B1EE001
:101B6800184B5A6842F470021CE0164B5A6842F04F
:101B7800706217E0144B5A6842F00F0212E0124BE1
:101B88005A6842F0F0020DE00F4B5A6842F4706256
:101B980008E00D4B5A6842F4704203E00A4B5A6859
:101BA80042F470225A6002B0704700BF6C000240D5
:101BB800440002401C040240800002400804024025
:101BC8004404024000000240000402408A6810B544
:101BD8000C6A036844EA02020C6923F4FE432243B8
:101BE8004C6923F0F00322438C692243CC692243D9
:101BF8004C6A22438C6A224342EA03030360CB689F
:101C080043600B6883604B68C36010BD19B10368FB
:101C180043F0010302E0036823F001030360704707
:101C280012B10368194302E0036823EA0101016065
:101C38007047000010F0805F14BF044B044B1B6812
:101C480003420CBF00200120704700BF000402407F
:101C58000000024010F0805F14BF024B024B586036
:101C6800704700BF0004024000000240044B1A689D
:101C780002F038021A601A6840EA02021A607047D5
:101C880000200240044B1A6822F010021A601A68F9
:101C980040EA02021A60704700200240CB78F0B593
:101CA80013F0100F03F00F020E881CBF8B781A4335
:101CB80016F0FF0F1DD00468002301279F4007EA94
:101CC8000605BD4211D19F004FF00F0C0CFA07FC1E
:101CD80012FA07F724EA0C043C43CF78282F01D1E5
:101CE800456102E0482F08BF05610133082BE4D1A4
:101CF80004600E88FF2E1FD94468002303F10805ED
:101D08000127AF4007EA0605BD4211D19F004FF0F9
:101D18000F0C0CFA07FC12FA07F724EA0C043C43F0
:101D2800CF78282F01D1456102E0482F08BF05610F
:101D38000133082BE2D14460F0BDC36819420CBFDF
:101D48000020012070470AB1016170474161704766
:101D5800F0B587B00446868801A80D46304F00F0DC
:101D68008FF9039826F03F063604B0FBF7F7360CD8
:101D7800BFB247EA0606A6802188EA6821F0010179
:101D8800284B0904090C9A4221800AD85300B0FB59
:101D9800F3F301379BB2BFB22784032B98BF042308
:101DA80022E069884BF6FF73994205D102EB4202A3
:101DB800B0FBF2F39BB206E019235343B0FBF3F3F5
:101DC8009BB243F480431A05120D0AB943F001038C
:101DD8004FF4967257434FF47A7297FBF2F7013734
:101DE800BFB243F400432784A3832388E9889BB2C6
:101DF80043F00103238023882A8823F4806323F097
:101E08000A031B0441EA02021B0C13439BB2238002
:101E1800AA882B8942EA03039BB2238107B0F0BD4D
:101E280040420F00A086010021B103889BB243F015
:101E3800010304E0038823F001031B041B0C038047
:101E4800704721B103889BB243F4807304E0038890
:101E580023F480731B041B0C0380704721B1038893
:101E68009BB243F4007304E0038823F400731B045B
:101E78001B0C0380704721B103889BB243F4806335
:101E880004E0038823F480631B041B0C0380704761
:101E98001AB183889BB2194303E083889BB223EA73
:101EA80001018180704701827047008AC0B2704783
:101EB80012B141F0010101E001F0FE010182704719
:101EC80021B903889BB243F0800304E0038823F020
:101ED80080031B041B0C03807047838A008B9BB212
:101EE80043EA004020F07F407047C94389B28182AD
:101EF80070478388808A9BB280B2084006D001F080
:101F0800E06113EA11410CBF002001207047C9436A
:101F180089B281827047000040F0BE60024B40F4F5
:101F28002020D860704700BF00ED00E0C37870B58E
:101F38006BB31D4B4578DB688178DB4303F4E063C2
:101F48001B0AC3F1040215FA02F20F25DD400D4009
:101F5800154302782D0102F00304E400FF21A54097
:101F6800A140124B9208C03253F8226026EA0104BD
:101F780005EA0101214343F82210027801205109A2
:101F880002F01F0210FA02F243F8212070BD037814
:101F98000122590903F01F0312FA03F3034A2031FF
:101FA80042F8213070BD00BF00ED00E000E100E024
:101FB80021F0604121F07F01014B01439960704796
:101FC80000ED00E00C4BB0F5803F1A6822F4803237
:101FD8001A601A6822F480221A6003D0B0F5802FA4
:101FE80009D104E01A6842F480321A6070471A680E
:101FF80042F4A0221A60704700100240044B5A684D
:1020080022F47C1240EA02020A435A60704700BF79
:1020180000100240014B1860704700BF6000424248
:10202800034B5A6822F0030240EA02025A607047E2
:1020380000100240024B586800F00C00704700BFC7
:1020480000100240034B5A6822F0F00240EA0202F4
:102058005A60704700100240034B5A6822F4E0624D
:1020680040EA02025A60704700100240034B5A6867
:1020780022F4605242EAC0025A60704700100240DF
:1020880010B5224B5A6802F00C02042A03D0082A21
:1020980004D01F4B00E01F4B036012E05A685968D8
:1020A80002F47012920C023211F4803F01D11A4BE3
:1020B80005E05B6813F4003F14BF184B154B5A43F7
:1020C8000260124A164B5168046801F0F0010909D0
:1020D800595C34FA01F14160546804F4E064240A5C
:1020E8001C5D31FA04F48460546804F46054E40A12
:1020F8001C5DE140C160526802F4404203EB923338
:102108001B7CB1FBF3F1016110BD00BF0010024060
:1021180000127A00001BB70000093D00808D5B00AB
:10212800C4480008044B11B15A69104302E05A69C7
:1021380022EA00005861704700100240044B11B1B8
:102148009A69104302E09A6922EA00009861704790
:1021580000100240044B11B1DA69104302E0DA6959
:1021680022EA0000D8617047001002404309012BA1
:10217800074A01D1136803E0022B0CBF136A536AA4
:1021880000F01F0033FA00F000F00100704700BFB4
:102198000010024007B5002301933120FFF7E6FF46
:1021A800019B0133019318B9019BB3F5A06FF4D1DA
:1021B8003120FFF7DBFF003818BF01200EBD0000FB
:1021C80030B589B00190038ACA8823F440531B04B0
:1021D8001B0C134303820D4683890989AA8823F4BB
:1021E800B05341EA0202698923F00C030A431B0435
:1021F8001B0C92B242EA03038381838AAA8923F4DF
:1022080040731B041B0C13430446838203A8FFF787
:1022180037FF0F4B2A689C420CBF069B059B192170
:102228004B439200B3FBF2F16423B1FBF3F21201CA
:10223800100903FB101109013231B1FBF3F303F06C
:102248000F0343EA020292B2228109B030BD00BFF7
:102258000038014021B183899BB243F4005304E064
:10226800838923F400531B041B0C838170471AB124
:10227800838A9BB2194303E0838A9BB223EA010154
:1022880081827047C905C90D81807047038819424A
:102298000CBF002001207047024B00F07F0018603F
:1022A800704700BF002C0040014B00229A60704725
:1022B800002C00400FB400B583B004AA08CA0493E8
:1022C80001920020191C00F083FE03B008BC04B082
:1022D8001847C04600000000F0B55F4656464D4618
:1022E8004446F0B4C64CA54409900F1C1E1C9346E6
:1022F800C24AC1491491159200220D92109213926C
:10230800C04B089307926C46A534069459460B783F
:10231800002B01D0252B01D15C4606E05C46013438
:102328002378002B01D0252BF9D15A46A51A002D68
:1023380007D05846291C3A1C00F076FE0D9B5B1905
:102348000D930023E356002B01D100F013FE013456
:10235800A346AD4B6B4400241C70189600210C91C9
:102368000E91012253429946181C10244025082634
:102378009C4601E0189A18925946097809060916E8
:102388000B910122934400E00E920B9B203B582BAB
:1023980001D900F0EFFB9B000899CB589F469B4A58
:1023A800139250E3189A1BE0974B6B441B781B065B
:1023B8001B16002BDED12022934B6B441A70189AFF
:1023C800D9E701230C9919430C91189AD3E7189A65
:1023D8000432189B1B680E93002BCCDA5B420E93D9
:1023E80004230C9919430C91C5E72B22864B6B44A7
:1023F8001A70189ABFE75A461278120612160B92EC
:1024080001239B442A2A04D0303A092A0AD9079979
:1024180017E0189A04321899096889460029AADA37
:102428008146A8E707998B005B185B0099185A4604
:102438001278120612160B9201239B44303A092A8D
:10244800F1D900298946A0DAE1469EE780230C9954
:1024580019430C91189A8EE7079A93009B185B0012
:102468000B9A303AD2185B461B781B061B160B9347
:1024780001218B44303B092BEFD985E70C9A324375
:102488000C92189A77E70C9B2B430C93189A72E7D7
:102498005A460023D3566C2B06D1013293460C9929
:1024A80021430C91189A66E70C9A22430C92189AC9
:1024B80061E70C9B23430C93189A5CE70C9B189CD0
:1024C8000B99432901D0DA0611D524AB00211960F4
:1024D800596022680998069901F08AFE8046021C14
:1024E800013201D100F046FD0434189407E0231DA1
:1024F80018932368A5246C44237001218846424B15
:102508006B4400221A70A5236B449A4600F04FFDD5
:1025180010230C9C1C430C940C99C90605D5189AD9
:1025280004321792189B1D680FE00C9C640607D5AF
:10253800189904311791189A13881B041D1404E084
:10254800189B04331793189C2568002D01DB012282
:10255800A0E26D422D222C4B6B441A70012299E2A5
:102568000B9E0C9C4B464946013102D106229146EE
:1025780007E0672E01D0472E03D1002B01D101239C
:10258800994621070BD5189B0733072293431A1C3A
:102598000832189219685A68149115920AE0189B23
:1025A8000733072293431A1C0832189219685A688D
:1025B8001491159214981599FDF73CFF002829D01D
:1025C800149815990D4B0C4AFEF746FE002806D1C3
:1025D8000F4A9246002399460324A046DCE22D22A6
:1025E800094B6B441A700A498A460322904600F048
:1025F800D4FCC046C046C0460000000000000000F1
:102608009CFDFFFFD84800085F020000304C00081E
:10261800444C000814981599FDF71EFF002806D0B1
:10262800B54B9A460024A14603218846B4E280238C
:102638005B001C430C94662E03D14A461992032270
:102648000BE0652E05D0452E03D04946199102228C
:1026580003E04946013119910222149B159C002C74
:1026680004DB251C1C1C00230F9305E0149C159902
:10267800A24BCD182D210F910092199A019296AB79
:10268800029327AB039326AB04930998221C2B1CB7
:1026980000F0B6FD8246672E01D0472E02D10C9B72
:1026A800DB072CD519998846D044662E12D152469C
:1026B8000023D356302B0BD1201C291C8D4B8C4A60
:1026C800FEF7C0FD002803D1012319995B1A9693E0
:1026D800969B9844201C291C864B854AFEF7B2FD20
:1026E800002803D1269B984503D808E04246269245
:1026F80005E030221A70013326939845FAD8269BB4
:1027080054461C1B1194331C673B5A425A41002AF9
:1027180001D1472E0BD1969B191D01DD994579DA18
:10272800002A01D000F032FC45220B9201E0652E10
:102738004FDC969B5D1E9695714B6B440BAC2478D1
:102748001C70002D05DA6D422D226D4B6B445A70BA
:1027580003E02B226A4B6B445A70092D21DD24AE0D
:10276800341C013C281C0A21FEF73CF93031217049
:10277800281C0A21FDF7ECFF051C0928F1DC013CA7
:10278800031C30332370A64202D85E49694411E025
:102798005C49694423780B7001310134A642F9D8A9
:1027A80008E0574B6B4430229A702A1C3032DA709A
:1027B80055496944524B6B44CB1A1093984611996A
:1027C8008844012902DC0C9AD2073AD5012398449F
:1027D80037E0662E20D1969CA046002C0DDD494698
:1027E800002904D10C9AD20701D40B9629E043465C
:1027F80001339846C8440B9623E04946002905D181
:102808000C9AD20702D4012398461AE00224A04663
:10281800C84416E067210B91969A9046119B9845FB
:1028280005DB0C9CE4070CD50121884409E0002A4B
:1028380001DD012002E002234446181B1199091802
:1028480088460F9A002A00D1A4E12D222F4B6B4411
:102858001A70A2E30C9BDB0606D5189E0436189C5A
:1028680023680D99196051E50C9A520608D5189EEF
:102878000436189C236869463422515A198045E564
:10288800189E0436189A13680D9C1C603EE51023A8
:102898000C9919430C910C9AD20606D5189B04334F
:1028A8001793189C25680022F0E00C99490606D574
:1028B800189A04321792189B1D880022E6E0189C8B
:1028C8000434179418990D680022DFE0189A04322E
:1028D8001792189B1D6802230C9C1C430C947821AA
:1028E8000B9102220A4B1393D0E0C046C046C04663
:1028F8000000000000000000484C000800000080B4
:102908005102000053020000550200005F0200005F
:102918004C4C00080B990C984D46189AA74B6B44E1
:1029280000241C70189B0433189312689246002ADE
:1029380004D1A34CA2460621884638E3532901D086
:10294800C20649D5544627941AAB0021196059602C
:10295800002D18DB884600241E1C279B1A59002AC4
:102968001FD009980699331C01F042FC421C00D183
:1029780000E34044A84214DC0434854201D1804677
:102988000FE08046E9E71AAB00930998002127AACF
:10299800002301F0E5FB8046031C013300D1E9E286
:1029A80027944446002C00D1F4E01AAB00211960AA
:1029B8005960009309988349694427AA434601F05E
:1029C800CFFB804500D0D5E27E4B6B4400221A55E0
:1029D8009A4600239946DFE0002D0EDB5046002181
:1029E8004A46FDF73BFC002800D1DFE25446041BB1
:1029F800A046C84500DDD9E2D9E25046FDF73AFDC8
:102A08008046D4E210230C9919430C910C9AD206F3
:102A180006D5189B04331793189C2568012235E0C6
:102A28000C99490606D5189A04321792189B1D88E6
:102A380001222BE0189C0434179418990D68012280
:102A480024E0614A13920C9BDB0605D5189C0434DC
:102A5800179418990D680DE00C9A520605D5189B25
:102A680004331793189C258804E0189904311791AA
:102A7800189A15680C9BDB0701D5002D01D102229D
:102A880004E002230C9C1C430C9402224B4B6B4425
:102A9800002119704B46002B00DA7BE280230C9C46
:102AA8009C430C94474E6E44002D02D149460029A0
:102AB8004ED0012A0AD0002A0CD0022A39D0179AFF
:102AC8001892424B9A461924A04665E0092D1BD856
:102AD800341C28E0B2460722012149428A442B1CB3
:102AE800134030331B061B0E54462370ED08002D8F
:102AF800F2D152460C99C90736D5302B34D0013A59
:102B08009246302313702FE0341C013C281C0A2104
:102B1800FDF710FE30312170281C0A21FDF7DCFC7E
:102B2800051C0928F1D8013CA2462B1C3033237020
:102B38001AE0B2460F2201235B429A442B1C134031
:102B4800139CE35C51460B702D09002DF3D10BE06B
:102B5800002A08D10C9AD20705D5731E9A4630234D
:102B68005446237000E0B2465146711A8846179AB7
:102B7800189211E00B9B002B00D1FBE1A5246C44BB
:102B880023700E4B6B4400211970069A924601235C
:102B980098460CE20024A14641461291C84501DA44
:102BA80049461291054B6B441B781B061B16002BDC
:102BB8000ED012990131129110E0C0465F02000058
:102BC800604C0008010200004C4C0008684C0008EA
:102BD8000C9A920702D5129B0233129384230C9C01
:102BE8001C400A941CD10E99129A8E1A002E17DDD9
:102BF800102E10DD341CC04D281C10213A1C00F08A
:102C080013FA103C102CF7DC331C113B1B091B0179
:102C1800321C103AD61AB848311C3A1C00F004FA93
:102C2800B64B6B441B781B061B16002B06D0B3480B
:102C3800684401213A1C00F0F7F90DE00C9B9B0752
:102C48000AD56846A330302303700BAC247844704F
:102C580002213A1C00F0E8F90A9980291FD10E9A3E
:102C6800129BD51A002D1ADD102D12DD2C1CA24B3B
:102C78001E1C1036301C10213A1C00F0D5F9103CEF
:102C8800102CF7DC2B1C113B1B091B012A1C103ACA
:102C9800D51A99481030291C3A1C00F0C5F94C4641
:102CA8004146651A002D1ADD102D12DD2C1C924BA1
:102CB8001E1C1036301C10213A1C00F0B5F9103CCF
:102CC800102CF7DC2B1C113B1B091B012A1C103A8A
:102CD800D51A89481030291C3A1C00F0A5F90C9A1D
:102CE800D20505D4504641463A1C00F09DF916E13C
:102CF8000B9B652B00DCB7E0149815997D4B7C4A3B
:102D0800FEF7A0FA002832D07D4801213A1C00F0D5
:102D18008BF9969B119C9C4203DC0C99C90700D443
:102D2800FDE0784801213A1C00F07EF9119D013D33
:102D3800002D00DCF3E0102D12DD2C1C6E4B1E1C48
:102D48001036301C10213A1C00F06EF9103C102C83
:102D5800F7DC2A1C103A119B123B1B091B01D51AE0
:102D680065481030291C3A1C00F05EF9D7E09699A6
:102D7800002935DC624801213A1C00F055F9969B80
:102D8800002B03D1119A002A00D1C8E05D48012127
:102D98003A1C00F049F9969B5D42002D1ADD102D72
:102DA80012DD2C1C544B1E1C1036301C10213A1CF2
:102DB80000F03AF9103C102CF7DC2B1C113B1B09D6
:102DC8001B012A1C103AD51A4B481030291C3A1CF2
:102DD80000F02AF9504611993A1C00F025F99EE0B6
:102DE800119B8B422DDC5046191C3A1C00F01CF933
:102DF800969B119C1D1B002D1ADD102D12DD2C1C1D
:102E08003D4B1E1C1036301C10213A1C00F00CF9EA
:102E1800103C102CF7DC2B1C113B1B091B012A1C36
:102E2800103AD51A34481030291C3A1C00F0FCF826
:102E38000C99C90773D5334801213A1C00F0F4F8FE
:102E48006DE050463A1C00F0EFF8969C54442D482B
:102E580001213A1C00F0E8F89699119A511A201CA1
:102E68003A1C00F0E1F85AE0119B012B02DC0C9CA3
:102E7800E40749D56846A33051460B7803702E23E2
:102E8800437002213A1C00F0CFF814981599194B99
:102E9800174AFEF7D7F9002807D150460130119993
:102EA80001393A1C00F0C0F833E0119D013D002DB6
:102EB8002FDD102D12DD2C1C0F4B1E1C1036301C64
:102EC80010213A1C00F0B0F8103C102CF7DC2A1C3A
:102ED800103A119B123B1B091B01D51A06481030EA
:102EE800291C3A1C00F0A0F813E0C046C046C046B2
:102EF80000000000000000003C4A00085F020000DB
:102F0800844C0008884C0008504601213A1C00F007
:102F18008BF82C48684410993A1C00F085F80C9AF4
:102F280052071CD50E9B129C1E1B002E17DD102E5F
:102F380010DD341C244D281C10213A1C00F074F8B4
:102F4800103C102CF7DC331C113B1B091B01321CF5
:102F5800103AD61A1C48311C3A1C00F065F80E9A33
:102F680012998A4200DA0A1C0D9B9B180D93189E31
:102F7800FFF7CCF90D9899239B009D443CBC9046E3
:102F88009946A246AB46F0BC02BC084765240B94A0
:102F9800FFF7CFFB0D4E6E448BE541461291002999
:102FA80001DA002212920023994602E6C8464446F6
:102FB80012944146002901DA002212920023994610
:102FC80006E6C046510200003C4A00080102000023
:102FD80070B5041C0D1C131C044A1068211C2A1C03
:102FE800FFF77AF970BC02BC0847C0460000002011
:102FF80070B5041C00280FD0007800280CD00025DC
:10300800013400060016FEF75BFD0135002C04D0E4
:1030180020780028F4D100E000250A20FEF750FDB2
:10302800281C70BC02BC084770B5061C0D1C111C7E
:10303800002A08D00E228B5E013304D18A898223AC
:103048009B001A4202D1002D0FD115E00868041C1C
:10305800002D08D00022AC46B35C8354013263468D
:103068009542F9D1E4180C6006E000243057FEF7C9
:1030780027FD0134A542F9D170BC01BC0047C04608
:10308800F0B55F4656464D464446F0B487B00290C8
:1030980001910A6903699A4201DD0020A3E00198C1
:1030A800814614208144511E8846039103329200C0
:1030B8000198831804339B46029914310591029BA9
:1030C8009A185846016801315068FDF705FA0490CE
:1030D800002844D0059D4E4600218C468A46464F1E
:1030E80004CE131C3B400498191C414351440C0C5A
:1030F800120C131C4343E418220C92462B68181C2C
:10310800384060443940401A1B0C3C401B1B0214D9
:103118009B1819148C466B8028800435B345DFD280
:10312800039B04339B00029AD3185B68002B16D1CB
:10313800039B04339B00D218059B93420CD213685F
:10314800002B09D1012040428044043A059991425C
:1031580002D21368002BF5D04246029B1A610298EE
:10316800019901F0B1F900283CDB04980130049082
:10317800059C0026204D4A4604329146043A02CA6C
:103188002368181C28400A1C2A40801A80191B0C26
:10319800090C29405B1A02149B181E1463802080B6
:1031A8000434CB45E7D24246434604339B00029899
:1031B800C3185B68002B15D1131D9B00C218059915
:1031C80091420CD21368002B09D101235B42984429
:1031D800043A0598904202D21368002BF5D0414674
:1031E800029A1161049807B03CBC90469946A246E1
:1031F800AB46F0BC02BC0847FFFF0000000000001F
:10320800F0B55F4656464D464446F0B4BC4CA5441E
:103218008346BC486844016808920993099A002AC1
:1032280005DA01230B60B84B1A40099201E000232C
:103238000B60099CB54A231C134093421FD1B44B21
:10324800B449694409680B60089A002A03D123032A
:1032580001D1B14800E0B148B14C6C442468002C5D
:1032680001D100F051FFC21C0023D356002B00D01F
:103278000532AB49694409680A6000F045FF089ABD
:10328800099B0A920B93101C191C944B924AFDF748
:10329800D9FF002814D001239E4C6C442468236075
:1032A8009F4868440068002802D19E4800F02CFF1F
:1032B8009D4B9B49694409680B60581E00F024FF28
:1032C8009A4B6B4400939A4B6B440193994B6B4414
:1032D800029358460A9A0B9B01F096F982466300BE
:1032E8005D0D002D0BD00A980B99934B0B40191CC0
:1032F800924A1143924AAE180023179321E08C4852
:1033080068440368894969440A689B188D4A9D186E
:10331800202D0ADD2A1C203A089BD3401A1C402382
:103328005B1B9C40101C204303E020235B1B089878
:103338009840FDF7A9FC844C0919844AAE1801236A
:103348001793674A674BFDF761FB674A674BFDF7C1
:1033580011FD674A674BFDF75BFB041C0D1C301C15
:10336800FDF7A2FC644A654BFDF704FD021C0B1C2B
:10337800201C291CFDF74CFB041C0D1CFDF794FFB9
:103388001990201C291C554B534AFDF765FF00284E
:103398000BD01998FDF788FC221C2B1CFDF752FF57
:1033A800002802D1199C013C19941998162802D9B1
:1033B8000121139112E0664B199CE2009B180A98B0
:1033C8000B991A685B68FDF747FF002801D1139035
:1033D80004E019990139199100221392544C6C4454
:1033E8002368013B9A1B03D4159200200F9003E039
:1033F80052420F9200211591199A002A06DB159B5B
:103408009B18159316920024109407E00F981999A9
:10341800401A0F904A421092002316934D4C6C4468
:103428002468092C01D900F079FE052C01DC012162
:1034380005E0484A6A441168043911600021454B87
:103448006B441B68052B03D89B00434AD3589F46FF
:1034580001204042189011900122149223E0002389
:10346800149304E00124149415E0012014903B4ABD
:103478006A441268002A06DC012318931193374C1A
:103488006C4423600FE03548684400681890119038
:1034980009E000231493199C3048684400682418F4
:1034A800119401341894189A0E2A00D915E20029AB
:1034B80000D112E2199B002B00DC7DE0244A0F2387
:1034C800199C2340DB00D218166857682411E006BF
:1034D80046D40221884650E00000000000000000A9
:1034E800000000000000F83F61436F63A787D23FE8
:1034F800B3C8608B288AC63FFB799F501344D33FDB
:103508001CDFFFFF14210000FFFFFF7F0000F07F9A
:103518000F270000102100008C4C0008484C0008C0
:1035280018210000844C0008854C0008D8200000B1
:10353800DC200000181D0000FFFF0F000000F03F16
:1035480001FCFFFF32040000000010FECDFBFFFF6E
:10355800784A0008082100005C4A00080C21000095
:103568000F231C40C64B1A6A5B6A0A980B99FDF731
:103578002BFD0890099103229046002C13D0C04DD2
:10358800012399464846044209D0012188442A6803
:103598006B68301C391CFDF7EDFB061C0F1C641012
:1035A8000835002CEED108980999321C3B1CFDF710
:1035B8000BFD0890099128E0199A5442002C22D05A
:1035C800B04A0F232340DB00D218536812680A98C8
:1035D8000B99FDF7CFFB089009912411002C12D00C
:1035E800A74D022398460126344205D00122904473
:1035F8002A686B68FDF7BEFB64100835002CF3D110
:103608000890099101E002239846139C002C20D0D1
:10361800089C099D201C291C904B8F4AFDF71CFE15
:10362800002816D01898002813DD1199002900DC0D
:103638004FE1199A013A1292201C291C884A894B99
:10364800FDF798FB0890099101239844119CA14625
:1036580003E01898814619991291089E099F4046DF
:10366800FDF722FB321C3B1CFDF784FB7E4A7F4B97
:10367800FDF7CEF9041C844A8D184B46002B19D14E
:10368800301C391C7A4A7B4BFDF7C0F9061C0F1C0D
:10369800221C2B1CFDF7FEFD002800D0ABE3221CEA
:1036A8007A482B18301C391CFDF7D6FD002800D0AD
:1036B8009AE30EE11499002900D186E0714A4B463D
:1036C800013BDB00D218536812686B486B49FDF761
:1036D8007BFC221C2B1CFDF799F91A901B91301CBE
:1036E800391CFDF7E1FD041CFDF7DEFA021C0B1C7A
:1036F800301C391CFDF78AF9051C0E1C30341EAB32
:103708001C701A981B992A1C331CFDF7C3FD00284E
:1037180005D0129A19926F46793700F0E1FC4F49AB
:103728004D482A1C331CFDF771F9021C0B1C1A9812
:103738001B99FDF7AFFD002804D0129B19936F4623
:10374800793755E14C46012C00DCC2E06F467937E9
:103758000120804611E041493F482A1C331CFDF7EF
:1037680055F91A9A1B9BFDF777FD002800D03DE11B
:1037780001218844C14500DCABE01A981B99384AFE
:10378800384BFDF7F7FA1A901B91281C311C344A64
:10379800344BFDF7EFFA051C0E1CFDF785FD041CE4
:1037A800FDF782FA021C0B1C281C311CFDF72EF9B0
:1037B800051C0E1C30343C7001371A9A1B9BFDF710
:1037C8004BFD0028C7D000F089FC2E4A4B46013B30
:1037D800DB00D21810685168221C2B1CFDF7CAFAAE
:1037E8000C900D91301C391CFDF75EFD041CFDF793
:1037F8005BFA021C0B1C301C391CFDF707F9051C71
:103808000E1C30341EAB1C704A46012A40D16F464C
:1038180079370C980D99184A184BFDF7F9F82A1CB6
:10382800331CFDF719FD002800D0DFE012481349CA
:103838000C9A0D9BFDF7EAF82A1C331CFDF72AFDAC
:10384800002846D07A1E0023D356302B01D000F032
:1038580045FC171CF6E7C046000000000000F03FDA
:1038680000000000000024400000000000001C4090
:103878000000000000001440000000000000E03FCD
:10388800504B0008784A00080000C0FC0000008087
:10389800012398466F4679370124A044281C311C1F
:1038A800C04BBF4AFDF766FA051C0E1CFDF7FCFC71
:1038B800041CFDF7F9F9021C0B1C281C311CFDF730
:1038C800A5F8051C0E1C30343C700137C145E3D106
:1038D8009FE70A980B9908900991B74969440B68C2
:1038E800002B00DABDE0199A0E2A00DDB9E0B34BCF
:1038F800D2009B18186859681C901D91B0496944FA
:103908000968002902DA189A002A20DD089C099D16
:10391800201C291C1C9A1D9BFDF756FBFDF7C4FCB7
:103928008046FDF7C1F91C9A1D9BFDF723FA021C7E
:103938000B1C201C291CFDF769F8041C0D1C4246B1
:1039480030321EAB1A70189B012B12D124E0189C40
:10395800002C00DA48E21C981D99934A934BFDF716
:1039680009FA089A099BFDF78BFC002800D03BE276
:1039780043E28C4B8A4AFDF7FDF9041C0D1C8C4A66
:103988008C4BFDF75FFC002802D06F467937A7E320
:1039980001266F46793744E06F467937201C291C89
:1039A800221C2B1CFDF734F8041C0D1C1C981D99B7
:1039B800221C2B1CFDF750FC002819D11C981D99BE
:1039C800221C2B1CFDF73EFC002800D188E3404652
:1039D800C0070DD484E3914201D00F1C09E0199A65
:1039E8000132199230221EAB1A7007E0129B19930C
:1039F8001EAA791E0023CB56392BECD00B78013345
:103A08000B706DE3201C291C664B654AFDF7B2F963
:103A1800041C0D1C664A674BFDF714FC002800D0F7
:103A28005EE30136201C291C1C9A1D9BFDF7CCFA6D
:103A3800FDF73AFC8046FDF737F91C9A1D9BFDF708
:103A480099F9021C0B1C201C291CFCF7DFFF041C25
:103A58000D1C434630333B7001371898B042D1D122
:103A68009CE71499002903D10F9D109C00263AE089
:103A7800544A6A441268012A0FDC179C002C04D0AF
:103A880051481B180F9D109C20E0504969440A6852
:103A980036239B1A0F9D109C18E0189A013A109B28
:103AA800934201DB9C1A07E0109C131B1698C01860
:103AB8001690E418109400241899002902DB0B1CB6
:103AC8000F9D03E00F9A189BD51A00230F98C01872
:103AD8000F901599C9181591584601213C4A6A4416
:103AE80000F0E6FB061C002D0DDD159A002A0ADD04
:103AF800131CAA4200DD2B1C0F98C01A0F90ED1A58
:103B08001599C91A1591109A002A71DD149B002B7A
:103B180037D0002C1CDD2E4B6B449E4209D15846F1
:103B2800191C221C8B23DB006B4400F02BFE061CA7
:103B380007E05846311C221C254B6B4400F022FE3E
:103B4800061C5846311C5246224B6B4400F0BAFB07
:103B58001098A0424CD0204B6B449A4508D1584647
:103B6800191C109A1D4B6B4400F00CFE82463FE076
:103B780058465146109A184B6B4400F003FE824693
:103B880036E0154B6B449A452AD15846191C109AB1
:103B9800124B6B4400F0F6FD824629E0C046C04651
:103BA8000000000000002440000000000000144055
:103BB8000000000000000000D8200000784A00083B
:103BC8000C2100000821000033040000DC20000064
:103BD80058130000181A0000181D0000D80B000028
:103BE80058465146109AC34B6B4400F0CBFD8246B1
:103BF80058460121C04A6A4400F05AFB814616998A
:103C0800002914DDBC4B6B44994508D15846191C52
:103C1800169ABA4B6B4400F0B5FD814607E058464A
:103C28004946169AB44B6B4400F0ACFD8146B44A41
:103C38006A441268012A10DC089B002B0DD1099AEE
:103C480014030AD1AF4B1A4207D00F9801300F90D6
:103C5800159901311591012400E00024169A002AD3
:103C680001D1012209E04846036903339B004B4414
:103C7800586800F0BFFA20231A1A159952181F2302
:103C88001A400DD020239A1A042A07DD131F0F9A11
:103C9800D2180F92ED18C91815910AE0032A08DC0A
:103CA800131C1C330F98C0180F90ED181599C918DC
:103CB80015910F9A002A13DD8E4B6B449A4507D154
:103CC8005846191C904B6B4400F0ACFB824607E049
:103CD800584651460F9A874B6B4400F0A3FB824627
:103CE800159B002B14DD844B6B44994508D158462D
:103CF800191C159A814B6B4400F094FB814607E030
:103D080058464946159A7C4B6B4400F08BFB81461C
:103D18001398002847D05046494600F0D5FB0028A4
:103D280041DA199901391991724B6B449A450BD1B3
:103D3800754B6B44009358466E4969440A22002328
:103D480000F0CCFC824609E06A4B6B44009358466D
:103D580051460A22002300F0C1FC8246149A002A28
:103D680002D1119B18931EE0684B6B449E420ED102
:103D78008B23DB006B4400935846644969440A224C
:103D8800002300F0ABFC061C119818900BE05F4B69
:103D98006B4400935846311C0A22002300F09EFC15
:103DA800061C11991891189A002A2FDC544B6B4461
:103DB8001B68022B2ADD504B6B44994502D04E4BB1
:103DC8006B4401E04D4B6B44189C002C0CDB0093BA
:103DD800584649460522002300F080FC011C504645
:103DE80000F072FB002808DC494868440068C043BA
:103DF80019901EAF74E11299199131221EAB1A70F5
:103E0800199A013219926F46793769E1149B002B90
:103E180000D104E1002D15DD3C4B6B449E4209D1D5
:103E28005846191C2A1C8B23DB006B4400F0FAFA55
:103E3800061C07E05846311C2A1C344B6B4400F022
:103E4800F1FA061C002C01D1351C1BE072682F4CBE
:103E58006C44626001239340A36000232361E36004
:103E6800326902329200311C0C312A486844FCF74E
:103E780039FA5846211C01228B23DB006B4400F0E1
:103E8800D1FA051C0123089C1C400E94B0461EAFB5
:103E98007B42079317486844059050464946FFF708
:103EA800EFF8061C30365046414600F00DFB041C66
:103EB800584649462A1C184B6B4400F027FB011C46
:103EC800C368002B01D0012002E0504600F0FCFA44
:103ED8000B4A6A441168014320D10E9B002B1DD167
:103EE8003A1C392E4CD0002C00DD01361670571CB8
:103EF800F6E0C046181D0000980F000018080000E2
:103F0800082100000000F07FD80B000058130000C3
:103F18000C2100006413000018170000002C07DBB8
:103F2800864A6A441168214326D10E9B002B23D16F
:103F380000281EDD824B6B449A4507D15846191C50
:103F48000122804B6B4400F06DFA06E0584651465A
:103F580001227B4B6B4400F065FA494600F0B4FA45
:103F6800002803DC002804D1F40702D5392E07D035
:103F780001363E700137B3E0002809DD392E03D140
:103F880039233B7001379AE0731C3B700137A7E077
:103F98003E70013707983B1818998B4267D0059AED
:103FA80092450BD1674B6B4400935846644969446A
:103FB8000A22002300F092FB824609E0604C6C4420
:103FC8000094584651460A22002300F087FB824697
:103FD800A8450DD18B23DB006B44009358465A4902
:103FE80069440A22002300F079FB051C804654E747
:103FF800554C6C4426AB00935846211C0A220023DA
:1040080000F06CFB80468B23DB006B440093584622
:10401800211C0A22002300F061FB051C3DE7012456
:104028001EAF474D6D444748684480465046494650
:10403800FFF726F8061C30363E70013718998C4277
:1040480015DAAA4509D1424600925846291C0A2287
:10405800002300F043FB824607E00095584651468E
:104068000A22002300F03AFB82460134DEE7344B93
:104078006B449A4507D15846191C0122314B6B44B1
:1040880000F0D0F906E05846514601222C4B6B440B
:1040980000F0C8F9494600F017FA00280FDC00289C
:1040A80016D1F3070BD413E08A4201D0171C07E09E
:1040B800199C0134199431221EAB1A7010E01EA904
:1040C8007A1E1378392BEFD00133137008E0171CD0
:1040D8007A1E0023D356302BF9D001E0129819909C
:1040E80000233B70199B01331849694409680B6028
:1040F800174A6A441268002A01D11EA804E0144B2A
:104108006B441B681F601EA8124B9D443CBC904624
:104118009946A246AB46F0BC02BC084700240748B3
:1041280068440460012149421891119101221492B6
:104138000023094C6C442360FFF7CFFB08210000E3
:10414800181D0000D80B00005813000010210000B3
:1041580018210000E42000000C210000C046C046E1
:10416800F0B54F464646C0B485B08C4690461C1CF8
:104178000C9F002929D01368002C1ED01D1C27E095
:104188003A687B68864210D3012C0ED96246002A11
:1041980026D12B68002B0BD16346002B02D00023BD
:1041A8004246136000233B6008E03A607B6005E00C
:1041B8000130A04202D20435E2E7002005B00CBC71
:1041C80090469946F0BC02BC084715680124644231
:1041D8006B4606331B78994661460020661ECFE77A
:1041E8004A460A7001314246136804331360D0E727
:1041F8000120704700B5104B184201D0002201E0A1
:10420800000410220D4B184201D1083200020C4B59
:10421800184201D1043200010A4B184201D102327E
:104228008000002804DB430001D4202200E0013292
:10423800101C02BC0847C0460000FFFF000000FF3A
:10424800000000F0000000C000B5011C0268530720
:104258000DD0D30701D5002026E0930703D55308D6
:104268000360012020E09308036002201CE00F4B4C
:104278001A4201D0002001E0120C1020FF231A423C
:1042880001D10830120A130701D10430120993072B
:1042980001D102309208D30705D45208002A01D16F
:1042A800202001E001300A6002BC0847FFFF00003F
:1042B80001205060022393600023D3605161106194
:1042C800101C7047F0B55F4656464D464446F0B45C
:1042D80085B0141C01930A6923699A4202DAA4463C
:1042E8000C1C61464A680D69266973199B468B68E0
:1042F8009B4500DD0132019F7A6001239340BB603A
:1043080000233B61FB60381C14305B4604339B0080
:10431800FB1804330293984205D2031C002204C3FD
:10432800029F9F42FBD80A1C14322B1D9B00CB18FE
:1043380004339A4614231B199846331D9B00E3182F
:104348000433039398454BD28146354DAC460092D1
:1043580047463B6867461F401AD0009E4C460025DA
:1043680004CE206863461340391C59436346034012
:10437800C9184919120C3B1C5343000C1B180A0C92
:104388009B181D0C638021800434B245E8D8256051
:1043980042465688002E1CD04B461968009C484659
:1043A8000025236867463B40321C5A434388D2188D
:1043B800521942800180043008CC1B0C311C59432F
:1043C80003683B40C918120C89180D0CA245E8D89F
:1043D800016004229044039B434501D99144B7E707
:1043E8005D46002D0EDD029A043A1368002B09D1B0
:1043F80001277F42BB445B46002B03DD043A136868
:10440800002BF5D05D46019F3D61019805B03CBC8D
:1044180090469946A246AB46F0BC02BC0847C04647
:10442800FFFF0000F0B5474680B40D1C171C1E1C8A
:1044380050114A680B6901331C188B689C4203DDD4
:1044480001325B009C42FBDC726001239340B36045
:1044580000233361F360311C1431002808DD002289
:1044680004C101339842FBDC031D9B00F318191D9E
:104478002A1C14322B6904339B00EB181D1D1F23C3
:104488001F40B84614D020234046181A84460020FE
:1044980013684746BB40034308C108CA181C67464F
:1044A800F8409542F4D80860002805D0013403E0AC
:1044B80008CA08C19542FBD8631E3361301C04BC8E
:1044C8009046F0BC02BC084730B503690A699C1ADB
:1044D800002C16D1051C1435131D9B00C218101D85
:1044E800CB18191D0438026804390B689A4206D0A3
:1044F800934201D8012404E00124644201E085428A
:10450800F0D3201C30BC02BC0847C046F8B55F4653
:1045180056464D464446F0B40C1C151C9846081CDB
:10452800111CFFF7D1FF002808D1002341464B603A
:1045380001228A60CB600A614B6159E0002801DBE7
:10454800002103E0AC46251C64460121636842460D
:1045580053606268012393404246936000231361CD
:10456800D16023699C46261C143604339B00E3184B
:1045780004339B462F1C14372B6904339B00EB181C
:1045880004339A464446143400251E49894608CE09
:1045980002CF484618404A460A40801A40191B0C68
:1045A800090C5B1A02149B181D14638020800434C4
:1045B800BA45ECD8B3450DD9124808CE191C0140AC
:1045C80069180A141B0CD21815146280218004344F
:1045D800B345F2D8221F1368002B06D101235B4292
:1045E8009C44043A1368002BF8D061464246116196
:1045F80040463CBC90469946A246AB46F8BC02BC35
:104608000847C046FFFF000070B582B0089D101C27
:10461800191C01236B600223AB6000232B61EB6044
:104628000A1C2A4B0C1C1C400094294B1A40160DDE
:10463800002E03D080235B0323430093031E1CD06A
:10464800019301A8FFF700FE00280BD020231B1AB6
:1046580000990A1C9A40131C019A13436B61C140CC
:10466800009101E0019B6B61009BAB61002B01D1C4
:10467800012400E002242C6108E06846FFF7E4FD0D
:10468800009B6B6101232B6120300124002E09D08F
:10469800104973181B18069A136035231B1A0799BB
:1046A8000B600DE00C4A831806990B60631E9B0093
:1046B800EB185869FFF79EFD63011B1A079A1360F0
:1046C800281C02B070BC02BC0847C046FFFF0F00A0
:1046D800FFFFFF7FCDFBFFFFCEFBFFFFF8B54F4687
:1046E8004646C0B48C46161C181C0A699046654696
:1046F80014350024224F2A68131C3B40191C7143AF
:1047080041180B0C120C72439B18180C81461B04A1
:1047180039405B1808C50134A045ECDC002827D0D7
:1047280062469368984519DB53680133089A5360C9
:1047380063465A68013201239340089A9360002324
:104748001361D360101C0C3063461A690232920060
:1047580061460C31FBF7C6FD089A9446434604337C
:104768009B0063444A465A604346013362461361DC
:1047780060460CBC90469946F8BC02BC0847C04647
:10478800FFFF0000F0B55F4656464D464446F0B47C
:10479800464CA54480460E1C9B460323111C194019
:1047A8001CD09410002C0CD1414B4A1E92009B182F
:1047B8009A6C5B460093311C0023FFF78FFF061CA1
:1047C80068E03B4A4B1E9B00D218926C04AB0093E6
:1047D800311C0023FFF782FF061C02E09410002C16
:1047E80058D00025C4231B016B449D420AD0404683
:1047F80030491A1CFFF75CFD051C0023036001E02B
:104808001D1C0CE004AFF4239B006B449A46C423A0
:104818001B016B449946F223DB006B440393E307C7
:104828001CD56410002C07D14046311C2A1C5B465D
:10483800FFF748FD061C2DE0BE4207D14046391C53
:104848002A1C5346FFF73EFD061C0AE04046311C71
:104858002A1C3B1CFFF736FD061C02E06410002CE6
:1048680018D02B68002BCBD14D4508D1404649467E
:104878004A46039BFFF726FD4B46186006E0404674
:10488800291C2A1C4B46FFF71DFD286000230360E6
:10489800051CC4E7301C084B9D443CBC9046994617
:1048A800A246AB46F0BC02BC0847C0460CEFFFFF6F
:1048B800F84A000871020000F4100000000000002F
:1048C800010203040102030406070809020406089A
:1048D800B02300087C2B00087C2B0008CA230008A2
:1048E8007C2B00087C2B00087C2B00087C2B000804
:1048F8007C2B00087C2B0008D6230008F223000834
:104908007C2B0008AC230008FE2300087C2B000841
:10491800542400086024000860240008602400086B
:10492800602400086024000860240008602400084F
:1049380060240008602400087C2B00087C2B0008F9
:104948007C2B00087C2B00087C2B00087C2B0008A3
:104958007C2B00087C2B00087C2B0008C424000852
:1049680018250008682500087C2B00086825000821
:104978007C2B00087C2B00087C2B00087C2B000873
:10498800842400087C2B00087C2B0008962800084B
:104998007C2B00087C2B00087C2B00081C290008B5
:1049A8007C2B00080C2A00087C2B00087C2B0008B4
:1049B800A62300087C2B00087C2B00087C2B000811
:1049C8007C2B00087C2B00087C2B00087C2B000823
:1049D8007C2B00087C2B00087C2B0008C4240008D2
:1049E80020250008682500086825000868250008B3
:1049F8008E240008202500087C2B00087C2B00084A
:104A0800982400087C2B00085C2800089E280008D1
:104A1800D4280008BA2400087C2B00081C290008A8
:104A28007C2B0008142A00087C2B00087C2B00082B
:104A38004A2A000820202020202020202020202072
:104A4800202020203030303030303030303030309E
:104A5800303030302C4100082C4100086634000802
:104A68009A340008723400086C3400080000000012
:104A7800000000000000F03F00000000000024409B
:104A880000000000000059400000000000408F4076
:104A9800000000000088C34000000000006AF840E1
:104AA8000000000080842E4100000000D012634105
:104AB8000000000084D797410000000065CDCD417B
:104AC800000000205FA00242000000E8764837425C
:104AD800000000A2941A6D42000040E59C30A242FA
:104AE8000000901EC4BCD64200003426F56B0C436F
:104AF8000080E03779C3414300A0D8855734764316
:104B080000C84E676DC1AB43003D9160E458E14376
:104B1800408CB5781DAF154450EFE2D6E41A4B44EB
:104B280092D54D06CFF08044F64AE1C7022DB54430
:104B3800B49DD9794378EA440500000019000000C3
:104B48007D000000000000000080E03779C3414389
:104B5800176E05B5B5B89346F5F93FE9034F384DDB
:104B6800321D30F94877825A3CBF737FDD4F157587
:104B7800BC89D897B2D29C3C33A7A8D523F649392B
:104B88003DA7F444FD0FA5329D978CCF08BA5B254D
:104B9800436FAC642806C80A42797465732072654D
:104BA8006365697665642066726F6D20555342327D
:104BB80049324300256420627974657320747261F8
:104BC8006E736D697474656420696E20636F6D6DB2
:104BD800616E64206D6F6465203A2025640A0025A3
:104BE80064206279746573207265636569766564AB
:104BF80020696E20636F6D6D616E64206D6F6465F2
:104C0800203A2025640A0053656E64696E67207433
:104C18006F205553423249324320696E2070726FBB
:104C280067726573730000003031323334353637BC
:104C3800383941424344454600000000496E660049
:104C48004E614E003031323334353637383961628F
:104C58006364656600000000286E756C6C290000AE
:104C680062756720696E2076667072696E74663A3E
:104C780020626164206261736500000030000000FA
:104C88002E000000496E66696E69747900000000A4
:044C980043000000D5
:104C9C0004000020000000000000000000000000E4
:104CAC0000000000000000000000000000000000F8
:104CBC0000000000984C00080000000000000000FC
:104CCC0000000000000000000000000000000000D8
:104CDC0000000000000000000000000000000000C8
:104CEC0000000000000000000000000000000000B8
:104CFC0000000000000000000000000000000000A8
:104D0C000000000000000000000000000000000097
:104D1C000000000000000000000000000000000087
:104D2C000000000000000000000000000000000077
:104D3C000000000000000000000000000000000067
:104D4C000000000000000000000000000000000057
:104D5C000000000000000000000000000000000047
:104D6C000000000000000000000000000000000037
:104D7C000000000000000000000000000000000027
:044D8C000000000023
:04000005080001E806
:00000001FF
