:020000040800F2
:1000000000000120652E00088524000889240008CE
:10001000A5240008A7240008A92400080000000067
:100020000000000000000000000000000D38000883
:10003000AB24000800000000BD380008F9380008B3
:10004000AD240008BD240008DD240008E1240008D8
:1000500041250008432500084525000847250008DC
:10006000492500084B2500084D2500084F250008AC
:10007000512500085325000855250008572500087C
:10008000592500085B25000861250008E1250008C6
:10009000E3250008E5250008E7250008E925000814
:1000A000DD260008E12600080127000803270008D4
:1000B00005270008F1270008D5280008BD290008F9
:1000C000712A0008D52A0008692C0008CD2C0008E8
:1000D000CF2C0008D12C0008D32C0008D52C000808
:1000E000D92C0008652D0008672D0008692D00082F
:1000F0006B2D00086D2D00086F2D0008712D000874
:100100004D2E00084F2E0008512E0008532E0008D7
:10011000552E0008572E0008592E00085B2E0008A7
:100120005D2E00085F2E0008612E0008632E000877
:100130002DE9F04F546812682DE9180031F9025B7F
:1001400031F9026B31F9027B31F902EB4FF0000813
:100150004FF000094FF0000A4FF0000B32F9023B5C
:1001600032F902CB043C05FB038831F9025B06FB44
:10017000039907FB03AA0EFB03BB32F9023B06FB04
:100180000C8831F9026B07FB0C990EFB0CAA05FBDE
:100190000CBB32F902CB07FB038831F9027B0EFB63
:1001A000039905FB03AA06FB03BB0EFB0C8831F980
:1001B00002EB05FB0C9906FB0CAA07FB0CBBCDDC84
:1001C00018BCA0E8000FA2EB4402A1EB4401043BE1
:1001D000B2DCBDE8F08F2DE9F04F0144A1F104013C
:1001E00001F1020251F8023942F802399042F9D184
:1001F000BDE8F08F032A2DE9F00109D82AB10023C8
:10020000CC5CC45401339342FAD1BDE8F00170478D
:100210000B468218014603E02478013301F8014BB4
:1002200011F0030F1C46F7D113F003055DD06E42A9
:10023000C5F1040CED009B594FEACC0C08E00434E6
:10024000A7593B4607FA0CF748EA070741F8047B31
:10025000571A23FA05F8032FF1DC03E014F8013BE9
:1002600001F8013B8A42F9D8CFE753F8404C41F8F6
:10027000404C53F83C4C41F83C4C53F8384C41F856
:10028000384C53F8344C41F8344C53F8304C41F866
:10029000304C53F82C4C41F82C4C53F8284C41F876
:1002A000284C53F8244C41F8244C53F8204C41F886
:1002B000204C53F81C4C41F81C4C53F8184C41F896
:1002C000184C53F8144C41F8144C53F8104C41F8A6
:1002D000104C53F80C4C41F80C4C53F8084C41F8B6
:1002E000084C53F8044C41F8044C561A1D460C4671
:1002F000403340313F2EB8DC2B460FE053F8101C42
:1003000044F8101C53F80C1C44F80C1C53F8081C3F
:1003100044F8081C53F8041C44F8041C161B1D4622
:1003200010330F2E214604F11004E7DC2B4602E0C7
:10033000246841F8044B551A1C46032D03F10403AD
:10034000F6DC8FE7032AC9B270B408D82AB1034695
:10035000121803F8011B9342FBD170BC704782183E
:10036000044601E004F8011B14F0030FFAD14FF02A
:10037000013303FB01F31FE044F8403C44F83C3CEC
:1003800044F8383C44F8343C44F8303C44F82C3CC5
:1003900044F8283C44F8243C44F8203C44F81C3CF5
:1003A00044F8183C44F8143C44F8103C44F80C3C25
:1003B00044F8083C44F8043C161B254640343F2EC4
:1003C000DADC2C4607E044F8103C44F80C3C44F8D6
:1003D000083C44F8043C161B254610340F2EF2DC72
:1003E00001E045F8043B541B032CFADC01E005F85E
:1003F000011B9542FBD3B0E741EA000313F0030F62
:10040000034670B414BF00250125032A94BF0025BC
:1004100005F001050C460646CDB9B2B10D7834465B
:10042000531E04F8015B55B1B21C73B111F8015FA2
:100430001446013B02F8015C0132002DF5D123B1D5
:100440000022013B04F8012BFBD170BC7047214610
:1004500054F8045BA5F1013626EA050616F0803F44
:1004600005D1043A43F8045B032A2146EFD81E461F
:10047000D3E700BFF8B54FF6FF77C7F6EF7721F067
:100480000043BB4204460D460E4614DD00294BDBFB
:100490000B4600210246C3F6F071002000F0BEFDBD
:1004A00000230022C3F6F07300F0DCFA02460B468C
:1004B00010461946F8BD4FF6FF72C4F2350293425A
:1004C0000ADD00231A46C3F6F073002E1046B8BFAB
:1004D00003F100431946F8BDB3F1725F37DB4FF605
:1004E000FF72C3F6EF7293423EDD00F0B1FA0246AE
:1004F0000B4600F0B7FA00F053F800224FF08043AB
:1005000000F0B0FA02460B4600204FF0804100F0A8
:1005100085FD0B4600210246C3F6F071002000F075
:100520009FFA02460B46D0E70B4600210246C3F66F
:10053000F071002000F072FD00230022C3F6F0737A
:1005400000F08EFA02460B4610461946F8BD00230D
:100550000022C3F6F07300F085FA22462B4600F025
:1005600033FC02460B46A3E700F072FA00224FF07C
:10057000404300F029FC00F013F800224FF08043C4
:1005800004460D4600F06EFA05F1004502460B46A2
:100590002046294600F042FD02460B4695E700BF83
:1005A0002DE9F04F46F67907C4F2430721F00043E6
:1005B000BB4285B004460D4601F000461ED942F606
:1005C0004167C4F28607BB4240F2DB804FF6FF77FB
:1005D000C7F6EF77BB4240F2CC8021F07F4702465E
:1005E00027F470070B46074340F0C481002E00F04B
:1005F000F48000250024CBF6F075EEE042F642626E
:10060000C3F6D672934200F22C814FF6FF72C3F606
:100610008F42934240F25281002600230022C3F60B
:10062000E0732046294600F0CFFB82468B465246B7
:100630005B462046294600F0C7FBA5A3D3E900236B
:100640008046894600F0C0FBA3A3D3E9002300F055
:1006500009FA42464B4600F0B7FBA1A3D3E90023B9
:1006600000F0FEF942464B4600F0AEFB9EA3D3E9F4
:10067000002300F0F7F942464B4600F0A5FB9CA38F
:10068000D3E9002300F0ECF942464B4600F09CFB16
:1006900000230022C3F6F07300F0E4F952465B46F3
:1006A000CDE9000100F090FB0B4600210246C4F2A8
:1006B0000801002000F0D4F982468B465246DDE95D
:1006C00000015B4600F0CCF952465B46CDE90001E3
:1006D0002046294600F078FB0B4600210246C4F272
:1006E0001801002000F0BCF902460B46DDE90001CC
:1006F00000F094FC42464B4600F066FB02460B4677
:10070000002E5AD0DDE9022300F0AAF922462B463A
:1007100000F05AFBDDE9022300F0A2F942464B4605
:1007200000F09EF9B6F1FF3F8046894600F0278130
:10073000012E00F00781731C392B00F2A880132EC4
:1007400000F3328122462B4600F08AF94FF4001460
:100750004FF000083441C4F17E5404F5E00902462C
:100760000B464046494600F07BF9360504467518AD
:1007700033E061A3D3E9002300F0B6FD002840F088
:100780002781002E2ED05EA3D3E9002320462946E0
:1007900000F068F90022002300F088FD00287FF4B3
:1007A00028AF2046294658A3D3E9002300F00CFBCC
:1007B00000230022CBF6E0731FE02046294600F01C
:1007C00003FB42464B4600F04BF902460B462046DF
:1007D000294600F045F904460D462046294605B055
:1007E000BDE8F08F48A3D3E900232046294600F056
:1007F000EBFA00230022C3F6E07300F033F900F0B7
:100800007DFD064600F07AFA41A3D3E90023824633
:100810008B4600F0D9FA02460B462046294600F0E6
:100820001FF93DA3D3E90023804689465046594627
:1008300000F0CAFA82468B4652465B46404649461D
:1008400000F00EF904460D4622462B464046494626
:1008500000F006F952465B4600F002F9CDE90201CC
:10086000DBE64AF2B122C3F6F072934200F2D08086
:10087000002E59D126A3D3E90023012600F0F0F879
:100880000FF2940BDBE900AB80468946D4E72246A1
:100890002B4600F0E5F836050B4600210246C3F66C
:1008A000F071002000F0DCF800230022C3F6F073A2
:1008B000711800F0D5F804460D468EE718A3D3E969
:1008C000002300F0CFF802460B467CE7AFF3008030
:1008D0002DC3096EB7FD8ABE3952E686CACFD03E17
:1008E000B7DBAA9E19CE143F8555FE19A0015A3FC9
:1008F000F41011111111A13FEF39FAFE422E86407A
:1009000059F3F8C21F6EA501FE822B654715F73F0C
:100910000000E0FE422EE63F763C7935EF39EA3DB5
:100920009C7500883CE4377E41A3D3E900234FF057
:10093000FF3600F097F80FF2001BDBE900AB8046B2
:10094000894679E70023204629460022CBF6D0735A
:1009500000F0ACFC002845D142464B4620462946D3
:1009600000F07EF802460B4600F07CF800230022DF
:10097000C3F6F07300F076F804460D462DE72046E6
:10098000294642464B4600F06BF800230022C3F68E
:10099000E07300F019FA00230022C3F6E07300F0C0
:1009A0005FF804460D4618E7C6F57E770022073744
:1009B0003B0500F057F802460B462046294600F05A
:1009C0004FF800230022C3F6F07300F04BF8CCE69A
:1009D0001BA1D1E9000102460B4600F0F5F90446DF
:1009E0000D46FAE60023204629460022C3F6E073AE
:1009F00000F038F802460B464046494600F030F811
:100A000000224FF0404300F0DFF904460D46E4E6D3
:100A10000DA3D3E9002300F0D7F9002E7FF4C8AE70
:100A200000230022C3F6E073E7E600BFAFF30080C7
:100A30000000E0FE422EE63F763C7935EF39EABD14
:100A40009C7500883CE4377EFE822B654715F73F96
:100A500021F00041704700BF81F0004102E000BF7B
:100A600083F0004330B54FEA41044FEA430594EA6E
:100A7000050F08BF90EA020F1FBF54EA000C55EAA9
:100A8000020C7FEA645C7FEA655C00F0E2804FEA7A
:100A90005454D4EB5555B8BF6D420CDD2C4480EA5C
:100AA000020281EA030382EA000083EA010180EA8C
:100AB000020281EA0303362D88BF30BD11F0004FDA
:100AC0004FEA01314FF4801C4CEA113102D0404210
:100AD00061EB410113F0004F4FEA03334CEA13334B
:100AE00002D0524263EB430394EA050F00F0A78063
:100AF000A4F10104D5F1200E0DDB02FA0EFC22FA5E
:100B000005F2801841F1000103FA0EF2801843FA51
:100B100005F359410EE0A5F120050EF1200E012A42
:100B200003FA0EFC28BF4CF0020C43FA05F3C01880
:100B300051EBE37101F0004507D54FF0000EDCF1F9
:100B4000000C7EEB00006EEB0101B1F5801F1BD3A2
:100B5000B1F5001F0CD349085FEA30004FEA3C0CA6
:100B600004F101044FEA445212F5800F80F09A809C
:100B7000BCF1004F08BF5FEA500C50F1000041EBA0
:100B8000045141EA050130BD5FEA4C0C404141EBA4
:100B9000010111F4801FA4F10104E9D191F0000FCB
:100BA00004BF01460020B1FA81F308BF2033A3F14E
:100BB0000B03B3F120020CDA0C3208DD02F1140C45
:100BC000C2F10C0201FA0CF021FA02F10CE002F180
:100BD0001402D8BFC2F1200C01FA02F120FA0CFC79
:100BE000DCBF41EA0C019040E41AA2BF01EB0451C2
:100BF000294330BD6FEA04041F3C1CDA0C340EDCC0
:100C000004F11404C4F1200220FA04F001FA02F302
:100C100040EA030021FA04F345EA030130BDC4F1C0
:100C20000C04C4F1200220FA02F001FA04F340EAB5
:100C30000300294630BD21FA04F0294630BD94F066
:100C4000000F83F4801306BF81F480110134013D4D
:100C50004EE77FEA645C18BF7FEA655C29D094EABE
:100C6000050F08BF90EA020F05D054EA000C04BF3C
:100C70001946104630BD91EA030F1EBF0021002027
:100C800030BD5FEA545C05D14000494128BF41F0C6
:100C9000004130BD14F580043CBF01F5801130BD2A
:100CA00001F0004545F0FE4141F470014FF00000B5
:100CB00030BD7FEA645C1ABF194610467FEA655C66
:100CC0001CBF0B46024650EA013406BF52EA033508
:100CD00091EA030F41F4002130BD00BF90F0000FF6
:100CE00004BF0021704730B54FF4806404F1320432
:100CF0004FF000054FF0000150E700BF90F0000FEB
:100D000004BF0021704730B54FF4806404F1320411
:100D100010F0004548BF40424FF000013EE700BFE1
:100D200042004FEAE2014FEA31014FEA02701FBF71
:100D300012F07F4393F07F4F81F06051704792F043
:100D4000000F14BF93F07F4F704730B54FF46074BD
:100D500001F0004521F0004120E700BF50EA010208
:100D600008BF704730B54FF000050AE050EA0102B5
:100D700008BF704730B511F0004502D5404261EB25
:100D800041014FF4806404F132045FEA915C3FF466
:100D9000DCAE4FF003025FEADC0C18BF03325FEAFF
:100DA000DC0C18BF033202EBDC02C2F1200300FAB4
:100DB00003FC20FA02F001FA03FE40EA0E0021FAD9
:100DC00002F11444C1E600BF70B54FF0FF0C4CF4C3
:100DD000E06C1CEA11541DBF1CEA135594EA0C0F79
:100DE00095EA0C0F00F0DEF82C4481EA030621EAB4
:100DF0004C5123EA4C5350EA013518BF52EA0335EF
:100E000041F4801143F4801338D0A0FB02CE4FF0A0
:100E10000005E1FB02E506F00042E0FB03E54FF0D0
:100E20000006E1FB03569CF0000F18BF4EF0010EC8
:100E3000A4F1FF04B6F5007F64F5407404D25FEAC4
:100E40004E0E6D4146EB060642EAC62141EA555177
:100E50004FEAC52040EA5E504FEACE2EB4F1FD0CB9
:100E600088BFBCF5E06F1ED8BEF1004F08BF5FEA37
:100E7000500E50F1000041EB045170BD06F00046E9
:100E800046EA010140EA020081EA0301B4EB5C0496
:100E9000C2BFD4EB0C0541EA045170BD41F480118E
:100EA0004FF0000E013C00F3AB8014F1360FDEBFB3
:100EB000002001F0004170BDC4F10004203C35DA8F
:100EC0000C341BDC04F11404C4F1200500FA05F312
:100ED00020FA04F001FA05F240EA020001F00042B3
:100EE00021F0004110EBD37021FA04F642EB060129
:100EF0005EEA430E08BF20EAD37070BDC4F10C0453
:100F0000C4F1200500FA04F320FA05F001FA04F216
:100F100040EA020001F0004110EBD37041F1000102
:100F20005EEA430E08BF20EAD37070BDC4F120050D
:100F300000FA05F24EEA020E20FA04F301FA05F275
:100F400043EA020321FA04F001F0004121FA04F21D
:100F500020EA020000EBD3705EEA430E08BF20EAED
:100F6000D37070BD94F0000F0FD101F00046400027
:100F700041EB010111F4801F08BF013CF7D041EAA9
:100F8000060195F0000F18BF704703F000465200AD
:100F900043EB030313F4801F08BF013DF7D043EA7E
:100FA0000603704794EA0C0F0CEA135518BF95EA34
:100FB0000C0F0CD050EA410618BF52EA4306D1D1BB
:100FC00081EA030101F000414FF0000070BD50EADA
:100FD000410606BF1046194652EA430619D094EA64
:100FE0000C0F02D150EA013613D195EA0C0F05D14E
:100FF00052EA03361CBF104619460AD181EA0301A2
:1010000001F0004141F0FE4141F470014FF0000059
:1010100070BD41F0FE4141F4780170BD70B54FF0F4
:10102000FF0C4CF4E06C1CEA11541DBF1CEA135574
:1010300094EA0C0F95EA0C0F00F0A7F8A4EB050456
:1010400081EA030E52EA03354FEA013100F088804D
:101050004FEA03334FF0805545EA131343EA126316
:101060004FEA022245EA111545EA10654FEA0026CB
:101070000EF000419D4208BF964244F1FD0404F584
:10108000407402D25B084FEA3202B61A65EB0305E0
:101090005B084FEA32024FF480104FF4002CB6EB9D
:1010A000020E75EB030E22BFB61A754640EA0C001D
:1010B0005B084FEA3202B6EB020E75EB030E22BF5D
:1010C000B61A754640EA5C005B084FEA3202B6EB9E
:1010D000020E75EB030E22BFB61A754640EA9C005D
:1010E0005B084FEA3202B6EB020E75EB030E22BF2D
:1010F000B61A754640EADC0055EA060E18D04FEAEB
:10110000051545EA16754FEA06164FEAC30343EA8A
:1011100052734FEAC2025FEA1C1CC0D111F4801F57
:101120000BD141EA00014FF000004FF0004CB6E750
:1011300011F4801F04BF01430020B4F1FD0C88BFEF
:10114000BCF5E06F3FF6AFAEB5EB030C04BFB6EBFA
:10115000020C5FEA500C50F1000041EB045170BDED
:101160000EF0004E4EEA113114EB5C04C2BFD4EB1A
:101170000C0541EA045170BD41F480114FF0000E9E
:10118000013C90E645EA060E8DE60CEA135594EA1A
:101190000C0F08BF95EA0C0F3FF43BAF94EA0C0F1D
:1011A0000AD150EA01347FF434AF95EA0C0F7FF492
:1011B00025AF104619462CE795EA0C0F06D152EAE6
:1011C00003353FF4FDAE1046194622E750EA4106CA
:1011D00018BF52EA43067FF4C5AE50EA41047FF4DB
:1011E0000DAF52EA43057FF4EBAE12E74FF0FF3C40
:1011F00006E000BF4FF0010C02E000BF4FF0010C11
:101200004DF804CD4FEA410C7FEA6C5C4FEA430C89
:1012100018BF7FEA6C5C1BD001B050EA410C0CBFD8
:1012200052EA430C91EA030F02BF90EA020F00203A
:10123000704710F1000F91EA030F58BF994208BFA1
:1012400090422CBFD8176FEAE37040F0010070475E
:101250004FEA410C7FEA6C5C02D150EA013C07D1B5
:101260004FEA430C7FEA6C5CD6D152EA033CD3D000
:101270005DF8040B704700BF8446104662468C46FA
:101280001946634600E000BF01B5FFF7B7FF00282D
:1012900048BF10F1000F01BD4DF808EDFFF7F4FF56
:1012A0000CBF012000205DF808FB00BF4DF808EDE1
:1012B000FFF7EAFF34BF012000205DF808FB00BF04
:1012C0004DF808EDFFF7E0FF94BF012000205DF826
:1012D00008FB00BF4DF808EDFFF7CEFF94BF0120DB
:1012E00000205DF808FB00BF4DF808EDFFF7C4FFD4
:1012F00034BF012000205DF808FB00BF4FEA410227
:1013000012F5001215D211D56FF47873B3EB625257
:1013100012D94FEAC12343F0004343EA505311F07E
:10132000004F23FA02F018BF404270474FF0000010
:10133000704750EA013005D111F0004008BF6FF04E
:10134000004070474FF00000704700BF4A0011D2C4
:1013500012F5001211D20DD56FF47873B3EB62520F
:101360000ED44FEAC12343F0004343EA505323FA1B
:1013700002F070474FF00000704750EA013002D190
:101380004FF0FF3070474FF0000070472DE9F043F9
:1013900004468DB089460320012103F0FDFC22485C
:1013A00003F03EF9214B012502944FF4807800248C
:1013B0004FF48067202601A91B48019303940495EC
:1013C00005940694CDF81C80089709960A940B940E
:1013D00003F09CF92946144803F0B8F9294614484B
:1013E00003F07CF8134803F01BF9134B01A9019398
:1013F00010484FF400530A93CDF8089003940495D5
:1014000005940694CDF81C80089709960B9403F078
:101410007DF92946074803F099F90848294603F061
:101420005DF80DB0BDE8F083080002404C24014097
:1014300000240140580402404C3C0140003C014063
:1014400070B586B0012400254FF4602601A91B4821
:1014500001958DF808408DF80950039604958DF894
:10146000144003F00BF822464FF40871134803F0C0
:101470003FF8204603F0AAF82246032310210F4824
:1014800003F05CF801A90E4801958DF808408DF82D
:101490000950039604958DF8144002F0EFFF2146A1
:1014A000224607482B4603F049F805484FF40871D7
:1014B000224603F01DF806B070BD00BF00240140B5
:1014C000003C014008B5104803F01CF80E4803F03A
:1014D0001EF80028FAD10C4803F01DF80A4803F062
:1014E0001FF80028FAD1094803F00CF8074803F068
:1014F0000EF80028FAD1054803F00DF8034803F070
:101500000FF80028FAD108BD00240140003C01403A
:1015100010B504462146044802F0D6FF0348214690
:10152000BDE8104002F0D0BF00240140003C014063
:1015300037B5164C04F148052078617803F0DEF9E0
:1015400054F8083C6846009314F8043C8DF80430C5
:1015500014F8033C8DF8053014F8023C0C348DF877
:10156000063003F0FDF8AC42E6D14FF4803300932F
:1015700000238DF804300C338DF8053068460B3BA2
:101580008DF8063003F0ECF83EBD00BF500000209F
:1015900013B51A230093002412E00B4A02EBC40394
:1015A000997832F834208DF80610D97858688DF87B
:1015B000071002A921F8042D03F03CF90134E4B22C
:1015C000009B9C42E9D31CBD90000020012110B576
:1015D00048F21D2003F0ECFB4FF4C0000121BDE8F0
:1015E000104003F0F1BB00000146014803F071B95F
:1015F000000C014013B54FF00060002103F0BAFA6F
:101600004FF4407003F06AFA00240A4B01A81A5DF7
:101610001B198DF804205A7804348DF805209A7827
:10162000DB788DF806208DF8073003F061FA382C4E
:10163000EBD11CBD6001002010B503F0BDFA4FF4E2
:10164000803003F0D9FA03F0DFFB0128044629D1EA
:10165000102003F0E3F8022003F0D4F8002003F098
:101660000BFB002003F01CFB4FF4806003F00EFB2B
:101670004FF4004003F01EFB4FF480304FF4E011B4
:1016800003F0D6FA204603F0DFFA392003F0A8FB76
:101690000028FAD0022003F0DDFA03F0E5FA08286A
:1016A000FBD110BDFEE7000002460248182103F0FE
:1016B0006BBD00BF0008004002460248062103F04F
:1016C00063BD00BF0008004002460248182103F035
:1016D0005BBD00BF0004004002460248062103F043
:1016E00053BD00BF00040040024618214FF0804067
:1016F00003F04ABD024606214FF0804003F044BD8E
:101700004FF40060012103F053BB0120014603F0B8
:101710005BBB0220012103F057BB0420012103F031
:1017200053BB00001FB5044601A803F017FD482372
:10173000ADF804300548002301A9ADF80840ADF824
:101740000A30ADF8063003F0DDFB1FBD002C014070
:101750001FB5044601A803F001FD4823ADF804308D
:101760004FF08040002301A9ADF80840ADF80A30E1
:10177000ADF8063003F0C6FB1FBD00001FB50446E0
:1017800001A803F0EBFC4823ADF804300548002322
:1017900001A9ADF80840ADF80A30ADF8063003F005
:1017A000B1FB1FBD000400401FB5044601A803F0B3
:1017B000D5FC4823ADF804300548002301A9ADF855
:1017C0000840ADF80A30ADF8063003F09BFB1FBDB2
:1017D0000008004010B50121084803F0C8FC0121B1
:1017E0004FF0804003F0C3FC0121054803F0BFFC2B
:1017F00004480121BDE8104003F0B9BC002C0140B1
:101800000004004000080040C0F51C5008B510302E
:101810004FF47A7390FBF3F0FFF770FA00220C4B51
:10182000FFF71EF900220B4BFFF7CEFAFEF722FE60
:101830000022084BFFF7C8FA0022064BFFF712F907
:101840000022054BFFF7C0FAFFF780FD80B208BD0C
:10185000000008400000E03F0000594070B5044619
:10186000FFF7D2FF21460546044803F0C4FC2C19BB
:101870000248A1B2BDE8704003F0BFBC00080040C0
:1018800070B50446FFF7C0FF21460546044803F043
:10189000AEFC2C190248A1B2BDE8704003F0A9BC0F
:1018A0000008004070B50446FFF7AEFF214605462C
:1018B000044803F0A0FC2C190248A1B2BDE8704016
:1018C00003F09BBC0004004070B50446FFF79CFF8A
:1018D00021460546044803F08AFC2C190248A1B2AF
:1018E000BDE8704003F085BC0004004070B50446BC
:1018F000FFF78AFF214605464FF0804003F07BFC4E
:101900002C194FF08040A1B2BDE8704003F075BCC7
:1019100070B50446FFF778FF214605464FF080403A
:1019200003F065FC2C194FF08040A1B2BDE8704077
:1019300003F05FBC30B585B0202304460125ADF827
:10194000060069460E48ADF80030ADF8025003F0CD
:1019500087FB08210A4803F035FC2046ADF8025009
:10196000FFF752FF0019ADF806006946044803F07E
:10197000BFFB0348082103F02EFC05B030BD00BFBB
:101980000008004030B585B0202304460125ADF89D
:10199000060069460E48ADF80030ADF8025003F07D
:1019A000D3FA08210A4803F0FAFB2046ADF80250AA
:1019B000FFF72AFF0019ADF806006946044803F056
:1019C00005FB0348082103F0F3FB05B030BD00BF61
:1019D0000008004030B585B0202304460125ADF84D
:1019E000060069460E48ADF80030ADF8025003F02D
:1019F00037FB08210A4803F0E5FB2046ADF802500A
:101A0000FFF702FF0019ADF806006946044803F02D
:101A10006FFB0348082103F0DEFB05B030BD00BFBB
:101A20000004004030B585B0202304460125ADF800
:101A3000060069460E48ADF80030ADF8025003F0DC
:101A400083FA08210A4803F0AAFB2046ADF80250A9
:101A5000FFF7DAFE0019ADF806006946044803F006
:101A6000B5FA0348082103F0A3FB05B030BD00BF61
:101A70000004004030B585B0202304460125ADF8B0
:101A8000060069464FF08040ADF80030ADF80250D6
:101A900003F0E6FA08214FF0804003F093FB204664
:101AA000ADF80250FFF7B0FE0019ADF80600694628
:101AB0004FF0804003F01CFB4FF08040082103F002
:101AC0008AFB05B030BD30B585B020230446012522
:101AD000ADF8060069464FF08040ADF80030ADF833
:101AE000025003F031FA08214FF0804003F057FB19
:101AF0002046ADF80250FFF787FE0019ADF806004A
:101B000069464FF0804003F061FA4FF080400821B1
:101B100003F04EFB05B030BD064B074A1A60074A7A
:101B20005A60074A9A60074ADA60074A1A61074A08
:101B30005A6170475853002011190008ED18000829
:101B4000C9180008A5180008811800085D180008C9
:101B5000064B074A1A60074A5A60074A9A60074AC2
:101B6000DA60074A1A61074A5A61704774550020C3
:101B7000F5160008E9160008D9160008C91600086D
:101B8000B9160008A916000810B500214FF08040D2
:101B900003F02BFB0021044803F027FB034800213E
:101BA000BDE8104003F021BB0004004000080040E5
:101BB00010B501214FF4006003F006F94FF4C07036
:101BC00003F030FB412003F037FB7F2003F04EFB96
:101BD00003F054FBBDE8104003F03ABB38B543694D
:101BE000044608460D469847142002F0EBFA25807B
:101BF00038BD00002DE9F04188B00020424C02F0D1
:101C000061F901F03CFA00210B464FF0FF322068E9
:101C100001F0E4FF4FF480513C4802F060FEC0F157
:101C200001024FF480513948D2B202F062FE01F055
:101C30006BFC374E06F1A80835463746688901A97E
:101C400001F064FB6B69BDF804009847BDF804001F
:101C5000AB69A0B9984701E001F010FE2D4A2E4B68
:101C6000B2F90020B3F9003002F108018B42F3DC35
:101C7000083A9342F0DB25482989012218E042F214
:101C80001072904217D10020984701E001F0F6FD54
:101C9000204A214BB2F90020B3F9003002F10801CB
:101CA0008B42F3DC083A9342F0DB18482989002282
:101CB00002F01FFE01E0012098471C354545BDD1CB
:101CC000142002F07FFA00251C21708901FB0571A8
:101CD000013501F01BFB1C36062DF5D14FF4805168
:101CE0000A4802F0FCFDC0F101024FF480510748A0
:101CF000D2B202F0FEFD00210A460B46206801F038
:101D0000B3FE01F0B4F978E7305400200010014030
:101D100084530020200200208C55002038B5044652
:101D200083690020984700210B464FF0FF3220695D
:101D300001F054FF282002F045FA257B618975B92E
:101D4000164802F0C6FD10BB25891448294602F04A
:101D5000C6FDC0F1010229461048D2B212E0012DA1
:101D600015D10E4802F0B5FD18B90C4821892A4654
:101D700008E00A48618902F0ACFD012807D1074854
:101D80002189002202F0B5FD01E001F077FD034852
:101D9000618902F09EFD0028F7D0C4E700100140E1
:101DA0002DE9F0410446012500210B464FF0FF329A
:101DB000206901F013FF282002F004FA237B268813
:101DC000002B40F0B8806848618902F082FD00284D
:101DD000EAD10746642002F0F5F96348618902F010
:101DE00078FD18B90137FFB20A2FF3D15E48618937
:101DF00002F06FFD804600284BD10A2F49D101F037
:101E00003EF95A4BB4201988013189B2198002F089
:101E1000EFFB01F02CF942F210739E4208D1012031
:101E2000A369984750482189424602F062FD28E0A4
:101E3000002E26D1A3690120984722E0642002F0F9
:101E4000C1F942F210739E4201D1668815E0A38861
:101E50000EB91E4611E0B342E3880BD26288B2424B
:101E600003D8F61AB6B2012507E0012D02D1F61A01
:101E7000B6B202E0F618B6B23D4620463146FFF74C
:101E8000ADFE3948618902F024FD07460028D5D00F
:101E90008AE701F0F4F8364BB0201988354F01314C
:101EA00089B2198002F0A4FB01F0E1F842F210734C
:101EB0009E42DFF8C48014D101E001F0DFFCB8F9E4
:101EC0000020B7F9003002F108018B42F5DC083A36
:101ED0009342F2DB21892448012202F00AFD00210D
:101EE00027E016B10DE001F0C9FCB8F90020B7F900
:101EF000003002F108018B42F5DC083A9342F2DB34
:101F000010E0A3690020984701E001F0B7FCB8F9A0
:101F10000020B7F9003002F108018B42F5DC083AE5
:101F20009342F2DB21891048002202F0E2FC42F2E7
:101F30001071204614E0012B7FF436AF0A48618906
:101F400002F0C7FC10B92046A18809E00648618963
:101F500002F0BFFC01287FF427AF204642F2107147
:101F6000FFF73CFE20E700BF001001403654002080
:101F70001C5500208C5500202002002070B5404BDD
:101F800000214FF0FF3218680B4601F027FE4FF496
:101F900080513C4802F0A3FCC0F10102D2B23948A2
:101FA0004FF4805102F0A5FC374B1A88013292B2EF
:101FB000B2F5616F1A800DD100221A8001F05FF82E
:101FC000324BB8201988013189B2198002F010FB18
:101FD00001F04DF82E4C00210B4620684FF0FF32E7
:101FE00001F0FCFD00232B4D41F63E765A5B58195B
:101FF000A2F57A71013989B2B14205D942F2107164
:102000008A4201D002B101801C33A82BEBD10121FF
:10201000214802F089FA01F032F80420298802F000
:10202000E7FA1C20A98B02F0E3FA4820298F02F07E
:10203000DFFA6020B5F8541002F0DAFA7820B5F82B
:10204000701002F0D5FA9020B5F88C1002F0D0FA9A
:1020500001F02AFA01F00BF800210A460B4620682D
:1020600001F002FD4FF48051064802F038FCC0F147
:1020700001024FF480510348D2B202F03AFC7EE7ED
:10208000D855002000100140E80100203454002001
:1020900030540020845300200024014008B5074A32
:1020A00013783BB100231370054A1380054B186861
:1020B00001F044FF0A2002F085F8F0E72C0200202E
:1020C000280200205053002010B504460088A8B90B
:1020D000A369984701E001F0D1FB1E4A1E4BB2F9FB
:1020E0000020B3F9003002F108018B42F3DC083A1A
:1020F0009342F0DB19482189012219E042F2107362
:10210000984218D1A3690020984701E001F0B6FB7E
:10211000104A114BB2F90020B3F9003002F1080166
:102120008B42F3DC083A9342F0DB0C482189002211
:1021300002F0DFFB08E06388834205D3A388834273
:1021400002D8A369012098470020BDE8104001F0A3
:1021500083BE00BF200200208C55002000100140EB
:102160002DE9F341FFF7D8FCFFF7F2FC974C00256F
:10217000274626460120002101F041FCDFF8D882E5
:1021800045F8080020B100210A460B4601F06CFC1E
:102190008F4BEB587B618F4BEB58BB6158F8053088
:1021A00004353B611C37182DE4D10120002101F0DA
:1021B00026FC894A1060904620B100210A460B4651
:1021C00001F052FC01F0C0FC844F3860FFF734FA94
:1021D000FFF7FCF9FFF7DCF9FFF70CFAFFF7A8F9B6
:1021E00000F038FF00F074FE7D497E48FFF7CEF81E
:1021F000FFF726F90120FFF78BF9FFF763F901F0EC
:1022000019FA01F029F901F04FF901F06FF94020B6
:102210006E4901F07BF88020734901F077F84FF4A4
:102220008070724901F072F84FF40070704901F04B
:102230006DF84FF480606F4901F068F86E494FF413
:10224000006001F063F801F035F8FFF759FAFFF785
:102250005CFAFFF75EFAFFF760FA1820FFF762FA00
:1022600042F20F70FFF774FA42F20F70FFF786FA2E
:1022700042F20F70FFF798FA3088FFF724FCB08B1A
:10228000FFF7F8FB308FFFF7CDFBB6F85400FFF7F0
:10229000A1FBB6F87000FFF775FBB6F88C00FFF7EE
:1022A00049FB012155480A4602F06EFFFFF792FAFA
:1022B00001E001F0E3FA524B1A8844F61F639A4298
:1022C000F7D94FF48050FFF78FF928B14D4BB3F990
:1022D0000030B3F5006F02DA4B4E002504E04B4BA3
:1022E0001B78012B14D1F7E756F8043F5BB10223AA
:1022F0000093474B474803EB8503019346498022EF
:10230000234601F0F1FC01351C34062DECD140E0F0
:102310003D4E002556F8043FABB103230093033B29
:1023200001933E49802223463D4801F0DDFC022313
:102330000093374B3B4803EB850301933A498022D6
:10234000234601F0D1FC01351C34062DE2D1374B78
:10235000012401933648002336498022009401F07D
:10236000C3FCD8F8003043B1334B344801933449AF
:1023700080220023009401F0B7FC3B684BB101239D
:102380000093304B3048019330498022002301F004
:10239000ABFC1E4D2C78012C0FD12D4BAC20198895
:1023A000013189B2198002F023F900232B702948EA
:1023B0004FF48051224602F09CFA00F058FE0020B3
:1023C00002B0BDE8F04101F047BD00BF84530020DA
:1023D0005853002074550020D85500203054002058
:1023E000505400202C540020A0530020BC53002047
:1023F000D8530020F453002010540020002C01403A
:102400002202002020020020585400202D0200202B
:10241000385400201D1D00089C520008AD520008D1
:10242000C9200008A11D0008BE5200085454002015
:102430009D200008CF520008545300207D1F000843
:10244000DF52000850530020F51B0008EB52000833
:102450002E020020001001405C54002007B501232B
:102460000649802200930648013B019301F03CFCA1
:10247000FFF79EFB01F094FDFEE700BFFA52000853
:102480006121000870470000034B1A68034B02EA01
:102490000303034A1360FCE72CED00E0020000C0D8
:1024A000F0010020FEE7FEE7FEE7704710B57F2051
:1024B00002F0D4FEBDE8104002F0E0BE08B50420F2
:1024C00002F068FB28B1042002F06EFB014A024BC7
:1024D0001A6008BD0400FA050CED00E0704700002A
:1024E00070B5154C00250120656002F0EFFC002856
:1024F00021D0A3684FF480500133A360FFF774F834
:10250000A0B101F055FF012806D10C4B29461868EF
:10251000221D2B4601F039FB012002F0E9FC636823
:10252000012B08D1BDE8704001F0A8B90120BDE839
:10253000704002F0DDBC70BDF0010020D8550020D5
:1025400070477047704770477047704770477047D3
:102550007047704770477047704770470000000031
:1025600010B51B484FF4087102F03EF8194B18885B
:10257000FEF7C4FB10A3D3E90023FEF725FC0246B7
:102580000B460FA1D1E90001FEF76AFA0EA3D3E9C9
:102590000023FEF743FD00220F4BFEF763FAFEF720
:1025A000D5FE84B200F06BFDA820214602F020F891
:1025B000BDE8104000F05BBD6666666666664A3F31
:1025C000E17A14AE47E1F63F22FDF675E09C713FDB
:1025D000002401402C54002000003940AFF300805B
:1025E000704770477047704770B5394C00254020E0
:1025F000E56002F0F3F8B0B101F0DAFE012807D18E
:10260000344B2946186804F10C022B4601F0BDFA40
:10261000E368012B04D101F031F92D4B0022DA607F
:10262000402002F0E9F8802002F0D8F8A8B101F0CB
:10263000BFFE012806D1274B00215868264A0B46C9
:1026400001F0A3FAE368012B04D101F017F9204B44
:102650000022DA60802002F0CFF84FF4807002F0A0
:10266000BDF8B0B101F0A4FE012806D1194B00213C
:102670009868194A0B4601F088FAE368012B04D1E7
:1026800001F0FCF8124B0022DA604FF4807002F087
:10269000B3F84FF4007002F0A1F8C0B101F088FE69
:1026A000012806D10B4B0021D8680B4A0B4601F0DC
:1026B0006CFAE368012B04D101F0E0F8044B00222E
:1026C000DA604FF40070BDE8704002F095B870BD5C
:1026D000F00100205C540020FC0100207047000045
:1026E000012110B5044802F099FD04480121BDE81C
:1026F000104001F019BF00BF002C0140003C014018
:102700007047704710B54FF08040022102F07BFD0A
:10271000A0B102214FF0804002F080FD314B42F227
:1027200010721B8893425BD0002B59D02E48012198
:1027300002F0DBF82D4B01221A7410BD4FF08040DF
:10274000042102F060FDB0B104214FF0804002F09E
:1027500065FD244B42F210721B88244C934200D03A
:1027600013B9237C002B3BD01F48012102F0BFF896
:102770000023237410BD4FF08040082102F043FD78
:1027800098B108214FF0804002F048FD154B42F20D
:1027900010729B8B934223D013B31348022102F093
:1027A000A4F8124B01225A7410BD4FF08040102142
:1027B00002F029FDA0B110214FF0804002F02EFD63
:1027C000084B42F210729B8B084C934200D00BB91D
:1027D000637C2BB10448022102F089F80023637462
:1027E00010BD00BF8453002000100140F001002004
:1027F00010B53448022102F006FD98B1022131489B
:1028000002F00CFD304B42F210721B8F934257D0F6
:10281000002B55D02D48042102F067F82C4B0122E3
:102820009A7410BD2748042102F0EDFCA8B10421E0
:10283000244802F0F3FC244B42F210721B8F244C0C
:10284000934200D013B9A37C002B39D01F48042138
:1028500002F04DF80023A37410BD1A48082102F0BD
:10286000D2FC98B10821174802F0D8FC164B42F26E
:102870001072B3F85430934222D00BB3134808219E
:1028800002F033F8124B0122DA7410BD0D4810210A
:1028900002F0B9FCA0B110210A4802F0BFFC0A4BBB
:1028A00042F21072B3F85430094C934200D00BB985
:1028B000E37C2BB10548082102F019F80023E374EA
:1028C00010BD00BF000400408453002000100140F0
:1028D000F001002010B53548022102F094FCA0B1AF
:1028E0000221324802F09AFC314B42F21072B3F8E6
:1028F0007030934258D0002B56D02E48102101F052
:10290000F4FF2D4B01221A7510BD2848042102F056
:102910007AFCB0B10421254802F080FC244B42F23D
:102920001072B3F87030244C934200D013B9237D59
:10293000002B39D01F48102101F0D9FF0023237547
:1029400010BD1A48082102F05EFC98B10821174812
:1029500002F064FC164B42F21072B3F88C309342D2
:1029600022D00BB31348202101F0BFFF124B0122EC
:102970005A7510BD0D48102102F045FCA0B1102180
:102980000A4802F04BFC0A4B42F21072B3F88C304A
:10299000094C934200D00BB9637D2BB1054820212F
:1029A00001F0A5FF0023637510BD00BF00080040C3
:1029B0008453002000100140F001002010B524488D
:1029C00002F06EF8234B9861234B98421CD005D837
:1029D00010282CD0B0F5806F39D122E01F4B9842DF
:1029E00003D00233984232D10EE01D4C00234FF445
:1029F000806101221648238002F02DF82388194AAD
:102A0000D15C0133238007E0154A1388532B1ED86D
:102A10001449C95C013313800D48BDE8104002F031
:102A200025B80B481049BDE8104002F041B800221B
:102A300007484FF4806102F00EF80C49044802F098
:102A40003BF803480121BDE8104001F0DDBF10BD97
:102A500000540040F00100208000060082000600C3
:102A60002A0200201E550020000400011000000270
:102A700010B51348134902F01FF818B11048114956
:102A800002F028F80E48104902F016F818B10C4868
:102A90000D4902F01FF80A480C4902F00DF818B170
:102AA00007480A4902F016F80548094902F004F8F7
:102AB00028B103480649BDE8104002F00BB810BD2C
:102AC0000054004000040001000100010002000168
:102AD0000008000170B5574801F0E2FF564BD8617D
:102AE000564B98422CD015D8B0F5806F00F09A80E4
:102AF00005D8102876D0502840F09A8072E0504BCC
:102B0000984263D00433984260D0B0F1021F40F085
:102B10008F8050E04B4B984221D007D8423B9842DF
:102B200019D03E33984240F0838018E0464B9842DB
:102B300028D0023398422BD0043B984278D127E02A
:102B400001213C4801F07AFF3A4830210122BDE8DA
:102B5000704001F090BF3D4B00221A8070BD3B4D8C
:102B60002C88532C06D8334801F082FF384B185577
:102B700001342C802B88532B5AD12E48002101F090
:102B80005DFF12E0334B01221978334B1A8007E0C6
:102B9000314A1388532B08D82E49C95C013313805E
:102BA0002448BDE8704001F061BF22480121BDE822
:102BB000704001F036BF254B00221E481A804FF4AA
:102BC00080610122BDE8704001F045BF1F4D2C8897
:102BD000532C2DD8174801F04BFF1D4B18550134CD
:102BE0002C8070BD194C002212484FF4806101F016
:102BF00032FF2588532D06D80E4801F039FF144BBB
:102C000058550135258015490A4801F055FF012125
:102C1000084801F0F9FE2388542B09D1104B0122FA
:102C20001A7070BD03480F49BDE8704001F040BF05
:102C300070BD00BF00580040F001002001000300FB
:102C40004000020044000300820007002802002028
:102C5000C85400201E5500202A0200201000000247
:102C60002C0200200004000110B51348134901F0A4
:102C700023FF18B11048114901F02CFF0E481049EC
:102C800001F01AFF18B10C480D4901F023FF0A4862
:102C90000C4901F011FF18B107480A4901F01AFF69
:102CA0000548094901F008FF28B103480649BDE875
:102CB000104001F00FBF10BD00580040000400019B
:102CC0000001000100020001000800017047704788
:102CD000704770477047000070B51F4C00254FF4D7
:102CE0008060256201F07AFDB8B101F061FB012836
:102CF00007D11A4B2946186904F120022B4600F02F
:102D000044FF236A012B04D100F0B8FD124B0022CE
:102D10001A624FF4806001F06FFD4FF4006001F023
:102D20005DFDC0B101F044FB012806D10B4B002131
:102D300058690B4A0B4600F028FF236A012B04D187
:102D400000F09CFD044B00221A624FF40060BDE8C5
:102D5000704001F051BD70BDF00100205C540020B6
:102D600010020020704770477047704770477047E7
:102D700070B52C484FF4087101F036FC2A4B2B4CEF
:102D80001B882B4D23802A4804232146294AFDF71E
:102D9000CFF92B684FF08040DB132B6002F030FA44
:102DA00041F28833984203D9234B012283F824202F
:102DB0002B68224DB5F9002002F108018B420BDA95
:102DC000083A934208DD1C4E96F824300BB1FEF70A
:102DD000DBFE002386F8243044211448FDF7FBF97C
:102DE000174A1388591C118049F64042934217D85C
:102DF000144A2388B2F9001018B281421249B8BFB0
:102E00001380B1F900408442C8BF0B800B88B2F92F
:102E100000101AB28A1A02EBD27203EB62032B8003
:102E200070BD00BF003C0140505400208C55002074
:102E300070530020D8010020F00100202002002063
:102E4000220200201E020020E0010020704770478F
:102E500070477047704770477047704770477047BA
:102E600070477047684620F007018D4601B5114A4A
:102E7000114B03E052F8041B43F8041B0F498B422B
:102E8000F8D30F4B02E0002243F8042B0D4A934283
:102E9000F9D30D4B1A6812F0804F05D042F08072C2
:102EA0001A600A4B01221A70FFF7D8FABDE80140F8
:102EB000854670470C53000800000020E801002000
:102EC000E8010020DC550020241002402D020020E3
:102ED0001FB54FF40040FEF787FB0446002840F082
:102EE000AE800121564801F08FFD0121554801F0C7
:102EF0008BFD4FF480634BF6FF72ADF80630524BFA
:102F0000ADF802204FF480404FF48042ADF800400D
:102F1000ADF808200393FEF767FB012807D14FF4B3
:102F20000050FEF761FB012801D1102318E04FF497
:102F30008040FEF759FB012806D14FF40050FEF700
:102F400053FB08B9302219E04FF48040FEF74CFBE8
:102F500048B94FF40050FEF747FB012803D1502336
:102F6000ADF804300CE04FF48040FEF73DFB38B97B
:102F70004FF40050FEF738FB10B97022ADF8042072
:102F8000324BBDF804202E481A80694601F0D0FC6F
:102F90004FF480434FF48040ADF80830FEF724FB37
:102FA000012807D14FF40050FEF71EFB012801D184
:102FB000202218E04FF48040FEF716FB012806D1CE
:102FC0004FF40050FEF710FB08B9402319E04FF40E
:102FD0008040FEF709FB48B94FF40050FEF704FBB0
:102FE000012803D16022ADF804200CE04FF48040AA
:102FF000FEF7FAFA38B94FF40050FEF7F5FA10B9B7
:103000008023ADF80430124BBDF804200D481A801F
:10301000694601F08DFC0A48012101F034FD0948A0
:10302000012101F030FD06484FF4E061012201F07A
:1030300012FD04484FF4E061012201F00CFD1FBDB8
:103040000054004000580040A08601004A53002070
:103050004853002010B501214FF0C05001F0B4FEDC
:10306000012001F091FDBDE8104001F0CFBA10B58C
:10307000002001F089FDBDE8104001F0C7BA10B58D
:10308000012001F081FDBDE8104001F0BFBA4028E9
:1030900010B5044618D1042042F2107101F0A8FACC
:1030A000082042F2341101F0A3FA0C2040F6C411BA
:1030B00001F09EFA1020642101F09AFA14200121F7
:1030C00001F096FA182089E0802818D11C2042F2DD
:1030D000107101F08DFA202042F2341101F088FACB
:1030E000242040F6C41101F083FA2820642101F065
:1030F0007FFA4020022101F07BFA44206EE0B0F517
:10310000807F18D1482042F2107101F071FA4C20F2
:1031100042F2341101F06CFA502040F6C41101F073
:1031200067FA5420642101F063FA5820042101F069
:103130005FFA5C2052E0B0F5007F18D1602042F2C7
:10314000107101F055FA642042F2341101F050FA86
:10315000682040F6C41101F04BFA6C20642101F0A4
:1031600047FA7020082101F043FA742036E0B0F5E8
:10317000806F18D1782042F2107101F039FA7C206A
:1031800042F2341101F034FA802040F6C41101F00B
:103190002FFA8420642101F02BFA8820102101F0FD
:1031A00027FA8C201AE0B0F5006F1CD1902042F273
:1031B000107101F01DFA942042F2341101F018FA56
:1031C000982040F6C41101F013FA9C20642101F00C
:1031D0000FFAA020202101F00BFAA4202146BDE81F
:1031E000104001F005BA10BD10B5A820002101F073
:1031F000FFF9AC20002101F0FBF9B020002101F023
:10320000F7F9B420002101F0F3F9B820002101F012
:10321000EFF9BC200021BDE8104001F0E9B9000041
:1032200013B50446BC2001F0E9F9214B402C18608D
:10323000019304D1019B5B0143F008532FE0802CE4
:1032400006D1019B5B0143F0085343F0040326E0E1
:10325000B4F5807F06D1019B5B0143F0085343F036
:1032600008031CE0B4F5007F06D1019B5B0143F02D
:10327000085343F00C0312E0B4F5806F06D1019BB4
:103280005B0143F0085343F0100308E0B4F5006F0E
:103290000CD1019B5B0143F0085343F01403186801
:1032A000A0F10103584240EB0300FFE71CBD00BF43
:1032B0002402002008B5A82001F0A0F90D4B1880C9
:1032C000AC2001F09BF90C4B1880B02001F096F96E
:1032D0000A4B1880B42001F091F9094B1880B820EE
:1032E00001F08CF9074B1880BC2001F087F9064BE0
:1032F000186008BD2C5400202E0200201C55002010
:10330000365400203454002024020020402838B5D0
:1033100004460D4615D1042001F070F928800820DC
:1033200001F06CF968800C2001F068F9A880102089
:1033300001F064F9E880142001F060F92881182078
:1033400061E0802815D11C2001F058F92880202048
:1033500001F054F96880242001F050F9A880282059
:1033600001F04CF9E880402001F048F92881442020
:1033700049E0B0F5807F15D1482001F03FF9288061
:103380004C2001F03BF96880502001F037F9A8800B
:10339000542001F033F9E880582001F02FF92881FA
:1033A0005C2030E0B0F5007F15D1602001F026F9F7
:1033B0002880642001F022F96880682001F01EF95D
:1033C000A8806C2001F01AF9E880702001F016F94D
:1033D0002881742017E0B0F5806F1CD1782001F0AF
:1033E0000DF928807C2001F009F96880802001F027
:1033F00005F9A880842001F001F9E880882001F017
:10340000FDF828818C2001F0F9F868812046FFF74B
:1034100007FF287338BDB0F5006F1BD1902001F075
:10342000EDF82880942001F0E9F86880982001F0F8
:10343000E5F8A8809C2001F0E1F8E880A02001F0E8
:10344000DDF82881A42001F0D9F868812046FFF733
:10345000E7FE287338BD000010B54FF48050FEF72A
:10346000C3F818B10F4B1B78012B19D14020FFF77F
:103470000EFE8020FFF70BFE4FF48070FFF707FE73
:103480004FF40070FFF703FE4FF48060FFF7FFFD7D
:103490004FF40060FFF7FBFDBDE81040FFF7A4BE4E
:1034A00010BD00BF2D02002038B50E4D042420466B
:1034B00001F0A4F80434A4B205F8010C000A2C2C85
:1034C00005F8020BF3D1084D1434204601F096F8AC
:1034D00004342875A4B2000A68750235C02CF4D1F2
:1034E00038BD00BF1F5500201E55002008B50349F8
:1034F00054220348FCF77EFE08BD00BF1E55002085
:10350000C8540020008870472DE9F84345484649D3
:103510005422FCF76FFE0024424F4FF00C0808FBCA
:103520000470FFF7EFFFB0F57A7F404D07D942F204
:103530002733984205D942F21073984201D00028EF
:103540004AD108FB04F807EB0806B01CFFF7DAFFC6
:10355000B0F57A7F40D942F2273948453CD8301D32
:10356000FFF7D0FFB0F57A7F36D9484534D8B01D83
:10357000FFF7C8FFB0F57A7F2ED22A4B984408F1A6
:103580000A00FFF7BFFF40280DD080280BD0B0F510
:10359000807F08D0B0F5007F05D0B0F5806F02D0F5
:1035A000B0F5006F18D10C2303FB047707F1080076
:1035B000FFF7A8FF012809D0022807D0042805D06A
:1035C000082803D0102801D0202805D10123E418B1
:1035D000062C2B70A0D101E000232B702B78012B3F
:1035E0001ED1134D042415F8013C15F8021B20468A
:1035F00009025918043489B2A4B200F0F9FF2C2C46
:10360000F1D1094D1434697D2B7D090259182046EA
:10361000043489B2A4B200F0EBFF0235C02CF2D121
:10362000BDE8F88374540020C8540020180200201C
:10363000C954002010B54FF0C050012101F0C4FB67
:10364000012001F0A1FA012001F03EFB412001F030
:10365000C7FB0028FAD04FF4807001F045FB012031
:1036600001F04AFB01F022FC01F018FC01200146A8
:1036700001F0E0FB01F012FC47F6FF7001F0FCFBEB
:10368000BDE8104001F00ABC38B5054600F0ACFCBE
:10369000244B996881B9244A4FF4A044C2F8344CB1
:1036A000C2F8301C02F5436203F110001A610122D6
:1036B000186059605C619A6035B1083515F0030FE8
:1036C0001CBF25F003050435691E44F6FE729142C5
:1036D00022D81B68134A01E01A4603465968A942DA
:1036E00002D218680028F7D11048834214D0146819
:1036F0001868491B0834102910600ED95A195160F6
:103700005D605068074B00E00B4619684D688542C4
:10371000FAD311601A6000E0002400F0C1FC2046DA
:1037200038BD00BF3002002010460020405200206B
:1037300070B5044690B1A0F1080500F055FC696829
:10374000074B00E013461A6850688842FAD344F8E1
:10375000082C1D60BDE8704000F0A2BC70BD00BF29
:103760003002002000F108034FF0FF328260436016
:10377000C360036100230360704700230361704747
:1037800043685A688B604A605A689160596041602A
:10379000086103680133036070470A6810B5B2F12D
:1037A000FF3F01D1036907E000F1080300E05B6817
:1037B0005C6824689442FAD95A68086191604A604A
:1037C0008B60596003680133036010BD43688268F1
:1037D0009A608268536003695968814208BF5A60E1
:1037E000002202611A68013A1A60704710B5034658
:1037F0004FF0807443F8044940F8041C002143F85A
:10380000041C43F8182C3C3810BD0000064B196806
:103810000868B0E8F00F80F309884FF0000080F3EB
:1038200011884EF00D0E70474C520020024800687F
:10383000006880F3088800DF08ED00E00B4B10B54E
:103840001A68002442F47F021A601A6842F07F422C
:103850001A60074B074A1A60072243F8042C064BEC
:103860001C60FFF7E3FF204610BD00BF20ED00E025
:1038700014E000E03F190100E4010020024B4FF08A
:1038800080521A60704700BF04ED00E04FF0BF00A7
:1038900080F31188024B1A6801321A60704700BF2A
:1038A000E4010020044A1368013B13601BB94FF088
:1038B000000080F311887047E4010020EFF30980D5
:1038C0000C4B1A6820E9F00F10602DE908404FF00A
:1038D000BF0080F3118800F09BFC4FF0000080F3E4
:1038E0001188BDE8084019680868B0E8F00F80F357
:1038F000098870474C52002008B5074B4FF08052A2
:103900001A604FF0BF0080F3118800F077FB4FF092
:10391000000080F3118808BD04ED00E030B50468B4
:1039200003466CB1C568026CAD18C560406885423D
:1039300028BFDC600846D968BDE83040FCF75ABCB7
:1039400030BD10B50446FFF7A1FF0BE0636A63B119
:1039500004F1240000F0B6FC08B100F01BFDA36CDC
:10396000013BA364A36C002BF0DC4FF0FF33A36496
:10397000FFF798FFFFF78AFF0BE0236963B104F1BB
:10398000100000F09FFC08B100F004FD636C013BE7
:103990006364636C002BF0DC4FF0FF336364BDE8BD
:1039A0001040FFF77FBF38B51346026C044632B9AA
:1039B000056805BB406800F03BFD65601BE063B92E
:1039C0008068FCF717FCA268236CD3186268A360B8
:1039D000934210D32368A3600DE0C068FCF70AFC93
:1039E000236CE2685B422168D2188A42E26002D20C
:1039F0006268D318E360A36B0133A36338BD2DE97C
:103A0000F0410F46064658B34C20FFF73DFE0446F2
:103A100038B306FB07F808F10100FFF735FE05464D
:103A20002060C0B100EB080363600023A363731E32
:103A300007FB03054FF0FF33A060E56004F11000C1
:103A4000E66327646364A364FFF78CFE04F124003B
:103A5000FFF788FE05E02046FFF76AFE2C4600E0EF
:103A600004462046BDE8F0812DE9FF4104460D469D
:103A700001921E464FF0000801E04FF00108FFF7E9
:103A800005FFA26BE36B9A4212D2204629463246CA
:103A9000FFF789FF636A3BB104F1240000F012FCD8
:103AA000012801D1FFF7EAFEFFF7FCFE012048E004
:103AB000019F1FB9FFF7F6FE384642E0B8F1000F4C
:103AC00002D102A800F02EFCFFF7ECFE00F08CFA09
:103AD000FFF7DCFE636CB3F1FF3F01D10133636498
:103AE000A36CB3F1FF3F01D10133A364FFF7DAFE0A
:103AF00002A801A900F020FCE8B9FFF7C7FED4F83E
:103B00003880E76BFFF7CEFEB8450ED104F1100008
:103B1000019900F0ABFB2046FFF713FF00F0C0FA5D
:103B20000028AAD1FFF7AAFEA7E72046FFF709FF62
:103B300000F0B6FAA1E72046FFF703FF00F0B0FA65
:103B4000002004B0BDE8F08138B54C20FFF79CFDA3
:103B50000446C0B101230025C363023B4364836470
:103B6000456005608560C560856305641030FFF7BA
:103B7000F9FD04F12400FFF7F5FD204629462A4609
:103B80002B46FFF771FF204638BD38B50446154671
:103B90004FF0BF0080F31188A06BE26B904214D20B
:103BA0001A462046FFF7FFFEA36CB3F1FF3F09D191
:103BB000636A63B104F1240000F084FB012338B18F
:103BC0002B6005E00133A36401E0002300E0012342
:103BD0004FF0000080F31188184638BD2DE9FF41F1
:103BE00004460D4601921F464FF0000801E04FF0D9
:103BF0000108FFF74BFEA36B23B320462946E66876
:103C0000FFF78CFE87B9A36B013BA363236813B94D
:103C100000F0C8FB6060236983B104F1100000F07C
:103C200051FB01280AD107E0636AE66033B104F171
:103C3000240000F047FB08B1FFF720FEFFF732FE3B
:103C400001204EE0019E1EB9FFF72CFE304648E0F1
:103C5000B8F1000F02D102A800F064FBFFF722FECA
:103C600000F0C2F9FFF712FE636CB3F1FF3F01D120
:103C700001336364A36CB3F1FF3F01D10133A3644B
:103C8000FFF710FE02A801A900F056FB18BBFFF7D2
:103C9000FDFDA66BFFF706FEBEB9236833B9FFF73B
:103CA000F5FD606800F092FBFFF7FCFD04F12400D5
:103CB000019900F0DBFA2046FFF743FE00F0F0F92F
:103CC000002894D1FFF7DAFD91E72046FFF739FE8F
:103CD00000F0E6F98BE72046FFF733FE00F0E0F94D
:103CE000002004B0BDE8F0812DE9F74F834648205D
:103CF0000D46144698460C9FDDF834A0FFF7C4FC2F
:103D00000646002800F0A0804FEA84094846FFF7E5
:103D1000BBFC306318B93046FFF70AFD94E0A521DB
:103D20004A46FCF70FFB2946102206F13400FCF747
:103D300063FB351D042F34BF3B4604234FF00009BD
:103D4000F362736486F8439028460193FFF715FDEC
:103D500006F11800FFF711FD019B601EC3F105037A
:103D6000B361336B594603EB80004246366176629D
:103D7000FFF73CFD374C3060FFF788FD236804F106
:103D8000080B013323602368012B29D166601420BE
:103D900000FB09B009F10109FFF7E4FCB9F1050FD7
:103DA000DFF8B080F3D108F16C03184608F1800900
:103DB0000193FFF7D7FC4846FFF7D4FC08F19400C5
:103DC000FFF7D0FC08F1A800FFF7CCFC08F1BC001D
:103DD000FFF7C8FC019BC8F8D030C8F8D49007E0C2
:103DE000D4F8D83023B96368DB6ABB4298BF6660F9
:103DF000F36AD4F8DC202946934284BF154AC2F8FE
:103E0000DC30D4F8E0200132C4F8E020D4F8E4201B
:103E1000934284BF0F4AC2F8E430142000FB03B081
:103E2000FFF7AEFCFFF73EFDBAF1000F01D0CAF874
:103E30000060D4F8D83053B1064B5B68DB6ABB42F4
:103E400005D2FFF71BFD02E04FF0FF3000E001203C
:103E5000BDE8FE8F485200202DE9F041174C054681
:103E6000FFF714FD63689D4200D015B96668002510
:103E700000E02E46371D3846FFF7A8FCB36A1BB199
:103E800006F11800FFF7A2FC0D483946FFF778FC51
:103E9000D4F8E8300133C4F8E830D4F8E030013326
:103EA000C4F8E030FFF7FEFCD4F8D83023B11DB9D8
:103EB000BDE8F041FFF7E2BCBDE8F08148520020C8
:103EC000F052002070B50446FFF7E0FC0F4B5A6833
:103ED000944200D014B95D68002400E025462E1DF0
:103EE0003046FFF773FCAB6A1BB105F11800FFF712
:103EF0006DFC07483146FFF743FCFFF7D3FC1CB9C4
:103F0000BDE87040FFF7BABC70BD00BF485200204A
:103F1000045300204369084A934208D1806A283B31
:103F2000984206D0D0F1010038BF00207047002031
:103F300070470020704700BF0453002070B504464E
:103F4000002827D0144D6B68984223D0FFF79EFCC1
:103F50002046FFF7DFFF012818D1261D3046FFF766
:103F600035FCE36AD5F8E420314693420B4A88BF1A
:103F7000C5F8E430142000FB0320FFF701FC6B6858
:103F8000E26ADB6A9A4201D3FFF778FCBDE8704031
:103F9000FFF788BC70BD00BF48520020505200207F
:103FA00013B50024802223460C480D490094019447
:103FB000FFF79AFE012803460DD14FF0BF0080F3B2
:103FC0001188084AC2F8D830C2F8F04002B0BDE803
:103FD0001040FFF733BC02B010BD00BF65410008C0
:103FE0000653000848520020034BD3F8EC2001325E
:103FF000C3F8EC20704700BF48520020264B70B534
:10400000D3F8EC201C46002A3FD1D3F8F03001331E
:10401000C4F8F030D4F8F0305BBBD4F8D030D4F82A
:10402000D420C4F8D020C4F8D430D4F8F43001330C
:10403000C4F8F4301DE0D3F8F0206B689A4229D31D
:104040002E1D3046FFF7C2FBAB6A1BB105F118000D
:10405000FFF7BCFBD4F8E420EB6A3146934284BFFF
:104060000D4AC2F8E4300D4A142000FB0320FFF78C
:1040700087FBD4F8D020084B12685AB1D3F8D0206F
:10408000D268D568002DD6D170BDD3F8F8200132A2
:10409000C3F8F82070BD00BF4852002050520020E5
:1040A0002DE9F0412D4CFFF7F1FBD4F8EC30013B4A
:1040B000C4F8EC30D4F8EC60002E47D12368EBB99B
:1040C00046E005F1180005F10408FFF77FFB4046C4
:1040D000FFF77CFBEB6AD7F8E42041469342204A85
:1040E00088BFC7F8E430142000FB0320FFF748FB2B
:1040F0006368EA6ADB6A9A4228BF0126D4F89430E2
:10410000164F23B1D7F8A030DD68002DD9D1D4F8EF
:10411000F8303BB90CE0FFF771FFD5F8F830013B00
:10412000C5F8F830D4F8F8300C4D002BF3D106E088
:10413000012E04D0094AD2F8FC20012A08D100231C
:10414000C4F8FC30FFF79AFB012402E0002400E0F1
:104150001C46FFF7A7FB2046BDE8F081485200202F
:104160005052002038B5164CD4F8E8300BB3FFF7A6
:104170003BFFD4F8A850FFF793FFD5B1FFF786FBBC
:10418000D4F8A85015B1D4F8B430DD68281DFFF775
:104190001DFB2368013B2360D4F8E830013BC4F8E1
:1041A000E830FFF77FFB286BFFF7C2FA2846FFF7DE
:1041B000BFFAA368012BD6D9FFF760FBD3E700BF96
:1041C0004852002070B50546D0B1104CFFF70CFFE7
:1041D000D4F8F0306068ED180430FFF7F7FA636840
:1041E0005D60D4F8F0309D4234BFD4F8D400D4F8E8
:1041F000D00061680431FFF7D0FAFFF751FF18B91A
:10420000BDE87040FFF73ABB70BD00BF48520020C8
:10421000154B30B5D3F8EC101A4641B10122C3F862
:10422000FC2030BDD3F8E4100139C3F8E410D2F813
:10423000E410142505FB012189680B4B0029F1D0FE
:10424000D3F8E44065435919C8680B4640681033F9
:10425000C860984204BF4368CB60142303FB042466
:10426000E368DB68536030BD4852002070B5144CE1
:104270000D4661681831FFF790FA60680430FFF767
:10428000A5FAB5F1FF3F07D1616804F1BC00043124
:10429000BDE87040FFF774BAD4F8F030ED186368E9
:1042A0005D60D4F8F0309D4234BFD4F8D400D4F827
:1042B000D00061680431BDE87040FFF76EBA00BFFE
:1042C0004852002070B504680CB1C368DC6804F182
:1042D0001806124D3046FFF779FAD5F8EC307BB965
:1042E000261D3046FFF772FAE36AD5F8E4209342C0
:1042F0000B4A88BFC5F8E430142000FB032001E01E
:1043000005F194003146FFF73BFA6B68E06ADB6A1F
:10431000984234BF0020012070BD00BF48520020E9
:1043200050520020034BD3F8F420D3F8F030026051
:10433000436070474852002038B50D460446FFF7E9
:10434000A5FA2B68B3F1FF3F1AD0114A2168D2F8C1
:10435000F4008842114604D0D2F8F000626890421E
:1043600010D2D1F8F0106268891A99420AD208492D
:104370002046D1F8F010521AD3182B60FFF7D2FF65
:10438000002400E00124FFF78DFA204638BD00BF6D
:1043900048520020024B0122C3F8FC20704700BFA6
:1043A00048520020014B5868704700BF4852002017
:1043B000054BD3F8D80028B1D3F8EC00002814BF7F
:1043C00002200120704700BF485200202DE9F04133
:1043D000164CC36A62680546D26A934224D2626868
:1043E00004F10807D26AC2F105028261142202FBBD
:1043F000037342699A4214D1061D3046FFF7E6F96D
:104400006368D4F8E420DB6A3146934288BFC4F87D
:10441000E430142000FB0370EB62BDE8F041FFF7CD
:10442000AFB96368DB6AC362BDE8F081485200201F
:1044300070B50446E0B1C26A436C9A4218D0051DBB
:104440002846FFF7C3F9636CC3F10502A261094A6C
:10445000E362D2F8E4108B4288BFC2F8E430064A27
:10446000142000FB03202946BDE87040FFF788B9FF
:1044700070BD00BF485200205052002043680A68B7
:1044800023F4702323F4807313430A7910B543EAAD
:10449000022343608A68CB6884681A43094B04EAA4
:1044A000030342EA03034A7943EA420383600B7C35
:1044B000C26A013B22F47002DBB242EA0353C362D8
:1044C00010BD00BFFDF7F1FF19B1836843F0010390
:1044D00002E0836823F001038360704719B18368A9
:1044E00043F4807302E0836823F480738360704731
:1044F000C9B212B14368194302E0436823EA0101DB
:1045000041607047836843F00803836070478068A8
:10451000C0F3C0007047836843F0040383607047B2
:104520008068C0F38000704719B1836843F4A0032A
:1045300002E0836823F4A00383607047092970B503
:104540004FEA41040BD964181E3C0725A540A3403F
:10455000C66826EA050545EA0304C4600AE0641853
:104560000725A54013FA04F4066926EA050545EA7D
:1045700004030361062A0CD8013A02EB82021F23CE
:1045800093409140446B24EA030343EA01024263EF
:1045900070BD0C2A4FEA82030BD89A18233A1F23C6
:1045A00093409140046B24EA030343EA010202634F
:1045B00070BD9A18413A1F2393409140C46A24EA7F
:1045C000030343EA0102C26270BD0000054B18B14B
:1045D0009A6842F4000202E09A6822F400029A60AB
:1045E000704700BF002401406FEA1121016070474D
:1045F00000F1804000F5D8400180704700F1804014
:1046000000F5D840008880B270470000034B9A8EB6
:1046100092B242F001029A86704700BF006C0040DF
:10462000036882B023F0010303600023036043604A
:104630008360C3602D4B0190984231D011D83C3B30
:10464000984227D006D8283B98421FD0143398426E
:1046500049D11DE0264B98421ED01433984242D1D6
:104660001CE0244B98422AD006D8234B98421CD0F9
:10467000224B984237D11DE0214B984229D0143368
:1046800098422BD0283B98422DD11DE01D4B12E0C3
:104690001C4B15E01B4B18E01A4B1BE0194B1EE09E
:1046A000184B5A6842F470021CE0164B5A6842F0EC
:1046B000706217E0144B5A6842F00F0212E0124B7E
:1046C0005A6842F0F0020DE00F4B5A6842F47062F3
:1046D00008E00D4B5A6842F4704203E00A4B5A68F6
:1046E00042F470225A6002B0704700BF6C00024072
:1046F000440002401C0402408000024008040240C2
:104700004404024000000240000402408A6810B5E0
:104710000C6A036844EA02020C6923F4FE43224354
:104720004C6923F0F00322438C692243CC69224375
:104730004C6A22438C6A224342EA03030360CB683B
:1047400043600B6883604B68C36010BD19B1036898
:1047500043F0010302E0036823F0010303607047A4
:10476000837910B50168002B2BD01B4BCA431C6802
:1047700002EA04041C605C6822405A600279D21884
:10478000146844EA0101116002689C68D14301EA9F
:1047900004049C60DC682140D9604179102907D16C
:1047A000996811439960D96841EA0202DA6010BD44
:1047B00001F1804303F58233196841EA02021A606D
:1047C00010BD037903F1804303F582331A6822EAAE
:1047D0000101196010BD00BF00040140054B1A68BB
:1047E0005B69034004D010420CBF002001207047D9
:1047F0001846704700040140014B5861704700BFE4
:1048000000040140044B1A6802F038021A601A686A
:1048100040EA02021A60704700200240044B1A6806
:1048200022F010021A601A6840EA02021A60704709
:1048300000200240CB78F0B513F0100F03F00F0208
:104840000E881CBF8B781A4316F0FF0F1DD004682A
:10485000002301279F4007EA0605BD4211D19F00B2
:104860004FF00F0C0CFA07FC12FA07F724EA0C04BD
:104870003C43CF78282F01D1456102E0482F08BF83
:1048800005610133082BE4D104600E88FF2E1FD987
:104890004468002303F108050127AF4007EA060535
:1048A000BD4211D19F004FF00F0C0CFA07FC12FA19
:1048B00007F724EA0C043C43CF78282F01D1456147
:1048C00002E0482F08BF05610133082BE2D14460A4
:1048D000F0BD836819420CBF002001207047C368F7
:1048E00019420CBF002001207047016170474161EF
:1048F00070470AB1016170474161704701F00302DE
:1049000030B592000F24944010FA02F2074B890848
:10491000023153F8215025EA040443F8214053F8AA
:10492000214042EA040443F8214030BD0000014028
:10493000F0B587B00446868801A80D46304F00F0D8
:10494000E1F9039826F03F063604B0FBF7F7360C82
:10495000BFB247EA0606A6802188EA6821F0010175
:10496000284B0904090C9A4221800AD85300B0FB55
:10497000F3F301379BB2BFB22784032B98BF042304
:1049800022E069884BF6FF73994205D102EB42029F
:10499000B0FBF2F39BB206E019235343B0FBF3F3F1
:1049A0009BB243F480431A05120D0AB943F0010388
:1049B0004FF4967257434FF47A7297FBF2F7013730
:1049C000BFB243F400432784A3832388E9889BB2C2
:1049D00043F00103238023882A8823F4806323F093
:1049E0000A031B0441EA02021B0C13439BB22380FF
:1049F000AA882B8942EA03039BB2238107B0F0BD4A
:104A000040420F00A086010021B103889BB243F011
:104A1000010304E0038823F001031B041B0C038043
:104A2000704721B103889BB243F4007304E003880C
:104A300023F400731B041B0C0380704721B103880F
:104A40009BB243F4806304E0038823F480631B0477
:104A50001B0C038070471AB183889BB2194303E093
:104A600083889BB223EA01018180704701827047ED
:104A7000008AC0B2704712B141F0010101E001F0BB
:104A8000FE010182704721B903889BB243F0800385
:104A900004E0038823F080031B041B0C0380704791
:104AA000838A008B9BB243EA004020F07F4070472E
:104AB000C94389B2818270478388808A9BB280B261
:104AC000084006D001F0E06113EA11410CBF00205C
:104AD00001207047C94389B28182704740F0BE60AF
:104AE000024B40F42020D860704700BF00ED00E08A
:104AF000C37870B56BB31D4B4578DB688178DB43B9
:104B000003F4E0631B0AC3F1040215FA02F20F2555
:104B1000DD400D40154302782D0102F00304E4004E
:104B2000FF21A540A140124B9208C03253F82260E9
:104B300026EA010405EA0101214343F82210027824
:104B40000120510902F01F0210FA02F243F821205D
:104B500070BD03780122590903F01F0312FA03F311
:104B6000034A203142F8213070BD00BF00ED00E063
:104B700000E100E021F0604121F07F01014B0143A1
:104B80009960704700ED00E0014B1860704700BF6E
:104B900020000E42034B5B6818420CBF002001202E
:104BA000704700BF00700040024B1A6842EA800262
:104BB0001A607047007000400D4B1A6842F0010205
:104BC0001A6059680B4A01EA02025A601A6822F018
:104BD000847222F480321A601A6822F480221A60E9
:104BE0005A6822F4FE025A6000229A60704700BFA1
:104BF000001002400000FFF80C4BB0F5803F1A682F
:104C000022F480321A601A6822F480221A6003D0DB
:104C1000B0F5802F09D104E01A6842F480321A609E
:104C200070471A6842F4A0221A60704700100240D0
:104C3000044B5A6822F47C1240EA02020A435A608A
:104C4000704700BF00100240014B1860704700BF62
:104C500060004242034B5A6822F0030240EA02021B
:104C60005A60704700100240024B586800F00C0078
:104C7000704700BF00100240034B5A6822F0F00258
:104C800040EA02025A60704700100240034B5A6823
:104C900022F4E06240EA02025A60704700100240CB
:104CA000034B5A6822F4605242EAC0025A607047CD
:104CB00000100240034B5A6822F4404240EA0202CC
:104CC0005A60704700100240064B002201281A70FB
:104CD0001A7002D0042804D101E018707047052230
:104CE0001A70704720100240024B1A6A40EA020212
:104CF0001A62704700100240014B1860704700BFF5
:104D00003C04424210B5204B5A6802F00C02042ABF
:104D100001D0082A02D01D4B036011E05A6859687F
:104D200002F47012920C023211F4803F03D05B68DF
:104D300013F4003F01D0164B00E0144B5A430260BD
:104D4000114A144B5168046801F0F0010909595CDB
:104D500034FA01F14160546804F4E064240A1C5DF3
:104D600031FA04F48460546804F46054E40A1C5D6D
:104D7000E140C160526802F4404203EB92331B7C75
:104D8000B1FBF3F1016110BD0010024000127A0086
:104D900000093D0088520008044B11B15A691043C4
:104DA00002E05A6922EA0000586170470010024090
:104DB000044B11B19A69104302E09A6922EA00009B
:104DC0009861704700100240044B11B1DA6910433A
:104DD00002E0DA6922EA0000D86170470010024060
:104DE0004309012B074A01D1136803E0022B0CBFD2
:104DF000136A536A00F01F0033FA00F000F001005C
:104E0000704700BF0010024007B500230193312016
:104E1000FFF7E6FF019B0133019318B9019BB3F53E
:104E2000A06FF4D13120FFF7DBFF003818BF01205D
:104E30000EBD0000054B19B11A8892B2104303E071
:104E40001A8892B222EA00001880704700280040B9
:104E5000034B9A8892B242F010029A80704700BFCA
:104E600000280040034A938823F010031B041B0C06
:104E7000938070470028004010B50446FFF7E8FF14
:104E8000054B04F47022120CA4B21A819C81BDE877
:104E90001040FFF7E7BF00BF00280040024B9B888F
:104EA00013F0200FFAD0704700280040064A93887C
:104EB00023F008031B041B0C9380034B9B8813F007
:104EC000080FFAD0704700BF00280040074B9A88AF
:104ED0001B8892B2034006D0104010F0FF0F0CBFA9
:104EE0000020012070471846704700BF002800408E
:104EF000034B9A8892B222EA00029A80704700BF60
:104F0000002800400388CA8803F08F0303800388C9
:104F100082B09BB213434A88019013439BB2038033
:104F20008B8883850B88038501238382044B9842F9
:104F300002D0044B984201D10B7A038602B070472D
:104F4000002C014000340140038C73B523F00103B1
:104F50001B041B0C0384038C8488028B0D8822F0B5
:104F600070021204120C4E882A430D8923F00203AA
:104F70001B0446EA05051B0CADB245EA0303CD88C8
:104F8000019085860F4DA4B2A84202D00E4DA842D2
:104F900014D14FF6F77503EA05054B891D434FF60B
:104FA000FB7305EA03038D882B4347F6FF4504EAAC
:104FB0000505CC8989890C43A4B22C4384800283E3
:104FC00003847CBD002C014000340140038C37B5C4
:104FD00023F010031B041B0C0384038C8288048BB6
:104FE0000D8824F4E0442404240C23F0200344EA34
:104FF00005241B040D891B0C43EA05134D88019001
:1050000043EA0513CD8892B20587134DA4B2A84296
:105010009BB202D0114DA84219D14FF67F7503EA19
:1050200005054B8945EA03154FF6BF7305EA0303EF
:105030008D8843EA051347F2FF3502EA05058A89A0
:105040009BB245EA8205CA8945EA820292B2828011
:10505000048303843EBD00BF002C014000340140A6
:10506000038C37B523F480731B041B0C0384038C5F
:105070008288848B0D8824F070042404240C23F48B
:1050800000731B042C430D891B0C43EA05234D8838
:10509000019043EA0523CD8892B28587124D9BB2D9
:1050A000A84202D0114DA84219D14FF2FF7503EA70
:1050B00005054B8945EA03254FF6FF3305EA03034F
:1050C0008D8843EA052344F6FF7502EA05058A89BF
:1050D0009BB245EA0215CA8945EA021292B2828061
:1050E000848303843EBD00BF002C01400034014096
:1050F000038C37B523F480531B041B0C0384038CEF
:105100008488828B0D8822F4E0421204120C23F46E
:10511000005342EA05221B040D891B0C43EA0533A8
:105120004D88019043EA0533CD88A4B2A0F84050E1
:10513000084D92B2A8429BB202D0074DA84205D1B9
:10514000A4048989A40C44EA8114A4B284808283D3
:1051500003843EBD002C0140003401404FF0FF337A
:10516000838000230380C38043800372704721B192
:1051700003889BB243F0010304E0038823F001039A
:105180009B059B0D038070471AB183899BB219431D
:1051900003E083899BB223EA010181817047038B7D
:1051A00023F008031B041B0C41EA0303038370472D
:1051B000038B23F400631B041B0C43EA01239BB203
:1051C00003837047838B23F008031B041B0C41EA05
:1051D000030383837047838B23F400631B041B0C3E
:1051E00043EA01239BB283837047818470478186A1
:1051F00070470187704781877047A0F8401070475B
:10520000808C80B27047038A828911EA030092B2CF
:1052100003D011420CBF002001207047C94389B25E
:1052200001827047034B5A6822F4C07240EA0202BE
:105230005A607047002C0040044B00F07F005A6811
:1052400022F07F0240EA02025A607047002C0040C0
:10525000014B01221A607047A4800542024B00F006
:105260007F001860704700BF002C0040024B40F0E8
:1052700080001860704700BF002C0040014B0022E6
:105280009A607047002C00400000000001020304F7
:105290000102030406070809020406084275747433
:1052A0006F6E546F67676C655461736B00496E690C
:1052B0007444696D6D657256616C756573004275F5
:1052C00074746F6E44696D6D65725461736B0049DF
:1052D000324332526563656976655461736B00527F
:1052E0006566726573685461736B0053656E6455CF
:1052F00070646174655461736B005374617274758A
:0C530000705461736B0049444C45000080
:10530C0040000000000C00000206000080000000BD
:10531C00000C00000207000000010000000C00005F
:10532C000208000000020000000C0000020900004E
:10533C0000040000000C0000020A0000000800003D
:10534C00000C0000020B000040000000000C0100EB
:10535C000206000080000000000C010002070000A3
:10536C0000010000000C0100020800000002000017
:10537C00000C01000209000000040000000C0100F8
:10538C00020A000000080000000C0100020B0000E3
:10539C000200030000080140100003100008014047
:1053AC0020000310000801404000031000080140D9
:1053BC0080000310000801404000031C000C014059
:1053CC008000031C000C01400004031C000C014075
:1053DC000008031C000C014000100248000C0140A6
:1053EC0000200248000C014000400248000C014023
:1053FC0000800248000C01404000024800100140AF
:10540C0080000248001001400001024800100140D9
:10541C000002024800100140000402480010014044
:10542C000008024800100140010003100010014068
:10543C000200031000100140040003100010014092
:10544C000800031000100140100003100010014070
:10545C002000031000100140001003100010014048
:10546C00190000011C0000011D0000011E000001BC
:10547C002F01000120030001220300011F03000182
:10548C002103000112050001000A0001280C000193
:10549C00170C0001030E0001150346037503A2034C
:1054AC00CD03F40319043B04590473048A049D04CA
:1054BC00AC04B604BD04BF04BD04B604AC049D0426
:1054CC008A04730459043B041904F403CD03A203A6
:1054DC00750346031503000098010020200000000E
:0854EC0000100800AAAAAAAAF8
:0400000508000130BE
:00000001FF
